S00C0000494D53312E73726563FE
S113000086C20000A5C20000A3C20000A1C2000075
S11300109FC200009DC200009BC2000099C2000064
S113002097C2000095C2000093C2000091C2000074
S113003024C500008DC200008BC2000089C20000EC
S113004087C2000085C2000083C2000081C2000094
S11300507FC200007DC200007BC2000079C20000A4
S113006077C200000C94E6230C94382471C200007B
S11300706FC200006DC200006BC2000069C20000C4
S113008067C2000065C2000063C2000061C20000D4
S11300900C947C240C94CE245BC200000C94652741
S11300A057C2000055C2000053C2000051C20000F4
S11300B04FC200004DC200004BC2000049C2000004
S11300C047C2000045C2000043C200000C94122540
S11300D00C9464253DC200000C94A8250C94FA25C8
S11300E037C2000016021602160245024D025C02D7
S11300F01602160245024D028727F727F727F7272E
S1130100F727F727F727F7278727F727F727F7276B
S1130110F727F727F727F7278927F727F727F72759
S1130120F727F727F727F727F727F727F727F727DB
S1130130F727F727F727F7278927F727F727F72739
S1130140F727F727F727F727F727F727F727F727BB
S1130150F727F727F727F727F327F727F727F727AF
S1130160F727F727F727F727BE27F727F727F727D4
S1130170F727F727F727F727F727F727F727F7278B
S1130180F727F727F727F727B227F727F727F727C0
S1130190F727F727F727F727D6276E616E00696ED2
S11301A0660000407A10F35A00A0724E180900103D
S11301B0A5D4E80000E87648170000E40B540200D8
S11301C000CA9A3B000000E1F50500008096980003
S11301D0000040420F000000A0860100000010272C
S11301E000000000E80300000000640000000000BC
S11301F00A00000000000100000000002C76D888EE
S1130200DC674F0823DFC1DFAE59E1B1B796E5E300
S1130210E453C63AE651997696E8E6C28426EB8919
S11302208C9B62ED407C6FFCEFBC9C9F40F2BAA5B6
S11302306FA5F490055A2AF75C936B6CF9676DC14E
S11302401BFCE0E40D47FEF520E6B500D0ED902E52
S11302500300943577050080841E080000204E0AB0
S1130260000000C80C333333330F986E12831141EE
S1130270EF8D2114893BE65516CFFEE6DB18D184B9
S11302804B381BF77C1D901DA4BBE42420328472E0
S11302905E228100C9F124ECA1E53D2700EA17E0C4
S11302A00F2EF8ECEF2EF7E0FF2EF02D80919F0734
S11302B0882311F10FB6F8940F92D8011596ED9199
S11302C0FC911697C681D781CE0102963CD28091CB
S11302D0950781508093950780919F078150809363
S11302E09F070F900FBE8F89988DBAD1CE01B8D1D8
S11302F080919F078111DECFF7018081823008F061
S1130300F7D20E94B013D2CFCF93DF9300D000D0A6
S1130310CDB7DEB7CE0101964C0144244394E12CC1
S1130320F12C512CC82ED92CE091F607F091F70747
S11303308081882309F4D7C00580F681E02DA08050
S1130340B1800E94AB0CC4010E9442138C018981CC
S1130350811148C00A151B05B0F10E94750DE0918A
S1130360F607F091F7070580F681E02D6680778027
S1130370C3010296E8D1D30153968C91539782FF1F
S113038017C01C966D917C911D976A0D7B1D95017C
S1130390A801C3010E944D12882369F00E2D1F2D60
S11303A02E2D3F2DA501652DC3010E94FB1203C014
S11303B08E7FF301838BD3015096ED91FC9151977D
S11303C0C301199584C0452DB501601B710B809143
S11303D0F2079091F307AFD60E94750D811177C093
S11303E087D275C00E94750D72C0898188230CF470
S11303F06EC0AC80BD80F50182859385892B19F090
S1130400C5010296A0D1CE0106960E944213AC010A
S1130410E9810E2E000CFF0BEA30F10508F057C0FD
S11304208827EE58FF4F8F4F0C947A29D5015396A5
S11304308C915397816053968C9353972A813B8177
S11304401C966D917C911D97620F731FC5010E94CC
S11304504D128823E1F1D5015096ED91FC9151970D
S1130460C5011995F501838982FF31C04A815B81F9
S113047084859585480F591F0E2D1F2D2E2D3F2D38
S1130480652DC5010E94FB1222C0D50153968C91A3
S113049053978E7F53968C931AC0F501838981609C
S11304A0838B6A817B8175876487640F751F9A01CA
S11304B0C5010E944D120BC0D50153968C9181FD4C
S11304C003C0C501CDD003C08E7FF501838B4E2DB3
S11304D05F2D6C2D7D2D8091F2079091F307DED472
S11304E0811183CF21CF0E94AB0CC4010E9442131F
S11304F08C018981811176CFE091F407F091F507A1
S11305008081442D8111452DAE2CBF2C5DCF11244B
S11305101FBECFEFD1E2DEBFCDBF00E00CBF17E0BE
S1130520A0E0B2E0E0EFF9E500E00BBF02C0079005
S11305300D92A838B107D9F729E0A8E8B7E001C0BF
S11305401D92A33FB207E1F70E9497150C94F62C75
S113055057CDCF93DF9300D01F921F92CDB7DEB754
S11305600E94B10C9A83898382E08B838091060276
S1130570909107029D838C8360E070E08091CD09A7
S11305809091CE0914D50E947D228093C8098823B6
S113059029F080E592E00E94392C0CC0809106027B
S11305A0909107020E94AC2280910602909107026A
S11305B09D838C8320E040E050E0BE016D5F7F4F5F
S11305C08091CF099091D0099CD3813061F087E567
S11305D092E00E94392C6091980470919904CE01A4
S11305E001960E94F20D6091980470919904CE01D5
S11305F001960E94F20DC0CF8093060290930702E9
S11306009F938F938BE792E09F938F930E94252C67
S11306100F900F900F900F900895E8E0F1E0908113
S1130620907F908390818F70982B90830895E8E059
S1130630F1E08081807F80830895CF93DF93EC0184
S11306400E94AB0CCE010E949C29EC010E94750D06
S1130650209711F40E94B113CE01DF91CF91089538
S1130660CF93DF93009741F0EC010E94AB0CCE01D5
S11306700E94342A0E94750DDF91CF910895FC01E8
S11306800396928381832FEF3FEF348323839683F2
S113069085839087878310820895FC0111861086D4
S11306A00895CF93DF939C01FB01DC011196CD915A
S11306B0DC911297D383C2838C819D81958384833B
S11306C08C819D81DC0113967C936E9312977D83BC
S11306D06C8331872087F90180818F5F8083DF916C
S11306E0CF910895CF93DF93EB01488159814F3F18
S11306F02FEF520721F4FC01A781B0850DC0DC0166
S1130700139601C0DF011296ED91FC91139720819D
S1130710318142175307B0F71296ED91FC9113976C
S1130720FB83EA83D583C483BD83AC831396DC93B4
S1130730CE93129799878887FC0120812F5F2083AD
S1130740DF91CF910895CF93DF93FC01A085B1850C
S1130750C281D381848195819D838C83C481D58119
S1130760828193819B838A8311968D919C911297A8
S1130770E817F90731F48481958112969C938E933E
S11307801197118610868C9181508C938C91DF91F6
S1130790CF91089531E1FC013083319722E2208327
S11307A03197A3E3A08331976083319770833197A6
S11307B0108231971082319760E8608331971082FC
S11307C03197108231971082319762E060833197BC
S11307D063E06083319764E06083319765E0608310
S11307E0319766E06083319767E06083319768E012
S11307F06083319769E06083319760E1608331976A
S11308003083319732E13083319733E1308331974C
S113081034E13083319735E13083319736E13083E9
S1130820319737E13083319738E13083319739E1BB
S11308303083319730E23083319731E2308331971E
S11308402083319723E2208331974083319750836B
S1130850319726E22083319727E22083319728E2DB
S11308602083319729E22083319720E32083319735
S113087021E3208389970895A89590EC88E10FB629
S1130880F894A895809360000FBE90936000A091A7
S1130890EC07B091ED07CD91CDBFDD91DEBFFF91A7
S11308A0EF91DF91CF91BF91AF919F918F917F9104
S11308B06F915F914F913F912F911F910F91FF90F5
S11308C0EF90DF90CF90BF90AF909F908F907F90EC
S11308D06F905F904F903F902F901F900F900CBEA1
S11308E00F900BBE0F900FBE0F90089581E00895F6
S11308F00F920FB6F8940F920BB60F920CB60F929C
S11309001F9211242F923F924F925F926F927F9287
S11309108F929F92AF92BF92CF92DF92EF92FF920B
S11309200F931F932F933F934F935F936F937F93F3
S11309308F939F93AF93BF93CF93DF93EF93FF93E3
S1130940A091EC07B091ED070DB60D920EB60D9285
S11309500E943E0EA091EC07B091ED07CD91CDBF62
S1130960DD91DEBFFF91EF91DF91CF91BF91AF9108
S11309709F918F917F916F915F914F913F912F91B3
S11309801F910F91FF90EF90DF90CF90BF90AF90A9
S11309909F908F907F906F905F904F903F902F909B
S11309A01F900F900CBE0F900BBE0F900FBE0F90B8
S11309B008950F920FB6F8940F920BB60F920CB6DF
S11309C00F921F9211242F923F924F925F926F9237
S11309D07F928F929F92AF92BF92CF92DF92EF92CB
S11309E0FF920F931F932F933F934F935F936F93B4
S11309F07F938F939F93AF93BF93CF93DF93EF93A3
S1130A00FF93A091EC07B091ED070DB60D920EB6D1
S1130A100D9213BEB0D781110E943E0EA091EC0737
S1130A20B091ED07CD91CDBFDD91DEBFFF91EF9188
S1130A30DF91CF91BF91AF919F918F917F916F91F2
S1130A405F914F913F912F911F910F91FF90EF90E4
S1130A50DF90CF90BF90AF909F908F907F906F90DA
S1130A605F904F903F902F901F900F900CBE0F906F
S1130A700BBE0F900FBE0F9008959BDF18950FB615
S1130A80F8940F92FC01928D0F900FBE81E09111AA
S1130A9080E008950F931F93CF93DF93EC01042F0D
S1130AA01A8D4C8D41110CC088819981892B09F0D4
S1130AB042C08C819D810E9406101D821C8242C00E
S1130AC0011117C050E08A819B810E94A42B2C8DB8
S1130AD08A819B81820F911D9B838A832C813D8116
S1130AE08217930750F1888199819B838A8380E0E0
S1130AF029C050E08E819F810E94A42B8C8D90E0B0
S1130B009195819591092E813F81280F391F3F834B
S1130B102E83488159812417350730F42C813D8177
S1130B20820F931F9F838E83023049F4112349F06F
S1130B30115080E007C080E005C080E003C080E081
S1130B4001C080E01F5F1A8FDF91CF911F910F9139
S1130B500895FC01448D4423A9F050E02681378197
S1130B60240F351F378326838481958128173907FD
S1130B7020F08081918197838683CB016681778180
S1130B800C94A42B0895EF92FF920F931F93CF938D
S1130B908C010FB6F8940F92FC01C68D1C16ACF4B0
S1130BA08189811106C011C0F8018189811105C0B4
S1130BB00CC07801F1E1EF0EF11CC7010E94F50EA3
S1130BC081110E947D0FC15079F78FEFF801868F54
S1130BD00F900FBE0FB6F8940F92C58D1C16ACF48F
S1130BE08085811106C011C0F8018085811105C07E
S1130BF00CC07801F8E0EF0EF11CC7010E94F50E5D
S1130C0081110E947D0FC15079F78FEFF801858F14
S1130C100F900FBECF911F910F91FF90EF90089509
S1130C20CF93DF93EC010FB6F8940F92E881F9812A
S1130C308B8D2C8D90E030E0829FA001839F500D1E
S1130C40929F500D11244E0F5F1F5D834C831A8EAB
S1130C50FB83EA830197829FA001839F500D929F9B
S1130C60500D1124CF01840F951F9F838E838FEF26
S1130C708D8F8E8F61110BC08885882371F0CE0112
S1130C8008960E94F50E882341F032DE06C0CE019C
S1130C900896F5DCCE014196F2DC0F900FBE81E0A0
S1130CA0DF91CF910895FF920F931F93CF93DF931A
S1130CB0082F162FF42E6623B9F0869FC001112445
S1130CC08196BBDCEC01009741F414C00B8F1C8FA0
S1130CD061E0CE01A5DFF8A20DC0819699838883D7
S1130CE0F5CFD983C883F2CF81E290E0A6DCEC0192
S1130CF0892BB9F7CE01DF91CF911F910F91FF900E
S1130D0008959F92AF92BF92CF92DF92EF92FF929B
S1130D100F931F93CF93DF9300D01F921F92CDB7F1
S1130D20DEB78C016B015D834C83A22EB12C992418
S1130D3093947C0188E0E80EF11C0FB6F8940F92AE
S1130D40F801928D838D981718F0F2E0AF1216C057
S1130D504A2DB601C8019EDEF8019189992341F01C
S1130D60C80141960E94F50E882321F0C1DD02C01E
S1130D708111BEDD0F900FBE81E047C08C819D8143
S1130D80892B21F40F900FBE80E03FC0B11005C045
S1130D90CE0101960E943D0FB92C0F900FBEDBD5FA
S1130DA00FB6F8940F92F801858D8F3F09F4158ED4
S1130DB0F801868D8F3F09F4168E0F900FBEBE0189
S1130DC06C5F7F4FCE0101960E94480F811119C0BC
S1130DD00FB6F8940F92F801928D838D0F900FBE89
S1130DE098130BC06C817D81C701D6D7C801CBDEB7
S1130DF07CD68111A2CF7CDDA0CFC801C4DE75D61C
S1130E009CCFC801C0DE71D680E00F900F900F9088
S1130E100F900F90DF91CF911F910F91FF90EF9062
S1130E20DF90CF90BF90AF909F900895EF92FF9284
S1130E300F931F93CF93DF938A01FC01528D338D5F
S1130E40531710F02230E1F4422F7801EC011E8D8B
S1130E5021DE1F3F79F489898823A1F0CE014196D0
S1130E60C4D7882389F0E114F10481F081E0F7010B
S1130E7080830DC0FF24F394F10EFE8E81E007C041
S1130E8080E005C081E003C081E001C081E0DF9122
S1130E90CF911F910F91FF90EF9008959F92AF9281
S1130EA0BF92CF92DF92EF92FF920F931F93CF9353
S1130EB0DF9300D01F921F92CDB7DEB78C015B0188
S1130EC05D834C83E12C992493946C0181E1C80ED9
S1130ED0D11C0FB6F8940F92F801F28CFF2091F018
S1130EE0B501C80136DEFA94F801F28E80858823B4
S1130EF029F0C801089679D78111FADC0F900FBE4A
S1130F0081E044C08C819D81892B21F40F900FBE18
S1130F1080E03CC0E11004C0CE010196AED7E92CBC
S1130F200F900FBE18D50FB6F8940F92F801858D67
S1130F308F3F09F4158EF801868D8F3F09F4168EC4
S1130F400F900FBEBE016C5F7F4FCE010196A0D7FC
S1130F50811113C0C80193DD882359F06C817D8110
S1130F60C6011AD7C8010FDEC0D58111B2CFC0DCCB
S1130F70B0CFC80108DEB9D5ACCFC80104DEB5D501
S1130F80C8017DDD882309F4A4CF80E00F900F9081
S1130F900F900F900F90DF91CF911F910F91FF90C1
S1130FA0EF90DF90CF90BF90AF909F900895BF9245
S1130FB0CF92DF92EF92FF920F931F93CF93DF9321
S1130FC000D01F921F92CDB7DEB78C017D836C8356
S1130FD0B12CD12CCC24C3947C0181E1E80EF11C0A
S1130FE00FB6F8940F92D8015A968C915A97882389
S1130FF0D9F081505A968C935A978D919C91892B54
S113100029F40E949610F80195838483D8011896D8
S11310108C91882329F0C8010896E7D6811168DCF1
S11310200F900FBE81E070C08C819D81892B21F4CB
S11310300F900FBE80E068C0D11004C0CE010196AD
S11310401CD7DC2C0F900FBE86D40FB6F8940F92E9
S1131050F801858D8F3F09F4158ED8015E968C9129
S11310605E978F3F11F45E961C920F900FBEBE01E7
S11310706C5F7F4FCE0101960BD7811121C0C8014F
S1131080FEDC8823C9F0F80180819181892B49F421
S11310900FB6F8940F928481958146D7B82E0F909D
S11310A00FBE6C817D81C70177D6C8016CDD1DD56B
S11310B0811196CF1DDC94CFC80165DD16D590CF84
S11310C0C80161DD12D5C801DADC882309F488CFB0
S11310D0BB20C9F00FB6F8940F92F80181898823D8
S11310E039F00688F789E02D808164E0681B01C02F
S11310F060E0D80114968D919C911597C7D70F90F5
S11311000FBE80E001C080E00F900F900F900F9011
S11311100F90DF91CF911F910F91FF90EF90DF908F
S1131120CF90BF9008950FB6F8940F92FC01828D72
S11311300F900FBE0895CF93DF93EC010FB6F89490
S11311400F928D8D8F3F09F41D8E8E8D8F3F09F484
S11311501E8E0F900FBE8A8D811103C0CE01419661
S11311602CD6CE0110DDDF91CF910895FC0144818E
S1131170558122813381240F351F80819181B901EA
S1131180681B790BCB016417750710F0841B950B52
S11311900895AF92BF92CF92DF92EF92FF920F9396
S11311A01F93CF93DF936C015B017A01FC01C28131
S11311B0D381048115810C1B1D0B4017510708F4C2
S11311C08A01F60184859585A801B5018C0F9D1FC0
S11311D00E94A42B0E151F0558F4A701401B510BA8
S11311E0B501600F711FF601848595850E94A42BBB
S11311F0CE018E0D9F1DF601248135818217930740
S113120010F0821B930BF60193838283C701DF9155
S1131210CF911F910F91FF90EF90DF90CF90BF90EF
S1131220AF900895CF92DF92EF92FF920F931F93A6
S1131230CF93DF931F921F92CDB7DEB75A834983B2
S113124021153105C9F06B017C01FC01868580FD07
S113125008C0CA012417350708F4C9019A83898391
S113126011C02017310758F042E050E0BE016F5F13
S11312707F4FC7018EDF06C080E090E008C080E0A9
S113128090E005C049815A81B601C70182DF0F9001
S11312900F90DF91CF911F910F91FF90EF90DF900E
S11312A0CF900895AF92BF92CF92DF92EF92FF92C8
S11312B00F931F93CF93DF937C015B01E9014217E6
S11312C0530708F4EA01209779F1F70100811181AD
S11312D0C480D580C01AD10ACC15DD0508F46E018E
S11312E0F70164857585600F711FA601C5010E9411
S11312F0A42BCC16DD0658F4AE014C195D09F70198
S113130064857585C5018C0D9D1D0E94A42B0C0F51
S11313101D1FF701848195810817190710F0081B18
S1131320190BF70111830083CE01DF91CF911F9137
S11313300F91FF90EF90DF90CF90BF90AF90089502
S1131340EF92FF921F93CF93DF93EB0111E04130B3
S113135009F010E0209711F4C1E0D0E07C012FEFF8
S1131360E21AF20A419669D9009781F020E1FC0162
S113137011922A95E9F79C01205F3F4FFC013587C4
S11313802487F582E482D783C6831687DF91CF91C1
S11313901F91FF90EF900895CF93DF93FC01278571
S11313A00FB6F8940F9280859185892BD1F48285AC
S11313B09385892BC1F48685468157816481758123
S11313C0A485B58590E1EF0119929A95E9F7B5875F
S11313D0A48775836483578346838687278781E040
S11313E003C080E001C080E00F900FBEDF91CF9179
S11313F00895FC012481358180819181428153814A
S1131400820F931F0197841B950B8217930710F08B
S1131410821B930B0895AF92BF92CF92DF92EF920B
S1131420FF920F931F93CF93DF93EC015B016A014B
S113143079018E8580FF04C08A010E5F1F4F01C0B1
S11314408A01CE01D6DF9C01A601B501CE01EADEF8
S11314506C01892BB1F0CE0189DE2E813F81821788
S1131460930778F088859985892B59F08885998523
S113147000E010E020E040E050E0BA016AD71986AD
S11314801886C601DF91CF911F910F91FF90EF90C5
S1131490DF90CF90BF90AF9008956F927F928F921C
S11314A09F92AF92BF92CF92DF92EF92FF920F93EF
S11314B01F93CF93DF931F921F92CDB7DEB76C01BA
S11314C03B014A017901FC01868580FD03C0A12C02
S11314D0B12C04C06894AA24A1F8B12CE114F1043D
S11314E029F10FB6F8940F92C60140DE8C01A816BC
S11314F0B90638F080E090E0BCD703D5F6019187B7
S113150080870F900FBEA016B106B0F000E010E087
S113151020E030E0A90160E070E0CB0119D6F601CB
S113152011861086C60122DE8C0103C0C6011EDEB0
S11315308C01A016B106B8F5A114B104C1F0F601EE
S1131540E080F1809801A501BE016F5F7F4FC60165
S1131550A9DE89819A810A191B098816990630F433
S1131560F601F182E082812C912C01C04C0198019A
S1131570A401B301C60196DE7C01892BB1F0EBD145
S1131580F60182859385892B61F08285938500E03D
S113159010E020E040E050E0BA015DD6F601138689
S11315A01286A3D202C0E12CF12CC7010F900F9038
S11315B0DF91CF911F910F91FF90EF90DF90CF902B
S11315C0BF90AF909F908F907F906F900895E0911F
S11315D0B407F091B5078081811107C08FEF9FEFA9
S11315E090938C0780938B070895E091B407F09152
S11315F0B5070580F681E02D0680F781E02D828114
S1131600938190938C0780938B070895FF920F9397
S11316101F93CF93DF93EC01F62E00919307109163
S113162094078091EC079091ED0702968CD8CF3FF8
S11316308FEFD80761F4FF2051F06091EC077091AF
S1131640ED076E5F7F4F86E997E02BD82DC0C00F62
S1131650D11FE091EC07F091ED07D383C283C0174B
S1131660D10760F46091EC077091ED078091B207A7
S11316709091B3076E5F7F4F35D816C06091EC0729
S11316807091ED078091B4079091B5076E5F7F4F1D
S113169029D880918B0790918C07C817D90720F41B
S11316A0D0938C07C0938B07DF91CF911F910F913B
S11316B0FF9008954F925F926F927F928F929F92C4
S11316C0AF92BF92CF92DF92EF92FF920F93CF939C
S11316D0DF934C016B015A012901CA010E941D03C9
S11316E03C01892B09F4F3C08CE290E00E941D03B5
S11316F0EC01892B99F0788E6F8AA50165EA70E078
S1131700C3010E94AD2B81E0A81AB1088F89988D7E
S1131710A80EB91EC114D10429F420C0C3010E942B
S11317203003D5C0D6018C91898F8C918823A1F088
S1131730AE01465E5F4FF6013196B8E0CB0ED11C88
S1131740CF012191DA012D93AD01DC018C91882325
S113175019F0EC15FD05A1F718A201C0198E04308B
S113176008F003E00E8B0BA31CA26E01B2E0CB0EBB
S1131770D11CC6010E944D03CE010C960E944D035C
S1131780D987C88784E090E0801B91099D878C8766
S1131790DB8BCA8B1EA21DA21FA218A619A61AA60D
S11317A01BA6A201B401C5010E94CA0399838883C0
S11317B0E114F10419F0F701D183C0830FB6F89452
S11317C00F92809195078F5F809395078091EC0726
S11317D09091ED07892BD1F5D093ED07C093EC07D9
S11317E080919507813009F041C088EC97E00E9410
S11317F03F0381ED97E00E943F038AED97E00E944A
S11318003F0383EE97E00E943F038FEB97E00E9433
S11318103F0386EB97E00E943F0389EA97E00E942A
S11318203F0380EA97E00E943F0386E997E00E9425
S11318303F038FEB97E09093B5078093B40786EB53
S113184097E09093B3078093B20710C080919107FB
S113185081110CC0E091EC07F091ED0796898E8917
S1131860891720F0D093ED07C093EC0780918D0782
S11318708F5F80938D0789A38E8990919207981723
S113188010F48093920790E09C01220F331F220FE3
S1131890331F220F331F820F931FB6018853984FB3
S11318A00E9451030F900FBE80919107882359F035
S11318B0E091EC07F091ED0796898E89981728F44A
S11318C017D881E005C081E003C081E001C08FEF3B
S11318D0DF91CF910F91FF90EF90DF90CF90BF9069
S11318E0AF909F908F907F906F905F904F900895EE
S11318F0EF92FF920F930F2EF9E8EF2EF7E0FF2EF1
S1131900F02D00E020E030E040EC50E066E872E0CA
S11319108EE491E0CFDE8130D1F417D68130B9F472
S1131920F8948FEF9FEF90938C0780938B0781E05F
S1131930809391071092940710929307E091EC071B
S1131940F091ED0785A10E940D030E943C040F91C4
S1131950FF90EF900895809188078F5F80938807A8
S113196008950FB6F8940F9280919307909194077D
S11319700F900FBE0895CF92DF92EF92FF920F93D4
S11319801F93CF93DF9380918807811198C0E090D3
S11319909307F09094078FEFE81AF80AF0929407EF
S11319A0E0929307E114F104B1F48091B4079091AB
S11319B0B5072091B2073091B3073093B507209350
S11319C0B4079093B3078093B20780918E078F5F1B
S11319D080938E07FCDD80918B0790918C07E8162D
S11319E0F90610F4D12C53C0D12CCC24C394E0912B
S11319F0B407F091B5078081811107C08FEF9FEF85
S1131A0090938C0780938B0742C0E091B407F091C8
S1131A10B5070580F681E02DC681D7818A819B8137
S1131A20E816F90628F490938C0780938B072FC04F
S1131A308E010E5F1F4FC8010E94A3038C899D89EC
S1131A40892B21F0CE010C960E94A3038E899091DC
S1131A509207981710F48093920790E09C01220F4C
S1131A60331F220F331F220F331F820F931FB8011E
S1131A708853984F0E945103E091EC07F091ED07D1
S1131A809E898689981708F4B2CFDC2CB0CFE091F8
S1131A90EC07F091ED07868990E0FC01EE0FFF1F43
S1131AA0EE0FFF1FEE0FFF1F8E0F9F1FFC01E85369
S1131AB0F84F8081823048F0DD24D39406C08091B1
S1131AC090078F5F80939007D12C80918F07882394
S1131AD011F0DD24D3948D2DDF91CF911F910F91BF
S1131AE0FF90EF90DF90CF900895DF92EF92FF92F6
S1131AF00F931F93CF93DF930FB6F8940F928091B7
S1131B0088078150809388078091880781115DC080
S1131B1080919507811133C05BC0D7011596ED9173
S1131B20FC911697C681D781CE010C960E94A3031F
S1131B308E010E5F1F4FC8010E94A3038E899091EE
S1131B409207981710F48093920790E09C01220F5B
S1131B50331F220F331F220F331F820F931FB8012D
S1131B608853984F0E945103E091EC07F091ED07E0
S1131B709E898689981768F0D0928F070AC0C0E0C2
S1131B80D0E00F2EF9EAEF2EF7E0FF2EF02DDD2442
S1131B90D394F70180818111C0CFCD2B09F017DDDB
S1131BA0C0919007CC2349F0D1E0E5DE8111D093B8
S1131BB08F07C150D1F71092900780918F07882327
S1131BC031F00E94780481E003C080E001C080E02D
S1131BD00F900FBEDF91CF911F910F91FF90EF9067
S1131BE0DF9008950F931F93CF93DF938C01EB0144
S1131BF0B2DE4091930750919407F801208131811E
S1131C00C9018C0F9D1F4217530748F4821793078D
S1131C10D8F4918380834817590760F407C082176A
S1131C20930770F04817590758F00EC060E0841B02
S1131C30950BECDC5ADF81110BC00E94780408C0BC
S1131C40F80191838083F2CFF80191838083F2CFEE
S1131C50DF91CF911F910F910895CF93DF93EC0102
S1131C60892B39F078DE60E0CE01D0DC3EDF8111D3
S1131C7002C00E947804DF91CF9108958091880773
S1131C80882321F081E080938F07089510928F07B5
S1131C90E091EC07F091ED0785A10E941703A09154
S1131CA0EC07B091ED07E091EC07F091ED072D9171
S1131CB03C918789908D8217930758F06091EC07C7
S1131CC07091ED078091EC079091ED07675E7F4F6F
S1131CD055D520919207822F90E0FC01EE0FFF1F53
S1131CE0EE0FFF1FEE0FFF1FE80FF91FE853F84F29
S1131CF03081311111C02150822F90E0FC01EE0F90
S1131D00FF1FEE0FFF1FEE0FFF1FE80FF91FE85331
S1131D10F84F3081332379F3AC01440F551F440F3E
S1131D20551F440F551F480F591FDA01A853B84FC8
S1131D301196ED91FC9112970280F381E02D129699
S1131D40FC93EE9311974553584FE417F50729F484
S1131D5042815381FD0152834183FC01EE0FFF1F39
S1131D60EE0FFF1FEE0FFF1F8E0F9F1FFC01E853A6
S1131D70F84F0180F281E02D868197819093ED07E1
S1131D808093EC0720939207E091EC07F091ED0724
S1131D9085A10C940D030895CF93DF93EB0160911B
S1131DA0EC077091ED07645F7F4F0E94720361E05E
S1131DB0CE012CDCDF91CF9108950F931F93CF9325
S1131DC08B01C42F6091EC077091ED07645F7F4F26
S1131DD00E945103CC2311F00FEF1FEF6C2FC801A9
S1131DE015DCCF911F910F9108950F931F93CF93FB
S1131DF0DF93DC011596ED91FC911697C681D7818E
S1131E008E01045F1F4FC8010E94A30380918807BD
S1131E1081111CC00A501109C8010E94A3038E89B4
S1131E2090919207981710F48093920790E09C0188
S1131E30220F331F220F331F220F331F820F931FD2
S1131E40B8018853984F0E94510305C0B80189EA2C
S1131E5097E00E945103E091EC07F091ED079E8911
S1131E608689891720F481E080938F0701C080E080
S1131E70DF91CF911F910F91089520918E07FC015E
S1131E80208320919307309194073283218308950E
S1131E90CF93DF930FB6F8940F922091930730916C
S1131EA09407DB014D915C914F3FBFEF5B07E9F075
S1131EB0EC01E981FA81A0918E07B881BA1719F073
S1131EC02E173F07A0F42E1B3F0B2417350740F4B1
S1131ED0FB01421B530B51834083CFDF80E008C0DA
S1131EE0FB011182108281E003C080E001C081E027
S1131EF00F900FBEDF91CF91089581E080938F07FB
S1131F0008958091EC079091ED07089580919107D1
S1131F10882331F080918807882321F080E0089598
S1131F2081E0089582E008950F931F93CF93DF9388
S1131F30FC01892B09F464C02689A091EC07B091B7
S1131F40ED0756968C91281708F04EC08485958528
S1131F50992364F0A091EC07B091ED0756963C915B
S1131F6084E090E0831B91099587848730E0C90160
S1131F70880F991F880F991F880F991F280F391FE1
S1131F802853384F828593858217930721F58F0153
S1131F90EF012296CE010E94A303E091EC07F09199
S1131FA0ED078689F801868B90919207981710F4B3
S1131FB08093920790E09C01220F331F220F331F5E
S1131FC0220F331F820F931FBE018853984F0E9424
S1131FD0510381E016C0A091EC07B091ED0756962D
S1131FE08C91868B81E00DC0A091EC07B091ED0738
S1131FF081E023A156969C91291718F080E001C036
S113200080E0DF91CF911F910F9108950F931F935B
S1132010CF93DF93FC01892B79F184A1815084A3B0
S1132020268993A1291751F181112AC0EF018F014B
S11320300E5F1F4FC8010E94A3038BA18E8B24E067
S113204030E0281B31093D872C879091920798171F
S113205010F48093920790E09C01220F331F220F0B
S1132060331F220F331F820F931FB8018853984FD9
S11320700E94510381E005C080E003C080E001C0FC
S113208080E0DF91CF911F910F9108950F931F93DB
S1132090CF93DF93FC01892B09F443C093A19617D6
S11320A008F4962F86898917E1F124A12130C9F516
S11320B0968B24853585332334F024E030E0291BC6
S11320C031093587248790E09C01220F331F220FAA
S11320D0331F220F331F820F931F8853984F22857B
S11320E0338528173907E9F4EF018F010E5F1F4F7D
S11320F0C8010E94A3038E8990919207981710F447
S11321008093920790E09C01220F331F220F331F0C
S1132110220F331F820F931FB8018853984F0E94D8
S11321205103DF91CF911F910F9108958091EC0796
S11321309091ED07892B39F0E091EC07F091ED07D0
S113214084A18F5F84A38091EC079091ED0708959B
S11321504F925F926F927F928F929F92AF92BF92B3
S1132160EF92FF920F931F9349015A010FB6F8940F
S11321700F92E091EC07F091ED0723A5223021F1B5
S1132180E091EC07F091ED0747A050A461A472A47C
S1132190DC01CB0180959095A095B0958421952183
S11321A0A621B72187A390A7A1A7B2A7E091EC0726
S11321B0F091ED0781E083A7E114F10429F061E0D7
S11321C0C70124DA0E9478040F900FBE0FB6F8946A
S11321D00F920115110569F0E091EC07F091ED07FC
S11321E087A190A5A1A5B2A5F80180839183A283BC
S11321F0B383E091EC07F091ED0783A58230B1F44D
S1132200E091EC07F091ED0787A190A5A1A5B2A5F7
S113221080949094A094B09488229922AA22BB22FC
S113222087A290A6A1A6B2A681E001C080E0E091B9
S1132230EC07F091ED0713A60F900FBE1F910F91BD
S1132240FF90EF90BF90AF909F908F907F906F9092
S11322505F904F9008950F931F93CF93DF93FC01EA
S11322600FB6F8940F920115110549F087A190A5B6
S1132270A1A5B2A5E80188839983AA83BB8383A51A
S113228092E093A72230B1F018F4213031F02AC043
S11322902330E9F0243001F125C007A110A521A5C0
S11322A032A5402B512B622B732B47A350A761A758
S11322B072A718C047A150A561A572A54F5F5F4FD3
S11322C06F4F7F4F47A350A761A772A70BC047A3C7
S11322D050A761A772A706C0823079F147A350A71F
S11322E061A772A7813059F5EF018F010E5F1F4F6F
S11322F0C8010E94A3038E8990919207981710F445
S11323008093920790E09C01220F331F220F331F0A
S1132310220F331F820F931FB8018853984F0E94D6
S11323205103E091EC07F091ED079E8986898917A6
S113233040F40E94780481E005C080E003C081E09D
S113234001C081E00F900FBEDF91CF911F910F91DB
S11323500895EF92FF920F931F93CF93DF93FC01A5
S11323600115110549F087A190A5A1A5B2A5E80121
S113237088839983AA83BB8383A592E093A72230A1
S1132380B1F018F4213031F02BC02330E9F02430BF
S113239001F126C007A110A521A532A5402B512B80
S11323A0622B732B47A350A761A772A719C047A13B
S11323B050A561A572A54F5F5F4F6F4F7F4F47A335
S11323C050A761A772A70CC047A350A761A772A723
S11323D007C0823009F441C047A350A761A772A780
S11323E08130E9F5EF018091880781111DC08F01CB
S11323F00E5F1F4FC8010E94A3038E89909192071C
S1132400981710F48093920790E09C01220F331FD9
S1132410220F331F220F331F820F931FB8018853DB
S1132420984F0E94510307C0BF01645F7F4F89EA40
S113243097E00E945103E091EC07F091ED079E892B
S11324408689891770F4E114F10419F081E0F70129
S1132450808381E080938F0705C080E003C081E022
S113246001C081E0DF91CF911F910F91FF90EF9018
S11324700895009721F48091EC079091ED070FB631
S1132480F8940F92FC0123A5223019F413A681E0DD
S113249001C080E00F900FBE0895FC017383628336
S11324A0918780874617570790F0421B530B84850A
S11324B0958548175907E0F4BF016E5F7F4F8091FF
S11324C0F4079091F5070E94720380E00895421783
S11324D0530718F46217730768F4BF016E5F7F4FE8
S11324E08091F6079091F7070E94720380E00895A7
S11324F081E0089581E008950FB6F8940F928091D9
S1132500F2079091F307892BE9F481E098E00E94A7
S11325103F0388EF97E00E943F0381E098E09093A7
S1132520F7078093F60788EF97E09093F507809379
S1132530F40740E065E08AE00E9453069093F307B5
S11325408093F2070F900FBE0895EF92FF920F93BE
S1132550D3DF8091F2079091F307892B89F00F2E36
S1132560F0EFEF2EF7E0FF2EF02D03E020E030E057
S113257045E550E06BE872E084E891E09BD801C047
S113258080E00F91FF90EF9008958F929F92AF9209
S1132590BF92CF92DF92FF920F931F93CF93DF935B
S11325A04C015B01F42E690184E190E00E941D035B
S11325B0EC01892B99F01B8A9FDF99828882BD8662
S11325C0AC86DF86CE86198B088BCE0102960E94DC
S11325D04D03FF2019F08B8984608B8BCE01DF9132
S11325E0CF911F910F91FF90DF90CF90BF90AF904C
S11325F09F908F9008950F931F93CF93DF9300D0F4
S11326001F921F92CDB7DEB7E091F207F091F30766
S1132610309769F1D90169835B834A839D838C83F5
S11326206630E4F473DC823061F420E0A801BE017A
S11326306F5F7F4F8091F2079091F3070E948106AC
S113264017C020E040E050E0BE016F5F7F4F8091F3
S1132650F2079091F3070E9481060AC020E0AD01C1
S1132660BE016F5F7F4FCF010E94160701C080E05B
S11326700F900F900F900F900F90DF91CF911F91BB
S11326800F910895AF92BF92CF92DF92EF92FF9293
S11326900F931F93CF93DF936C0163D97C018091D7
S11326A0EE079091EF07E816F90608F047C02FC02F
S11326B00580F681E02DA080B180C681D7818E018E
S11326C00E5F1F4FC8010E94A303E889F989CE0158
S11326D019958B8982FF1BC08C859D858A0D9B1D56
S11326E0A816B90660F49B838A83D987C887B80182
S11326F08091F6079091F7070E94720308C000E0EA
S113270010E020E030E0A50160E0CE0174DFE0914C
S1132710F607F091F70780818111CACF8091F40701
S11327209091F5079093F7078093F607F093F507D8
S1132730E093F40781E0F601808302C0F601108281
S1132740F092EF07E092EE07C701DF91CF911F915E
S11327500F91FF90EF90DF90CF90BF90AF900895CE
S11327600895279A2F9A2FEF80E792E02150804016
S11327709040E1F700C000001F9AF5CF279A2F9AE6
S11327802FEF87EA91E6215080409040E1F700C0A6
S113279000001F9AF5CFCF93DF9300D01F921F92B2
S11327A0CDB7DEB7DED89A8389831B828FEF9FEF84
S11327B09D838C8360E070E08091C9099091CA097F
S11327C00E94D707C6D783E090E047DAD7D783E0E3
S11327D090E043DAE4D720E030E048EC52E4C8D299
S11327E02AD371D27D836C8320E040E050E0BE01A7
S11327F06D5F7F4F8091CF099091D0090E9481062F
S1132800813059F083E992E00E94392C6091980458
S113281070919904CE010196E5D960919804709164
S11328209904CE010196DED9C5CF7BD7811105C0AD
S113283087EB92E00E94392C04C089EC92E00E945C
S1132840392C6CEF72E083E00C944F22089587E0FA
S113285009D781E00C94951E0895CF93DF93CDB7EB
S1132860DEB769970FB6F894DEBF0FBECDBF79D837
S113287081E00E94D11E82E090E0EFD980E00E94C6
S1132880D11E86E990E0E9D90E948E1E81E00E9463
S1132890221D0E94E51E0E9426219F938F9380EEA5
S11328A092E09F938F930E94252C0E942E200E94D9
S11328B026219F938F9383EF92E09F938F930E949F
S11328C0252C8AE098E00E94F71E0E9426210AE047
S11328D018E01F930F939F938F938CE093E09F9343
S11328E08F930E94252CC8010E94131F0E94262149
S11328F09F938F931F930F9380E293E09F938F9303
S11329000E94252CA80165E373E086E593E00E940C
S113291001210E9426219F938F931F930F9385E398
S113292093E09F938F9386E593E09F938F9387E63D
S113293093E09F938F930E94252C0E94461F0E9430
S113294026219F938F938DE993E09F938F930E9409
S1132950252C0FB6F894DEBF0FBECDBF81E00E94D8
S113296007200E9426219F938F938CEA93E09F93E4
S11329708F930E94252C0F900F900F900F9004E1DD
S113298010E00F2EFDECEF2EF3E0FF2EF02D80E093
S11329900E944C1FD82E0E9426219F938F931F9331
S11329A00F93FF92EF920E94252C0F900F900F909F
S11329B00F900F900F9098E0D91609F473C080E03F
S11329C00E948E1D8CE390E048D901501109F9F65C
S11329D063C00E947804FDCF8091CF099091D00903
S11329E00E9493088823C1F34FEF5FEFBE016F5F2E
S11329F07F4F8091CF099091D0090E944E07082FF4
S1132A002A813B81898190E0880F991FE6E0F0E0FC
S1132A10EC0FFD1FE80FF91F3083E7E0F0E0EC0F47
S1132A20FD1FE80FF91F20831F5F133069F58B85A5
S1132A301F928F938A851F928F9389851F928F93FC
S1132A4088851F928F938F811F928F938E811F92FF
S1132A508F93FF92EF920E94252C83E00E94A01D89
S1132A60BE016C5F7F4F80E00E946F1F0E94262191
S1132A709F938F93DF92CF920E94252C0FB6F894E8
S1132A80DEBF0FBECDBF10E0013009F4A5CF82E355
S1132A9094E00E94392CA0CF81E00E947F1D80E049
S1132AA0F8D797CF81E00E94701D86E08D8382E085
S1132AB08C8310E00F2EFDEEEF2EF3E0FF2EF02DB1
S1132AC00F2EFDE1CF2EF4E0DF2EF02D85CF0E94F6
S1132AD0B10C9F938F9386E494E09F938F930E940D
S1132AE0252C20E040E050E060E070E08091D109C6
S1132AF09091D2090E94810620E040E050E060E01D
S1132B0070E08091CD099091CE090E94810620E069
S1132B1040E050E060E070E08091C9099091CA09FA
S1132B200E9481060F900F900F900F90089540E03F
S1132B3063E085E00E9453069093D0098093CF0907
S1132B4040E066E181E00E9453069093CC098093B3
S1132B50CB0943E060E081E00E9453069093D209E0
S1132B608093D10943E060E081E00E945306909392
S1132B70CE098093CD0943E060E081E00E945306D2
S1132B809093CA098093C90907E615E120E030E073
S1132B9041E060EA7FE082E794E0F7DCEC010E9428
S1132BA0B10C00E010E020E030E0AC0161E0CE01C7
S1132BB022DD8091CF099091D009892B59F1E12C24
S1132BC0F12C03E020E030E040EC50E06DE774E0ED
S1132BD083E196E10E945A0B20E030E040EC50E0A3
S1132BE063E874E089EA92E00E945A0B20E030E046
S1132BF040EC50E069E874E08BEC93E10E945A0BDE
S1132C0020E030E048E851E06FE874E08DE294E1C0
S1132C100E945A0B80E00E945C26789418DE05DE40
S1132C200E94780CFFCFCF93DF9300D01F921F92A6
S1132C30CDB7DEB70E94B10C9A83898381E08B8380
S1132C408FEF9FEF9D838C8360E070E08091D109CA
S1132C509091D2090E94D7077CD583E090E00E942E
S1132C602D0E8CD583E090E00E942D0EACD520E093
S1132C7030E048EC52E47CD0DED025D07D836C83F8
S1132C8020E040E050E0BE016D5F7F4F8091CF09AE
S1132C909091D0090E948106813061F083E992E02D
S1132CA00E94392C6091980470919904CE01019688
S1132CB00E94F20D6091980470919904CE010196DE
S1132CC00E94F20DC1CF33D088F09F5790F0B92FF6
S1132CD09927B751A0F0D1F0660F771F881F991F6D
S1132CE01AF0BA95C9F712C0B13081F03AD0B1E008
S1132CF0089537C0672F782F8827B85F39F0B93F18
S1132D00CCF3869577956795B395D9F73EF490956E
S1132D108095709561957F4F8F4F9F4F089557FD14
S1132D209058440F551F59F05F3F71F04795880F35
S1132D3097FB991F61F09F3F79F0879508951216CC
S1132D4013061406551FF2CF4695F1DF08C0161678
S1132D5017061806991FF1CF869571056105089429
S1132D600895E894BB2766277727CB0197F9089540
S1132D700BD0C1C0B2D028F0B7D018F0952309F019
S1132D807AC0A8C01124EECFCADFA0F3959FD1F377
S1132D90950F50E0551F629FF001729FBB27F00D05
S1132DA0B11D639FAA27F00DB11DAA1F649F66275A
S1132DB0B00DA11D661F829F2227B00DA11D621FA9
S1132DC0739FB00DA11D621F839FA00D611D221F63
S1132DD0749F3327A00D611D231F849F600D211D47
S1132DE0822F762F6A2F11249F5750408AF0E1F0EA
S1132DF088234AF0EE0FFF1FBB1F661F771F881F33
S1132E0091505040A9F79E3F510570F034C0AACFAD
S1132E105F3FECF3983EDCF3869577956795B7951D
S1132E20F795E7959F5FC1F7FE2B880F911D969547
S1132E30879597F908957BDFE0F09E37D8F09639AF
S1132E40B8F49E3848F4672F782F8827985FF9CF15
S1132E5086957795679593959539D0F3B62FB1708C
S1132E606B0F711D811D20F4879577956795939558
S1132E7008C022C077CF97F99F6780E870E060E0D0
S1132E800895882371F4772321F09850872B762FA7
S1132E9007C0662311F499270DC09051862B70E06A
S1132EA060E02AF09A95660F771F881FDAF7880F7B
S1132EB09695879597F908959F3F31F0915020F4A6
S1132EC0879577956795B795880F911D9695879502
S1132ED097F908959FEF80EC089500240A9416163C
S1132EE0170618060906089500240A9412161306F4
S1132EF0140605060895092E0394000C11F4882382
S1132F0052F0BB0F40F4BF2B11F460FF04C06F5F9D
S1132F107F4F8F4F9F4F08952F923F924F925F9212
S1132F206F927F928F929F92AF92BF92CF92DF92D5
S1132F30EF92FF920F931F93CF93DF93CDB7DEB73A
S1132F4060970FB6F894DEBF0FBECDBF7C011B01A6
S1132F506A01FC0117821682838181FF44C39E01AA
S1132F602F5F3F4F3901F7019381F10193FD859163
S1132F7093FF81911F01882309F431C3853239F409
S1132F8093FD859193FF81911F01853239F4B70137
S1132F9090E00E94E92B56016501E5CF10E0512C29
S1132FA0912CFFE1F915D8F08B3279F038F48032A6
S1132FB079F08332A1F4F92DF0612EC08D3261F0E5
S1132FC0803369F4292D21602DC0392D3260932E70
S1132FD0892D8460982E2AC0E92DE86015C097FCDD
S1132FE02DC020ED280F2A3088F496FE06C03AE062
S1132FF0139F200D1124122F19C08AE0589E200D12
S11330001124522EE92DE0629E2E10C08E3231F42E
S113301096FCE5C2F92DF0649F2E08C08C3621F48D
S1133020292D2068922E02C0883641F4F10193FDC7
S1133030859193FF81911F018111B3CF9BEB980F71
S1133040933020F4992D9061805E07C09BE9980F1E
S1133050933008F066C1992D9F7E96FF16E09F730A
S1133060992E853619F49064992E08C0863621F479
S1133070392F3068932E02C01111115097FE07C0EA
S11330801C3350F444244394410E27E00BC0183001
S113309038F027E017E005C027E09CE3492E02C082
S11330A0212F412C560184E0A80EB11CF601608149
S11330B0718182819381042DA3010E94C12A6C0134
S11330C0F981FC87F0FF02C0F3FF06C091FC06C043
S11330D092FE06C000E205C00DE203C00BE201C08F
S11330E000E08C858C7019F001115AC29BC297FEC6
S11330F010C04C0CFC85F4FF04C08A81813309F4B0
S11331004A94141474F528E0241578F588E0482EC0
S11331102CC096FC2AC0812F90E08C159D059CF054
S11331203CEFC3163FEFD30674F0892D8068982EC8
S11331300AC0E2E0F0E0EC0FFD1FE10FF11D808119
S1133140803319F411501111F4CF97FE0EC04424AA
S11331504394410E812F90E0C816D9062CF41C1913
S113316004C04424439401C010E097FE06C01C141C
S11331701D0434F4C601019605C085E090E002C048
S113318081E090E001110196112331F0212F30E00C
S11331902F5F3F4F820F931F252D30E08217930737
S11331A014F4581A01C0512C892D897049F4552002
S11331B039F0B70180E290E00E94E92B5A94F7CFEE
S11331C0002329F0B701802F90E00E94E92B93FCA3
S11331D009C0552039F0B70180E390E00E94E92B43
S11331E05A94F7CF97FE4CC04601D7FE02C0812CFB
S11331F0912CC60188199909F301E80FF91FFE877C
S1133200ED87960124193109388B2F87012F10E09F
S11332101195019511093FEF8316930629F4B7011F
S11332208EE290E00E94E92BC814D9044CF08F85FB
S113323098898815990524F4ED85FE85818101C05E
S113324080E3F1E08F1A91082D853E852F5F3F4F73
S11332503E872D87801691062CF0B70190E00E94DE
S1133260E92BD9CFC814D90441F49A81963320F4B8
S1133270953319F43C8534FF81E3B70190E04EC0E7
S11332808A81813319F09C859F7E9C87B70190E0E9
S11332900E94E92B111105C094FC18C085E690E04A
S11332A017C0B7018EE290E00E94E92B1E5F82E016
S11332B001E0080FF301E80FF11D8081B70190E0F0
S11332C00E94E92B802F0113F3CFE6CF85E490E031
S11332D0B7010E94E92BD7FC06C0C114D10441F404
S11332E0EC85E4FF05C0D194C194D1088DE201C0FE
S11332F08BE2B70190E00E94E92B80E32AE0C2163A
S1133300D1042CF08F5FFAE0CF1AD108F7CFB701C0
S113331090E00E94E92BB701C601C0960E94E92BF8
S113332054C1833631F0833779F0833509F056C0C0
S113333020C0560132E0A30EB11CF60180818983BE
S113334001E010E0630112C05601F2E0AF0EB11CBF
S1133350F601C080D18096FE03C0612F70E002C0E8
S11333606FEF7FEFC6010E94DE2B8C01F92DFF77F2
S113337014C0560122E0A20EB11CF601C080D18017
S113338096FE03C0612F70E002C06FEF7FEFC601AD
S11333900E94992B8C01F92DF0689F2EF3FD1AC021
S11333A0852D90E008171907A8F4B70180E290E092
S11333B00E94E92B5A94F4CFF60197FC859197FE6D
S11333C081916F01B70190E00E94E92B51105A944A
S11333D0015011090115110579F7F7C0843611F070
S11333E0893661F5560197FE09C024E0A20EB11C8E
S11333F0F60160817181828193810AC0F2E0AF0E8F
S1133400B11CF60160817181072E000C880B990BA9
S1133410F92DFF769F2E97FF09C0909580957095A2
S113342061957F4F8F4F9F4FF0689F2E2AE030E0C9
S1133430A3010E94982CC82EC6183FC0092D8537B9
S113344021F40F7E2AE030E01DC0097F8F3691F011
S113345018F4883559F0C3C0803719F0883711F053
S1133460BEC0006104FF09C0046007C094FE08C028
S1133470066006C028E030E005C020E130E002C06C
S113348020E132E0560107FF09C084E0A80EB11C18
S1133490F601608171818281938108C0F2E0AF0EF0
S11334A0B11CF6016081718180E090E0A3010E946B
S11334B0982CC82EC6180F77902E96FE0BC0092D97
S11334C00E7FC11650F494FE0AC092FC08C0092D68
S11334D00E7E05C0DC2C092D03C0DC2C01C0D12ECE
S11334E004FF0DC0FE01EC0DF11D8081803311F449
S11334F0097E09C002FF06C0D394D39404C0802F70
S1133500867809F0D39403FD11C000FF06C01C2D7A
S1133510D51480F4150D1D190DC0D51458F4B70138
S113352080E290E00E94E92BD394F7CFD51410F4F5
S11335305D1801C0512C04FF10C0B70180E390E076
S11335400E94E92B02FF17C001FD03C088E790E049
S113355002C088E590E0B7010CC0802F867859F04E
S113356001FF02C08BE201C080E207FD8DE2B701DA
S113357090E00E94E92BC11638F4B70180E390E093
S11335800E94E92B1150F7CFCA94F301EC0DF11D01
S11335908081B70190E00E94E92BC110F5CF15C0DE
S11335A0F4E0F51560F584E0581A93FE1FC001118C
S11335B027C02C8523FF2AC00AE911E0392D307178
S11335C0932EF8018491811124C0552009F4E4CC90
S11335D0B70180E290E00E94E92B5A94F6CFF701FC
S11335E08681978126C08FEF9FEF23C0B70180E2C9
S11335F090E00E94E92B5A945110F8CFD8CF512C67
S1133600B701802F90E00E94E92BD3CF0EE911E09F
S1133610D5CF91108052B70190E00E94E92B0F5F43
S11336201F4FCFCF23E0251510F483E0BDCF512CDD
S1133630C0CF60960FB6F894DEBF0FBECDBFDF914A
S1133640CF911F910F91FF90EF90DF90CF90BF909B
S1133650AF909F908F907F906F905F904F903F902E
S11336602F900895E3EDF9E027EA31E231832083D6
S11336702AEA31E23383228325EB31E23583248342
S113368029EB31E2378326832FEB31E23187208720
S11336902BEC31E23387228720ED31E23587248712
S11336A02CED31E2378726872CEB31E2318B208BEE
S11336B021EE31E2338B228B2EEE31E2358B248BDB
S11336C0682FCF013AC108956530F1F4FA01808181
S11336D08F7390E0982F88272181822B90930B027F
S11336E080930A028281F0E48F9FC0011124FA01C1
S11336F0238126952695822B9093090280930802B4
S113370081E080936E080895643051F080E090E485
S1133710909309028093080290930B0280930A020B
S113372008950F931F9304E61BE120E034E244EF75
S113373050E060E087E20E949626909370088093A0
S11337406F0821E0892B09F020E0822F1F910F914F
S1133750089580916F0890917008009759F040E0A7
S113376060E070E00E94E726843031F410926E0825
S113377080E0089582E0089583E0089580916F08C1
S113378090917008009739F064E00E9432278530E8
S113379021F083E0089582E0089580E00895609127
S11337A00A0270910B0280E090E00E941B2920E045
S11337B030E048EC52E4DCDA20E038EF4FE756E43E
S11337C00C94AA280895609108027091090280E07F
S11337D090E00E941B2920E030E045E253E4C8DA7F
S11337E020E038EF4FE756E40E94AA2820E030E0BA
S11337F040E252E40C943E280895CF93DF9390E086
S1133800FC01EE0FFF1FE80FF91FEE0FFF1FEF582B
S1133810F74F238121110AC0EF01E091DB09F091F8
S1133820DC096A8188819981199512C0DC01AA0F8B
S1133830BB1FED01C80FD91FCC0FDD1FCF58D74FC9
S1133840E091E509F091E6096A81888199811995E9
S1133850DF91CF910895CF93DF9390E0FC01EE0FB9
S1133860FF1FE80FF91FEE0FFF1FEF58F74F2381DB
S113387021110AC0EF01E091E509F091E6096A819E
S113388088819981199512C0DC01AA0FBB1FED0133
S1133890C80FD91FCC0FDD1FCF58D74FE091DB09DC
S11338A0F091DC096A81888199811995DF91CF9122
S11338B008958AE994E00E94392C0F2EF3EDCF2E5F
S11338C0F9E0DF2EF02D04E0C1E7D8E010E08C81B0
S11338D0813069F0E8F0823039F5D6011C96ED911B
S11338E0FC911D976A818881998119951DC08D81EC
S11338F08F5F8A3010F48D8317C01D82D6011C9609
S1133900ED91FC911D976A818881998119950CC06C
S11339108D81882331F0812F9EDF8D8181508D83AD
S113392003C00C83812F69DF1F5F2696143079F65C
S113393085E090E00E942D0EC7CFCF92DF92EF92E8
S1133940FF920F931F93CF93DF93062F0F2EF3ED68
S1133950EF2EF9E0FF2EF02DD7011896ED91FC9192
S1133960199766E087E290E01995C1E7D8E00F2E39
S1133970F8E2CF2ED12CF02DD982C88286E08A833A
S11339801B8214E01C8380E038DFD7011896ED9188
S1133990FC91199767E087E290E01995DF82CE8267
S11339A087E0888719861A8781E027DFD701189670
S11339B0ED91FC91199765E083E390E01995D701A7
S11339C01896ED91FC91199761E084E390E01995C4
S11339D084E390E09D878C8785E08E871F86188B13
S11339E082E00BDFD7011896ED91FC91199764E002
S11339F081E091E01995D7011896ED91FC91199702
S1133A0061E082E091E0199582E091E09B8B8A8BE2
S1133A101C8B1D8A1E8B83E0F0DEE12CF12C20E050
S1133A2030E040EC50E061EB74E089E59CE10E94F9
S1133A305A0BDF91CF911F910F91FF90EF90DF9080
S1133A40CF9008950F931F93CF93DF93C82FD0E0A7
S1133A508E01000F111FD801AC0FBD1FAA0FBB1F91
S1133A60AF58B74FE091DF09F091E00912966C91DD
S1133A7012978D919C911995C00FD11FCC0FDD1F0A
S1133A80CF58D74F81E08C83DF91CF911F910F9155
S1133A9008950F931F93CF93DF93C82FD0E08E0127
S1133AA0000F111FD801AC0FBD1FAA0FBB1FAF58C9
S1133AB0B74FE091DF09F091E00912966C911297EB
S1133AC08D919C911995C00FD11FCC0FDD1FCF583C
S1133AD0D74F82E08C83DF91CF911F910F9108958E
S1133AE0282F30E0F901EE0FFF1FE20FF31FEE0F56
S1133AF0FF1FEF58F74F93E09483ADCE0895282F1E
S1133B0030E0F901EE0FFF1FE20FF31FEE0FFF1F6E
S1133B10EF58F74F94E0948370CE089590E0FC0141
S1133B20EE0FFF1FDF01A80FB91FAA0FBB1FAF586D
S1133B30B74F24E015962C931597FD011482089530
S1133B4090E0FC01EE0FFF1FDF01A80FB91FAA0FC1
S1133B50BB1FAF58B74F21E015962C931597FD0165
S1133B60148208950F931F93CF93DF931F921F9294
S1133B70CDB7DEB78C0119822DC0E091ED08EC328F
S1133B8050F481E08E0F8093ED08F0E0E35EF64F91
S1133B908A81808302C01092ED088A818A30D1F430
S1133BA04091ED0850E0FA01E55EF64F1082415075
S1133BB051099E012F5F3F4F6DE179E08091EE083E
S1133BC09091EF080E940B0A898181110E94780468
S1133BD01092ED08BE016E5F7F4FC801DBD58823CC
S1133BE061F20F900F90DF91CF911F910F91089583
S1133BF00F931F93CF93DF938C01EB018091EE0819
S1133C009091EF080E94CC09B80189E898E00E94DD
S1133C10BF2B209779F0E9E8F8E001900020E9F75C
S1133C20319780E290E091838083BE0189E898E037
S1133C300E94B42BE9E8F8E0DF010D900020E9F7D9
S1133C4011978DE09AE011969C938E9312961C9294
S1133C5001900020E9F73197E958F840AE2F89E840
S1133C6098E0AC016A2F8091F0089091F10842D558
S1133C7081110FC028E235E04DE250E067E779E0BA
S1133C808091EE089091EF080E944D0A87E799E031
S1133C9002C080E090E0DF91CF911F910F910895D1
S1133CA0AF92BF92CF92DF92EF92FF920F931F9346
S1133CB0CF93DF936C01FC0101900020E9F7319769
S1133CC07F01E81AF90A06E517E0C0E0D0E0F80140
S1133CD060817181A701C6010E94C62B892B49F41A
S1133CE0FE01EE0FFF1FEC0FFD1FEB5AF84F808112
S1133CF007C021960D5F1F4FC131D10541F780E107
S1133D00DF91CF911F910F91FF90EF90DF90CF90B3
S1133D10BF90AF9008956CDFC3CF08958091EE08F3
S1133D209091EF080C94CC0908958F929F92AF92D2
S1133D30CF92EF920F93CF93C82F41E060E070E0F1
S1133D4088EC90E00E94A0099093EF088093EE081D
S1133D500F2EF2EB8F2EFDE19F2EF02D6894AA24F6
S1133D60A6F86894CC24C6F8E12C00E023E040E0F7
S1133D7051EE60E070E08C2F00D49093F1088093B2
S1133D80F008E091DB09F091DC0964E087E091E060
S1133D901995CF910F91EF90CF90AF909F908F9006
S1133DA00895882349F0E091E509F091E60964E07B
S1133DB088E091E019950895E091DB09F091DC0920
S1133DC064E088E091E01995089560E070E088ED82
S1133DD094E00EDFE7E7F9E001900020E9F731977E
S1133DE0E757F94081E0759708F080E00895CF9394
S1133DF0DF93EC0160E070E089EE94E0F9DEE7E740
S1133E00F9E001900020E9F7E858F94039F467E750
S1133E1079E0CE010E94BF2B80E002C0188281E0CD
S1133E20DF91CF910895FC0101900020E9F79F01F3
S1133E30215131092817390729F4BC0187E195E09C
S1133E406ACF089589E00895FC0101900020E9F704
S1133E509F01215131092817390729F4BC0186E251
S1133E6095E059CF089589E00895FC010190002060
S1133E70E9F79F01215231092817390729F4BC01B8
S1133E8085E395E048CF089589E0089560E070E007
S1133E9084E795E040CF0895E82FF0E0EE0FFF1F90
S1133EA0EF5AF84F608171818DE795E034DF81111D
S1133EB012C028E235E04DE250E067E779E08091F6
S1133EC0EE089091EF080E944D0A882321F087E7BD
S1133ED099E0E6CE089587E799E0E2CE0895CF937E
S1133EE0DF931F92CDB7DEB7DB0111969C9111973A
S1133EF0953108F087C0992381F160E070E0272FA5
S1133F0030E0462F50E0FD01E40FF51F92819295B9
S1133F109F709A3010F0995C01C0905DF901E85FE0
S1133F20F64F90832F5F3F4FFD01E40FF51F928101
S1133F309F70492F50E04A30510514F0995C01C03C
S1133F40905DF901E85FF64F90837E5F6F5F119695
S1133F509C911197691798F201C070E0E72FF0E087
S1133F60E85FF64F10824C91811103C086E895E01A
S1133F7002C088E895E028E039E03F932F931F9230
S1133F804F939F938F938CE895E09F938F938AE44C
S1133F9099E09F938F930E94692C60E070E08AE41B
S1133FA099E0B9DE0FB6F894DEBF0FBECDBF8E30F8
S1133FB051F587E08983BE016F5F7F4F87E799E002
S1133FC051D18093F208E981F0E0E958F64FDF011E
S1133FD00D900020E9F71197AE1BBF0BAA2381F0C7
S1133FE0BB271197CD010AF4019695958795809387
S1133FF0F308AF014F5F5F4F64E184EF98E05ED157
S11340008EE001C084E10F90DF91CF91089581305B
S113401019F06CE975E002C065E776E080EA95E0A6
S11340207ACE08958830C0F41F928F9388EB95E080
S11340309F938F938AE499E09F938F930E94692CB6
S113404060E070E08AE499E066DE0F900F900F90D4
S11340500F900F900F90089589E008952F923F924A
S11340604F925F926F927F928F929F92AF92BF9284
S1134070CF92DF92EF92FF920F931F93CF93DF9330
S113408065EE75E081EF95E0B3DD0ADE8111A6C02F
S11340906DEF75E083E096E0ABDD02DE81119EC03A
S11340A0C0E0D0E00F2EF0E68F2EF5EE9F2EFEEA54
S11340B0AF2EF3E3BF2EF02D0F2EF6E1EF2EF6E038
S11340C0FF2EF02D0AE419E00F2EFFE2CF2EF6E0CA
S11340D0DF2EF02D0F2EF6E46F2EF6E07F2EF02D5E
S11340E00F2EF0E64F2EF6E05F2EF02DDF93CF93E8
S11340F0FF92EF921F930F930E94692C60E070E08F
S1134100C80176DDCDDD0F900F900F900F900F90CA
S11341100F90811163C0C33008F44DC0BF92AF92B9
S11341209F928F92DF93CF93DF92CF921F930F933F
S11341300E94692C60E070E0C8015ADDB1DD2DB742
S11341403EB7265F3F4F0FB6F8943EBF0FBE2DBF5C
S1134150811144C0DF93CF937F926F921F930F938B
S11341600E94692C60E070E0C80142DD99DD0F9087
S11341700F900F900F900F900F9081112FC0DF932D
S1134180CF935F924F921F930F930E94692C60E02C
S113419070E0C8012DDD84DD0F900F900F900F901B
S11341A00F900F9081111AC030E4830E3DE0931EEE
S11341B033E0A31EB11C2196C830D10509F096CF77
S11341C060E070E088E796E013DD6ADD811106C0E7
S11341D060E070E089E896E00BDD62DDDF91CF916D
S11341E01F910F91FF90EF90DF90CF90BF90AF9011
S11341F09F908F907F906F905F904F903F902F9003
S11342000895EF92FF920F931F93CF93DF93EC01E6
S11342108B017A0181E0FBDE811111C0CE0114DE35
S113422081110DC0C80121DE811109C0C701FBDD68
S1134230811105C085E0F6DE811101C027DEDF9122
S1134240CF911F910F91FF90EF90089590E0FC01A2
S1134250EE0FFF1F8E0F9F1FFC01EB5AF84F818159
S113426092810895DC01009729F1FB012081FC0172
S113427001900020E9F73197E81BF90B822F90E0B9
S1134280E817F907C8F080E008C0880F382F330F0B
S1134290330F830F8053890F2F5FFD01E20FF11D50
S11342A0908130ED390F3A3010F49111EECFFB01CB
S11342B02083089580E0089580E008950F931F936C
S11342C0CF93DF93DC01EA012097E1F1FA01019039
S11342D00020E9F73197E41BF50B329710F532C053
S11342E08D01040F151F30E0AE01420F531FFA0178
S11342F09081913428F09753592F5295507F03C0E1
S1134300592F5295507F2C0F3D1FF9019181913403
S113431010F0975301C09053950FF80190838F5F6D
S113432001C080E0282F220F482F50E0FE010190A9
S11343300020E9F73197EC1BFD0B4E175F0710F4D3
S11343408613CECFDF91CF911F910F910895FC0179
S113435080810895FC01208181E090E002C0880FF3
S1134360991F6A95E2F782230895FC0180818623D0
S11343700895FC0160830895FC0110820895FC01F6
S1134380408121E030E002C0220F331F6A95E2F73A
S1134390242B20830895FC012081622B60830895DF
S11343A0FC01408121E030E002C0220F331F6A95F6
S11343B0E2F7242720830895FC012081622760838B
S11343C00895FC01908121E030E002C0220F331FE8
S11343D06A95E2F72095292320830895FC019081B2
S11343E060956923608308958091A709860F80935F
S11343F0A7099091AA09913079F028F09230A9F098
S1134400933019F108956F3F09F048C01092A7093D
S113441081E08093AA090895663809F03FC010929C
S1134420A60982E08093AA090895E091A60981E093
S11344308E0F8093A609F0E0EC55F64F608382302E
S113444069F583E08093AA0908959091A60921E073
S1134450290F2093A609963009F581110EC0E4EACC
S1134460F9E0808190E0982F88272181820F911DA7
S11344709093AC098093AB0904C01092AC091092DC
S1134480AB091092AA09E091A809F091A909309703
S113449029F08091AB099091AC09199508958F92F8
S11344A09F92AF92CF92EF920F93CF93DF93EB0152
S11344B00F2EF4EF8F2EF1E29F2EF02D6894AA2494
S11344C0A4F86894CC24C4F8E12C00E023E040E88C
S11344D055E260E070E051D09093AE098093AD094D
S11344E0D093A909C093A809DF91CF910F91EF90C0
S11344F0CF90AF909F908F900895CF93DF93CDB7D7
S1134500DEB729970FB6F894DEBF0FBECDBF89E0A2
S1134510E3E2F2E09E012F5F3F4FD90101900D923B
S11345208A95E1F71092AC091092AB098091AD091C
S11345309091AE09009731F0422F532F69E0DAD001
S113454080E001C082E029960FB6F894DEBF0FBE6A
S1134550CDBFDF91CF9108952091AB093091AC0983
S11345602115310529F4FC011182108281E008959E
S1134570FC013183208380E008952F923F924F9273
S11345805F926F927F928F929F92AF92CF92EF92AF
S1134590FF920F931F93CF93DF93CDB7DEB7F82E1F
S11345A02A013B0188E090E0C7D68C018F2D90E072
S11345B0880F991FFC01E155F64F11830083FC011C
S11345C0E45FFD4F80819181D8018D939C936C2D84
S11345D070E084E090E096D61C0161E070E086E033
S11345E090E090D67C014C2DB1012CD5F801F582D8
S11345F0E4826A2D70E084E090E084D61C0161E0DE
S113460070E086E090E07ED67C014A2DB1011AD597
S1134610D8011396FC92EE92129717969C928E9262
S11346201697FFB6F894ED91FC9111973697808117
S1134630826080838D909C90C301B201FCD520E000
S113464030E040E051E40E94B8169B01AC0160E008
S113465074E284E79BE47ED520E030E040E85FE349
S11346600DD50E946316F40132976083D801ED9151
S1134670FC911197359788E98083ED91FC913497EB
S113468086E08083FFBEC801DF91CF911F910F9117
S1134690FF90EF90CF90AF909F908F907F906F900E
S11346A05F904F903F902F900895CF93DF93EC014C
S11346B0EA81FB81938182812581981B92238481E5
S11346C09817A1F0938126952923A081B181A20F87
S11346D0B11D6C939F5F258192239383E881F981B7
S11346E0359780818062808380E001C082E0DF9121
S11346F0CF910895EF92FF920F931F93CF93DF937F
S11347007C01DC011296ED91FC91139793818281D7
S1134710981B858198238481891B861798F16623C9
S113472041F1842F952FDC016150462F50E04F5FFB
S11347305F4F480F591FE701EA81FB819381828112
S11347402581981B92238481981779F08C91938109
S113475026952923608171818B01020F111DE801C7
S113476088839F5F8581982393831196A417B50747
S113477011F7D701ED91FC91359780818062808398
S113478080E001C082E0DF91CF911F910F91FF90F3
S1134790EF900895DC011496ED91FC9115979381A7
S11347A08281981789F09281858186958923A081D9
S11347B0B181A80FB11D8C91DB018C939F5F858122
S11347C09823928380E0089583E008951F920F92C6
S11347D00FB60F9211240BB60F922F933F934F9362
S11347E05F936F937F938F939F93AF93BF93CF9375
S11347F0DF93EF93FF93A091AF09B091B0091097A5
S113480011F16091C6001496ED91FC911597938176
S113481082812581981B92238481981761F083817A
S113482026952823C081D181C20FD11D68838F5F53
S11348309581892383831696ED91FC911797309780
S113484011F0CD011995FF91EF91DF91CF91BF91B7
S1134850AF919F918F917F916F915F914F913F9114
S11348602F910F900BBE0F900FBE0F901F901895B5
S11348701F920F920FB60F9211240BB60F922F9323
S11348808F939F93AF93BF93EF93FF93E091AF09FF
S1134890F091B0093097B9F00280F381E02D938153
S11348A082819817B1F092818581282F269529233A
S11348B0A081B181A20FB11D2C919F5F89238283B6
S11348C02093C6000BC0E1ECF0E080818F7D8083F3
S11348D005C0E1ECF0E080818F7D8083FF91EF9152
S11348E0BF91AF919F918F912F910F900BBE0F901D
S11348F00FBE0F901F9018951F920F920FB60F9234
S113490011240BB60F922F933F934F935F936F93A2
S11349107F938F939F93AF93BF93CF93DF93EF9343
S1134920FF93A091B109B091B209109711F1609170
S1134930CE001496ED91FC91159793818281258187
S1134940981B92238481981761F0838126952823EC
S1134950C081D181C20FD11D68838F5F9581892366
S113496083831696ED91FC911797309711F0CD0142
S11349701995FF91EF91DF91CF91BF91AF919F91E5
S11349808F917F916F915F914F913F912F910F90F4
S11349900BBE0F900FBE0F901F9018951F920F9291
S11349A00FB60F9211240BB60F922F938F939F93F0
S11349B0AF93BF93EF93FF93E091B109F091B209E4
S11349C03097B9F00280F381E02D938182819817AA
S11349D0B1F092818581282F26952923A081B18168
S11349E0A20FB11D2C919F5F892382832093CE0057
S11349F00BC0E9ECF0E080818F7D808305C0E9EC99
S1134A00F0E080818F7D8083FF91EF91BF91AF9122
S1134A109F918F912F910F900BBE0F900FBE0F900F
S1134A201F9018951F920F920FB60F9211240BB678
S1134A300F922F933F934F935F936F937F938F9333
S1134A409F93AF93BF93CF93DF93EF93FF93A09183
S1134A50B309B091B409109711F16091D60014967E
S1134A60ED91FC911597938182812581981B922366
S1134A708481981761F0838126952823C081D18190
S1134A80C20FD11D68838F5F958189238383169616
S1134A90ED91FC911797309711F0CD011995FF9185
S1134AA0EF91DF91CF91BF91AF919F918F917F91C2
S1134AB06F915F914F913F912F910F900BBE0F908B
S1134AC00FBE0F901F9018951F920F920FB60F9262
S1134AD011240BB60F922F938F939F93AF93BF9391
S1134AE0EF93FF93E091B309F091B4093097B9F0D3
S1134AF00280F381E02D938182819817B1F0928135
S1134B008581282F26952923A081B181A20FB11D6B
S1134B102C919F5F892382832093D6000BC0E1ED03
S1134B20F0E080818F7D808305C0E1EDF0E080813D
S1134B308F7D8083FF91EF91BF91AF919F918F9172
S1134B402F910F900BBE0F900FBE0F901F901895D2
S1134B501F920F920FB60F9211240BB60F922F9340
S1134B603F934F935F936F937F938F939F93AF93F1
S1134B70BF93CF93DF93EF93FF93A091B509B091C7
S1134B80B609109711F1609136011496ED91FC91DC
S1134B901597938182812581981B9223848198178C
S1134BA061F0838126952823C081D181C20FD11D54
S1134BB068838F5F9581892383831696ED91FC9199
S1134BC01797309711F0CD011995FF91EF91DF916F
S1134BD0CF91BF91AF919F918F917F916F915F9191
S1134BE04F913F912F910F900BBE0F900FBE0F90DE
S1134BF01F9018951F920F920FB60F9211240BB6A7
S1134C000F922F938F939F93AF93BF93EF93FF9341
S1134C10E091B509F091B6093097B9F00280F381BB
S1134C20E02D938182819817B1F092818581282F9C
S1134C3026952923A081B181A20FB11D2C919F5FDC
S1134C4089238283209336010BC0E1E3F1E0808164
S1134C508F7D808305C0E1E3F1E080818F7D8083D7
S1134C60FF91EF91BF91AF919F918F912F910F90F1
S1134C700BBE0F900FBE0F901F901895CF93DF932C
S1134C801F92CDB7DEB7BE016F5F7F4F8091B7092A
S1134C909091B8097FDD8111F6CF898190E00F9062
S1134CA0DF91CF910895682F8091B7099091B80949
S1134CB0FCDC80E090E008958F929F92AF92CF92B7
S1134CC0EF920F93812C912C6894AA24A7F86894EE
S1134CD0CC24C7F8E12C00E023E040E051EE60E092
S1134CE070E04BDC9093B8098093B709EDEEF9E0DE
S1134CF084E192E091838083938382830F91EF9088
S1134D00CF90AF909F908F9008958091C7098111A3
S1134D100CC08CE08093B8008FEF8093BB0084E0DC
S1134D208093BC0081E08093C7090895AF92BF923D
S1134D30CF92DF92EF92FF920F931F93CF93DF9363
S1134D40A82EB62E69017A0184E090E0F5D2EC0138
S1134D50892B61F1A88281E0B81212C0C701B601A3
S1134D6020EA36E841E050E0A3D2DA01C9014097D5
S1134D70A109B109B695A79597958795898311C01F
S1134D80C701B60120E83AE146E050E091D2DA01E9
S1134D90C9014097A109B109B695A795979587953B
S1134DA089831B830A838C2F9D2F02C080E090E0AF
S1134DB0DF91CF911F910F91FF90EF90DF90CF90F3
S1134DC0BF90AF9008958091BC0081700895FF92C8
S1134DD00F931F93CF93DF930097C9F14A30C8F51F
S1134DE0F42E8B01EC01EFDF811135C08091BA09FB
S1134DF09091BB09C817D90741F087DF8981809357
S1134E00B800D093BB09C093BA0981E08F0D809399
S1134E10BC098881880F8093BD09FF2081F0F801C7
S1134E20AEEBB9E04FEF4F0D642F70E06F5F7F4F33
S1134E30600F711F81918D93E617F707D9F788EFFB
S1134E408093220285EA8093BC0081E005C086E05D
S1134E5003C087E001C082E0DF91CF911F910F91E1
S1134E60FF9008951F93CF93DF93009729F16B3040
S1134E7028F5162FEC01A7DF811122C08091BA0911
S1134E809091BB09C817D90741F03FDF898180930E
S1134E90B800D093BB09C093BA091093BC098881A8
S1134EA0880F81608093BD0988EF8093220285EA90
S1134EB08093BC0081E005C086E003C087E001C0A8
S1134EC082E0DF91CF911F9108951F920F920FB648
S1134ED00F9211240BB60F922F933F934F935F932E
S1134EE06F937F938F939F93AF93BF93EF93FF93AE
S1134EF0E091B9008E2F90E0FC013897E135F1057F
S1134F0008F075C08827E458FF4F8F4FF3C1109203
S1134F10B909E091B9098091BC09E81770F481E0FE
S1134F208E0F8093B909F0E0E354F64F80818093AB
S1134F30BB0085E88093BC0072C084E98093BC0008
S1134F408091BA099091BB09DC011296ED91FC9114
S1134F501397309709F463C020E040E050E064E028
S1134F6019955DC0E091B90981E08E0F8093B9096C
S1134F708091BB00F0E0E354F64F80838091B90048
S1134F80803411F41092B9092091B90930E080916C
S1134F90BC0990E001972817390724F485EC809325
S1134FA0BC003DC085E88093BC0039C08091BB0043
S1134FB0E091B909F0E0E354F64F808384E98093EB
S1134FC0BC008091BA099091BB09DC011296ED9165
S1134FD0FC911397309719F12091BC094DEB59E0DE
S1134FE065E019951CC085EA8093BC0018C08091C7
S1134FF0B9008093220284E08093BC008091BA09B6
S11350009091BB09DC011296ED91FC9113973097B6
S113501031F020E040E050E0609122021995FF91C8
S1135020EF91BF91AF919F918F917F916F915F911C
S11350304F913F912F910F900BBE0F900FBE0F9089
S11350401F901895FC01411101C097D2842F90E064
S11350509C012150310982239323892B09F08DD29D
S1135060413808F08AD2128213824483440F41509B
S113507045837183608380E090E008955058BB2796
S1135080AA2713D00C947B170E946D1738F00E9446
S1135090741720F039F49F3F19F426F40C946A171E
S11350A00EF4E095E7FB0C943B17E92F0E948F1652
S11350B058F3BA17620773078407950720F079F449
S11350C0A6F50C94B1160EF4E0950B2EBA2FA02D74
S11350D00B01B90190010C01CA01A0011124FF27A1
S11350E0591B99F0593F50F4503E68F11A16F0409C
S11350F0A22F232F342F4427585FF3CF469537959B
S11351002795A795F0405395C9F77EF41F16BA0B5F
S1135110620B730B840BBAF09150A1F0FF0FBB1F0D
S1135120661F771F881FC2F70EC0BA0F621F731F56
S1135130841F48F4879577956795B795F7959E3FB3
S113514008F0B0CF9395880F08F09927EE0F979544
S11351508795089512D00C947B170E94741758F009
S11351600E946D1740F029F45F3F29F00C943B171F
S113517051110C94B2160C946A170E948F1668F39E
S11351809923B1F3552391F3951B550BBB27AA27FC
S113519062177307840738F09F5F5F4F220F331F36
S11351A0441FAA1FA9F335D00E2E3AF0E0E832D0FE
S11351B091505040E695001CCAF72BD0FE2F29D001
S11351C0660F771F881FBB1F261737074807AB07D3
S11351D0B0E809F0BB0B802DBF01FF2793585F4F48
S11351E03AF09E3F510578F00C943B170C94B2169C
S11351F05F3FE4F3983ED4F3869577956795B7952A
S1135200F7959F5FC9F7880F911D9695879597F934
S11352100895E1E0660F771F881FBB1F62177307AD
S11352208407BA0720F0621B730B840BBA0BEE1FC2
S113523088F7E0950895E89409C097FB3EF49095AB
S11352408095709561957F4F8F4F9F4F9923A9F05B
S1135250F92F96E9BB279395F695879577956795EA
S1135260B795F111F8CFFAF4BB0F11F460FF1BC02E
S11352706F5F7F4F8F4F9F4F16C0882311F096E9C1
S113528011C0772321F09EE8872F762F05C066236F
S113529071F096E8862F70E060E02AF09A95660F28
S11352A0771F881FDAF7880F9695879597F90895E1
S11352B0A1E21A2EAA1BBB1BFD010DC0AA1FBB1F16
S11352C0EE1FFF1FA217B307E407F50720F0A21B88
S11352D0B30BE40BF50B661F771F881F991F1A94F5
S11352E069F760957095809590959B01AC01BD011F
S11352F0CF010895EE0FFF1F881F8BBF0790F69113
S1135300E02D19940F931F93CF93DF93869F800111
S1135310879F100D969F100D1124C8010DD0EC012C
S1135320009721F0A80160E070E017D2CE01DF9170
S1135330CF911F910F9108950F931F93CF93DF93F4
S11353408230910510F482E090E0E091EB09F09155
S1135350EC0920E030E0A0E0B0E0309719F14081A2
S113536051810281138148175907C8F084179507A2
S113537069F4109731F012960C93129713961C93BC
S113538027C00093EB091093EC0922C021153105C5
S113539019F04217530718F49A01BD01EF01DF0118
S11353A0F801DBCF21153105F9F0281B390B243026
S11353B0310580F48A819B816115710521F0FB011F
S11353C09383828304C09093EC098093EB09FE01DC
S11353D0329644C0FE01E20FF31F81939193225051
S11353E03109398328833AC02091E9093091EA09C7
S11353F0232B41F420910202309103023093EA09F5
S11354002093E90920910002309101022115310510
S113541041F42DB73EB74091040250910502241B7C
S1135420350BE091E909F091EA09E217F307A0F4DA
S11354302E1B3F0B2817390778F0AC014E5F5F4FE6
S11354402417350748F04E0F5F1F5093EA09409325
S1135450E9098193919302C0E0E0F0E0CF01DF918C
S1135460CF911F910F910895CF93DF93009709F483
S113547081C0FC01329713821282A091EB09B09192
S1135480EC09109781F420813181820F931F2091C0
S1135490E9093091EA092817390751F5F093EA0927
S11354A0E093E90967C0ED0120E030E0CE17DF07A3
S11354B040F44A815B819E0141155105F1F0EA01F6
S11354C0F5CFD383C28340815181840F951FC817C0
S11354D0D90759F488819981840F951F0296918385
S11354E080838A819B81938382832115310529F4EA
S11354F0F093EC09E093EB093DC0E901FB83EA83F7
S113550049915991C40FD51FEC17FD0761F48081AF
S11355109181840F951F0296E90199838883828182
S113552093819B838A83E0E0F0E012968D919C91B5
S11355301397009719F0FD01DC01F7CF8D919C9131
S113554011979D012E5F3F4F820F931F2091E90910
S11355503091EA092817390769F4309729F4109231
S1135560EC091092EB0902C013821282B093EA098B
S1135570A093E909DF91CF91089581E090E0F89438
S113558035C2283008F027E03327DA01990F311D9E
S113559087FD916000966105710539F432602E5FD4
S11355A03D9330E32A95E1F708959F3F30F080382A
S11355B07105610509F03C5F3C5F3D93913008F053
S11355C08068911DDF93CF931F930F93FF92EF9207
S11355D0192F987F9695E92F96959695E90FFF27B1
S11355E0E450FE4F99273327EE24FF24A701E70157
S11355F005900894079428F4360FE71EF81E491FF7
S1135600511D660F771F881F991F0694A1F70590F7
S1135610079428F4E70EF81E491F561FC11D770F83
S1135620881F991F661F0694A1F70590079428F414
S1135630F80E491F561FC71FD11D880F991F661FDB
S1135640771F0694A1F70590079420F4490F561F7D
S1135650C71FD81F990F661F771F881F0694A9F7C5
S113566084911095177041F0D695C7955795479535
S1135670F794E7941A95C1F7E2EAF1E0689415907B
S1135680159135916591959105907FE27395E11897
S1135690F10A430B560BC90BD009C0F7E10CF11EFC
S11356A0431F561FC91FD01D7EF4703311F48A9511
S11356B0E6CFE894015030F0080F0AF400270217EF
S11356C008F4202F2395022F7A3328F079E37D9371
S11356D02A95E9F710C07D932A9589F60694979543
S11356E06795379517951794E118F10A430B560BF4
S11356F0C90BD00998F023957E9173957A3308F0FD
S113570070E37C932013B8F77E9170617D9330F041
S1135710839571E37D9370E32A95E1F71124EF906B
S1135720FF900F911F91CF91DF91992787FD90955D
S11357300895FC010590615070400110D8F78095E0
S113574090958E0F9F1F0895FB01DC0102C001900C
S11357500D9241505040D8F70895DC0101C06D937B
S113576041505040E0F70895FB01DC010D9000200A
S1135770E9F7119701900D920020E1F70895FB01DC
S1135780DC0101900D920020E1F70895FB01DC019A
S11357904150504088F08D9181341CF08B350CF4CD
S11357A0805E619161341CF06B350CF4605E861B85
S11357B0611171F3990B0895881BFCCFFC016150B2
S11357C0704001900110D8F7809590958E0F9F1F1F
S11357D008950F931F93CF93DF93FB01238121FD42
S11357E003C08FEF9FEF2CC022FF16C04681578164
S11357F0248135814217530744F4A081B1819D016E
S11358002F5F3F4F318320838C93268137812F5F15
S11358103F4F3783268314C08B01EC01FB010084C6
S1135820F185E02D1995892BE1F6D80116968D9115
S11358309C911797019617969C938E931697CE0179
S1135840DF91CF911F910F910895CF93DF93CDB73F
S1135850DEB7AE014A5F5F4FFA0161917191AF010A
S11358608091EF099091F0090E948C17DF91CF91FC
S113587008950F931F93CF93DF93E091EF09F09175
S1135880F009238121FF1BC08C01D0E0C0E0F801A6
S113589081918F016091EF097091F009DB011896F5
S11358A0ED91FC911997882331F01995892B79F39F
S11358B0DFEFCFEFECCF8AE01995892B19F08FEF4A
S11358C09FEF02C08D2F9C2FDF91CF911F910F91DD
S11358D008950F931F93CF93DF93CDB7DEB72E9721
S11358E00FB6F894DEBF0FBECDBF0E891F8986E0C8
S11358F08C831A8309838FEF9FE79E838D83AE0188
S1135900465E5F4F688D798DCE0101960E948C179B
S1135910EF81F885E00FF11F10822E960FB6F894F0
S1135920DEBF0FBECDBFDF91CF911F910F910895C0
S1135930FA01AA27283051F1203181F1E8946F93BC
S11359406E7F6E5F7F4F8F4F9F4FAF4FB1E03ED062
S1135950B4E03CD0670F781F891F9A1FA11D680F00
S1135960791F8A1F911DA11D6A0F711D811D911D33
S1135970A11D20D009F468943F912AE0269F1124A8
S11359803019305D3193DEF6CF010895462F47700C
S1135990405D4193B3E00FD0C9F7F6CF462F4F7067
S11359A0405D4A3318F0495D31FD4052419302D0C5
S11359B0A9F7EACFB4E0A69597958795779567956B
S11359C0BA95C9F700976105710508959B01AC016B
S11359D00A2E06945795479537952795BA95C9F792
S11359E0620F731F841F951FA01D0895F894FFCFA5
S11359F00000F3092000FFFF00400040C600CE0075
S1135A00D6003601000000030000000053263E26A5
S1135A100000F8FF0186000000000079FF0179A072
S1135A2000000000E6FF0179000000000086FF018D
S1135A3087000000000078FF0188000000000000DB
S1135A406E6F20636F32005461736B3220436F7545
S1135A506C64206E6F742073656E6420746F2074A0
S1135A6068652071756575652E0D00636F32206958
S1135A70732025640A0049444C4500546D72205338
S1135A807663005461736B3320436F756C64206ECE
S1135A906F742073656E6420746F20746865207160
S1135AA0756575652E0D00447269766572206372A2
S1135AB06561746564204F4B004472697665722099
S1135AC06E6F7420637265617465642042414400A2
S1135AD0466163746F72795265736574203E2573F1
S1135AE03C0A00436F6E66696775726520746F20A7
S1135AF04555383638203E25733C0A0047657420E6
S1135B004857455549203E25733C3A2025730A00E1
S1135B10536574204465764555493A202573203EE3
S1135B2025733C0A00343266386632623364623864
S1135B3030653733626431373763623838646262A0
S1135B406136376534006565616664306239633691
S1135B5038313964396100536574204F5441412010
S1135B604964656E74697479206170704555493A69
S1135B702573206170704B45593A2573206465760E
S1135B804555493A2573203E25733C0A00536176F6
S1135B9065206D6163203E25733C0A0053657420C3
S1135BA04164617074697665204461746120526156
S1135BB074653A204F4E203E25733C0A004A6F69B3
S1135BC06E204E6574776F726B2054726965734CE6
S1135BD06566743A2564203E25733C0A0075706C32
S1135BE0696E6B5F7061796C6F6164206973203AD0
S1135BF025303278253032782025303278253032FD
S1135C0078202530327825303278200A0055706C9F
S1135C106F6164204D657373616765203E25733C35
S1135C200A00436F756C64206E6F7420726563653F
S1135C306976652E0D004175746F2D72656C6F6108
S1135C40642074696D65722063616C6C6261636B5E
S1135C5020657865637574696E673A202025642031
S1135C600A004175746F52656C6F6164005461730E
S1135C706B31005461736B32005461736B330052A7
S1135C806563656976657200A00F48414C206C65B8
S1135C9064207461736B2073746172746564212170
S1135CA00048414C5F4C454400737973207265731E
S1135CB06574006D6163207061757365006D616367
S1135CC020726573756D6500737973206661637402
S1135CD06F72795245534554007379732067657424
S1135CE0206877657569006D616320676574206756
