:1000000085C20000A4C20000A2C20000A0C200007D
:100010009EC200009CC200009AC2000098C200006C
:1000200096C2000094C2000092C2000090C200007C
:10003000BAC400008CC200008AC2000088C200005E
:1000400086C2000084C2000082C2000080C200009C
:100050007EC200007CC200007AC2000078C20000AC
:1000600076C200000C94D0140C94221570C20000CB
:100070006EC200006CC200006AC2000068C20000CC
:1000800066C2000064C2000062C2000060C20000DC
:100090000C9466150C94B8155AC200000C944F18B5
:1000A00056C2000054C2000052C2000050C20000FC
:1000B0004EC200004CC200004AC2000048C200000C
:1000C00046C2000044C2000042C200000C94FC156D
:1000D0000C944E163CC200000C9492160C94E4163C
:1000E00036C2000016021602160245024D025C02DC
:1000F0001602160245024D027118E118E118E118C6
:10010000E118E118E118E1187118E118E118E11897
:10011000E118E118E118E1187318E118E118E11885
:10012000E118E118E118E118E118E118E118E11807
:10013000E118E118E118E1187318E118E118E11865
:10014000E118E118E118E118E118E118E118E118E7
:10015000E118E118E118E118DD18E118E118E118DB
:10016000E118E118E118E118A818E118E118E11800
:10017000E118E118E118E118E118E118E118E118B7
:10018000E118E118E118E1189C18E118E118E118EC
:10019000E118E118E118E118C0186E616E00696E8F
:1001A000660000407A10F35A00A0724E1809001041
:1001B000A5D4E80000E87648170000E40B540200DC
:1001C00000CA9A3B000000E1F50500008096980007
:1001D000000040420F000000A08601000000102730
:1001E00000000000E80300000000640000000000C0
:1001F0000A00000000000100000000002C76D888F2
:10020000DC674F0823DFC1DFAE59E1B1B796E5E304
:10021000E453C63AE651997696E8E6C28426EB891D
:100220008C9B62ED407C6FFCEFBC9C9F40F2BAA5BA
:100230006FA5F490055A2AF75C936B6CF9676DC152
:100240001BFCE0E40D47FEF520E6B500D0ED902E56
:100250000300943577050080841E080000204E0AB4
:10026000000000C80C333333330F986E12831141F2
:10027000EF8D2114893BE65516CFFEE6DB18D184BD
:100280004B381BF77C1D901DA4BBE42420328472E4
:100290005E228100C9F124ECA1E53D2700E516E0CE
:1002A0000F2EF8E7EF2EF6E0FF2EF02D80914F068F
:1002B000882311F10FB6F8940F92D8011596ED919D
:1002C000FC911697C681D781CE010296D4D1809138
:1002D000450681508093450680914F06815080935A
:1002E0004F060F900FBE8F89988D54D1CE0152D1F9
:1002F00080914F068111DECFF7018081823008F0B6
:100300008FD20E940D0FD2CFCF93DF9300D000D0B9
:10031000CDB7DEB7CE0101964C0144244394E12CC5
:10032000F12C512CC82ED92CE091A606F091A706ED
:100330008081882309F4D7C00580F681E02DA08054
:10034000B1800E94050AC4010E949F0E8C01898120
:10035000811148C00A151B05B0F10E94CC0AE0913A
:10036000A606F091A7060580F681E02D66807780CD
:10037000C301029680D1D30153968C91539782FF8B
:1003800017C01C966D917C911D976A0D7B1D950180
:10039000A801C3010E94AB0D882369F00E2D1F2D0B
:1003A0002E2D3F2DA501652DC3010E94590E03C0BE
:1003B0008E7FF301838BD3015096ED91FC91519781
:1003C000C301199584C0452DB501601B710B809147
:1003D000A2069091A3064CD60E94CC0A811177C048
:1003E0001FD275C00E94CC0A72C0898188230CF488
:1003F0006EC0AC80BD80F50182859385892B19F094
:10040000C501029638D1CE0106960E949F0EAC011E
:10041000E9810E2E000CFF0BEA30F10508F057C001
:100420008827EE58FF4F8F4F0C94341BD5015396FD
:100430008C915397816053968C9353972A813B817B
:100440001C966D917C911D97620F731FC5010E94D0
:10045000AB0D8823E1F1D5015096ED91FC915197B8
:10046000C5011995F501838982FF31C04A815B81FD
:1004700084859585480F591F0E2D1F2D2E2D3F2D3C
:10048000652DC5010E94590E22C0D50153968C914D
:1004900053978E7F53968C931AC0F50183898160A0
:1004A000838B6A817B8175876487640F751F9A01CE
:1004B000C5010E94AB0D0BC0D50153968C9181FDF7
:1004C00003C0C50167D003C08E7FF501838B4E2D1D
:1004D0005F2D6C2D7D2D8091A2069091A30684D472
:1004E000811183CF21CF91D7C4010E949F0E8C012F
:1004F0008981811177CFE091A406F091A5068081D2
:10050000442D8111452DAE2CBF2C5ECF11241FBE72
:10051000CFEFD1E2DEBFCDBF00E00CBF16E0A0E020
:10052000B2E0E2EBFCE300E00BBF02C007900D92EB
:10053000A833B107D9F726E0A8E3B6E001C01D92C1
:10054000A53FB207E1F70E94970F0C94571E58CDB4
:10055000E8E0F1E09081907F908390818F70982BFC
:1005600090830895E8E0F1E08081807F80830895A2
:10057000CF93DF93EC0149D7CE010E94561BEC01CB
:100580000E94CC0A209711F40E940E0FCE01DF9139
:10059000CF910895CF93DF93009731F0EC0135D7D9
:1005A000CE010E94EE1BF8D7DF91CF910895FC0198
:1005B0000396928381832FEF3FEF348323839683C7
:1005C00085839087878310820895FC0111861086A9
:1005D0000895CF93DF939C01FB01DC011196CD912F
:1005E000DC911297D383C2838C819D819583848310
:1005F0008C819D81DC0113967C936E9312977D8391
:100600006C8331872087F90180818F5F8083DF9140
:10061000CF910895CF93DF93EB01488159814F3FEC
:100620002FEF520721F4FC01A781B0850DC0DC013A
:10063000139601C0DF011296ED91FC911397208172
:10064000318142175307B0F71296ED91FC91139741
:10065000FB83EA83D583C483BD83AC831396DC9389
:10066000CE93129799878887FC0120812F5F208382
:10067000DF91CF910895CF93DF93FC01A085B185E1
:10068000C281D381848195819D838C83C481D581EE
:10069000828193819B838A8311968D919C9112977D
:1006A000E817F90731F48481958112969C938E9313
:1006B0001197118610868C9181508C938C91DF91CB
:1006C000CF91089531E1FC013083319722E22083FC
:1006D0003197A3E3A083319760833197708331977B
:1006E000108231971082319760E8608331971082D1
:1006F0003197108231971082319762E06083319791
:1007000063E06083319764E06083319765E06083E4
:10071000319766E06083319767E06083319768E0E6
:100720006083319769E06083319760E1608331973E
:100730003083319732E13083319733E13083319721
:1007400034E13083319735E13083319736E13083BE
:10075000319737E13083319738E13083319739E190
:100760003083319730E23083319731E230833197F3
:100770002083319723E22083319740833197508340
:10078000319726E22083319727E22083319728E2B0
:100790002083319729E22083319720E3208331970A
:1007A00021E3208389970895A89590EC88E10FB6FE
:1007B000F894A895809360000FBE90936000A0917C
:1007C0009C06B0919D06CD91CDBFDD91DEBFFF911E
:1007D000EF91DF91CF91BF91AF919F918F917F91D9
:1007E0006F915F914F913F912F911F910F91FF90CA
:1007F000EF90DF90CF90BF90AF909F908F907F90C1
:100800006F905F904F903F902F901F900F900CBE75
:100810000F900BBE0F900FBE0F90089581E00895CA
:100820000F920FB6F8940F920BB60F920CB60F9270
:100830001F9211242F923F924F925F926F927F925C
:100840008F929F92AF92BF92CF92DF92EF92FF92E0
:100850000F931F932F933F934F935F936F937F93C8
:100860008F939F93AF93BF93CF93DF93EF93FF93B8
:10087000A0919C06B0919D060DB60D920EB60D92FC
:1008800005D7A0919C06B0919D06CD91CDBFDD917D
:10089000DEBFFF91EF91DF91CF91BF91AF919F911B
:1008A0008F917F916F915F914F913F912F911F9108
:1008B0000F91FF90EF90DF90CF90BF90AF909F90FF
:1008C0008F907F906F905F904F903F902F901F90F0
:1008D0000F900CBE0F900BBE0F900FBE0F9008959F
:1008E0000F920FB6F8940F920BB60F920CB60F92B0
:1008F0001F9211242F923F924F925F926F927F929C
:100900008F929F92AF92BF92CF92DF92EF92FF921F
:100910000F931F932F933F934F935F936F937F9307
:100920008F939F93AF93BF93CF93DF93EF93FF93F7
:10093000A0919C06B0919D060DB60D920EB60D923B
:1009400013BE73D58111A2D6A0919C06B0919D06CD
:10095000CD91CDBFDD91DEBFFF91EF91DF91CF91C2
:10096000BF91AF919F918F917F916F915F914F91C7
:100970003F912F911F910F91FF90EF90DF90CF90BB
:10098000BF90AF909F908F907F906F905F904F90AF
:100990003F902F901F900F900CBE0F900BBE0F90AA
:1009A0000FBE0F9008959CDF18950FB6F8940F9224
:1009B000FC01928D0F900FBE81E0911180E00895AF
:1009C0000F931F93CF93DF93EC01042F1A8D4C8D5F
:1009D00041110CC088819981892B09F042C08C811A
:1009E0009D810E94090D1D821C8242C0011117C009
:1009F00050E08A819B810E945E1D2C8D8A819B81A3
:100A0000820F911D9B838A832C813D8182179307DE
:100A100050F1888199819B838A8380E029C050E0CE
:100A20008E819F810E945E1D8C8D90E091958195B5
:100A300091092E813F81280F391F3F832E834881E2
:100A400059812417350730F42C813D81820F931F83
:100A50009F838E83023049F4112349F0115080E0C6
:100A600007C080E005C080E003C080E001C080E0F6
:100A70001F5F1A8FDF91CF911F910F910895FC0195
:100A8000448D4423A9F050E026813781240F351F7F
:100A900037832683848195812817390720F0808148
:100AA000918197838683CB01668177810C945E1D4B
:100AB0000895EF92FF920F931F93CF938C010FB67F
:100AC000F8940F92FC01C68D1C169CF4818981114B
:100AD00006C00FC0F8018189811105C00AC07801E4
:100AE000F1E1EF0EF11CC70188D681110ED7C1507C
:100AF00089F78FEFF801868F0F900FBE0FB6F8942D
:100B00000F92C58D1C169CF48085811106C00FC004
:100B1000F8018085811105C00AC07801F8E0EF0E68
:100B2000F11CC7016AD68111F0D6C15089F78FEF49
:100B3000F801858F0F900FBECF911F910F91FF90FD
:100B4000EF900895CF93DF93EC010FB6F8940F92D6
:100B5000E881F9818B8D2C8D90E030E0829FA0019F
:100B6000839F500D929F500D11244E0F5F1F5D8388
:100B70004C831A8EFB83EA830197829FA001839F97
:100B8000500D929F500D1124CF01840F951F9F830C
:100B90008E838FEF8D8F8E8F61110AC08885882399
:100BA00069F0CE01089629D6882341F039DE06C0C7
:100BB000CE010896FCDCCE014196F9DC0F900FBE09
:100BC00081E0DF91CF910895FF920F931F93CF9310
:100BD000DF93082F162FF42E6623B9F0869FC001ED
:100BE00011248196C5DCEC01009741F414C00B8FF1
:100BF0001C8F61E0CE01A6DFF8A20DC0819699831B
:100C00008883F5CFD983C883F2CF81E290E0B0DC4E
:100C1000EC01892BB9F7CE01DF91CF911F910F9194
:100C2000FF9008959F92AF92BF92CF92DF92EF9282
:100C3000FF920F931F93CF93DF9300D01F921F92C9
:100C4000CDB7DEB78C016B015D834C83A22EB12C36
:100C5000992493947C0188E0E80EF11C0FB6F89477
:100C60000F92F801928D838D981718F0F2E0AF1271
:100C700015C04A2DB601C801A3DEF8019189992358
:100C800039F0C8014196B9D5882321F0C9DD02C0E9
:100C90008111C6DD0F900FBE81E045C08C819D8122
:100CA000892B21F40F900FBE80E03DC0B11004C02D
:100CB000CE010196EAD5B92C0F900FBEA6D30FB680
:100CC000F8940F92F801858D8F3F09F4158EF80185
:100CD000868D8F3F09F4168E0F900FBEBE016C5F9C
:100CE0007F4FCE010196DCD5811119C00FB6F89463
:100CF0000F92F801928D838D0F900FBE98130BC049
:100D00006C817D81C70150D5C801D3DE45D48111E6
:100D1000A5CF86DDA3CFC801CCDE3ED49FCFC801CE
:100D2000C8DE3AD480E00F900F900F900F900F9094
:100D3000DF91CF911F910F91FF90EF90DF90CF90B7
:100D4000BF90AF909F900895CF93DF93482F60E0BE
:100D500081E03ADFEC01009759F01D821C82198274
:100D600018821E8220E040E050E060E070E05ADF30
:100D7000CE01DF91CF910895EF92FF920F931F93D1
:100D8000CF93DF938A01FC01528D338D531710F0FE
:100D90002230E1F4422F7801EC011E8D11DE1F3F5D
:100DA00079F489898823A1F0CE01419626D588233C
:100DB00089F0E114F10481F081E0F70180830DC036
:100DC000FF24F394F10EFE8E81E007C080E005C0A1
:100DD00081E003C081E001C081E0DF91CF911F91EC
:100DE0000F91FF90EF9008959F92AF92BF92CF9294
:100DF000DF92EF92FF920F931F93CF93DF9300D078
:100E00001F921F92CDB7DEB78C015B015D834C83CF
:100E1000E12C992493946C0181E1C80ED11C0FB68A
:100E2000F8940F92F801F28CFF2091F0B501C801FF
:100E300026DEFA94F801F28E8085882329F0C80115
:100E40000896DBD48111ECDC0F900FBE81E044C02A
:100E50008C819D81892B21F40F900FBE80E03CC0D6
:100E6000E11004C0CE01019610D5E92C0F900FBE01
:100E7000CCD20FB6F8940F92F801858D8F3F09F40C
:100E8000158EF801868D8F3F09F4168E0F900FBED8
:100E9000BE016C5F7F4FCE01019602D5811113C058
:100EA000C80183DD882359F06C817D81C6017CD423
:100EB000C801FFDD71D38111B2CFB2DCB0CFC80160
:100EC000F8DD6AD3ACCFC801F4DD66D3C8016DDDAF
:100ED000882309F4A4CF80E00F900F900F900F901B
:100EE0000F90DF91CF911F910F91FF90EF90DF90C6
:100EF000CF90BF90AF909F900895BF92CF92DF9216
:100F0000EF92FF920F931F93CF93DF9300D01F9226
:100F10001F92CDB7DEB78C017D836C83B12CD12CB1
:100F2000CC24C3947C0181E1E80EF11C0FB6F89447
:100F30000F92D8015A968C915A978823D1F08150FC
:100F40005A968C935A978D919C91892B21F4F1D5C7
:100F5000F80195838483D80118968C91882329F011
:100F6000C80108964AD481115BDC0F900FBE81E066
:100F700070C08C819D81892B21F40F900FBE80E081
:100F800068C0D11004C0CE0101967FD4DC2C0F9034
:100F90000FBE3BD20FB6F8940F92F801858D8F3FAC
:100FA00009F4158ED8015E968C915E978F3F11F4EF
:100FB0005E961C920F900FBEBE016C5F7F4FCE01FC
:100FC00001966ED4811121C0C801EFDC8823C9F0DD
:100FD000F80180819181892B49F40FB6F8940F9222
:100FE00084819581A4D4B82E0F900FBE6C817D8131
:100FF000C701DAD3C8015DDDCFD2811197CF10DCF4
:1010000095CFC80156DDC8D291CFC80152DDC4D2F8
:10101000C801CBDC882309F489CFBB20C9F00FB607
:10102000F8940F92F8018189882339F00688F789AE
:10103000E02D808164E0681B01C060E0D801149657
:101040008D919C91159725D50F900FBE80E001C022
:1010500080E00F900F900F900F900F90DF91CF9145
:101060001F910F91FF90EF90DF90CF90BF90089568
:10107000CF93DF93EC010FB6F8940F928D8D8F3FD5
:1010800009F41D8E8E8D8F3F09F41E8E0F900FBEBA
:101090008A8D811103C0CE01419697D3CE0109DD1F
:1010A000DF91CF910895E0916406F091650680810B
:1010B000811107C08FEF9FEF90933C0680933B0612
:1010C0000895E0916406F09165060580F681E02DB3
:1010D0000680F781E02D8281938190933C06809376
:1010E0003B060895FF920F931F93CF93DF93EC017C
:1010F000F62E009143061091440680919C06909133
:101100009D060296B8DACF3F8FEFD80761F4FF2033
:1011100051F060919C0670919D066E5F7F4F86E452
:1011200096E057DA2DC0C00FD11FE0919C06F091D8
:101130009D06D383C283C017D10760F460919C06DB
:1011400070919D0680916206909163066E5F7F4F5D
:1011500061DA16C060919C0670919D0680916406CC
:10116000909165066E5F7F4F55DA80913B069091B6
:101170003C06C817D90720F4D0933C06C0933B0621
:10118000DF91CF911F910F91FF9008954F925F9241
:101190006F927F928F929F92AF92BF92CF92DF9287
:1011A000EF92FF920F93CF93DF934C016B015A01A3
:1011B0002901CA01DDD93C01892B09F4E4C08CE284
:1011C00090E0D6D9EC01892B99F0788E6F8AA50131
:1011D00065EA70E0C3010E94671D81E0A81AB108AA
:1011E0008F89988DA80EB91EC114D10421F41FC097
:1011F000C301D0D9C8C0D6018C91898F8C91882326
:10120000A1F0AE01465E5F4FF6013196B8E0CB0E1D
:10121000D11CCF012191DA012D93AD01DC018C911C
:10122000882319F0EC15FD05A1F718A201C0198E4D
:10123000043008F003E00E8B0BA31CA26E01B2E099
:10124000CB0ED11CC601C1D9CE010C96BED9D9870F
:10125000C88784E090E0801B91099D878C87DB8B99
:10126000CA8B1EA21DA21FA218A619A61AA61BA6EB
:10127000A201B401C50126DA99838883E114F1043F
:1012800019F0F701D183C0830FB6F8940F928091C3
:1012900045068F5F8093450680919C0690919D0640
:1012A000892B89F5D0939D06C0939C0680914506B5
:1012B000813009F038C088E796E079D981E896E076
:1012C00076D98AE896E073D983E996E070D98FE6FB
:1012D00096E06DD986E696E06AD989E596E067D909
:1012E00080E596E064D986E496E061D98FE696E0E1
:1012F000909365068093640686E696E09093630675
:101300008093620610C08091410681110CC0E0916B
:101310009C06F0919D0696898E89891720F0D093BE
:101320009D06C0939C0680913D068F5F80933D068D
:1013300089A38E8990914206981710F480934206F3
:1013400090E09C01220F331F220F331F220F331F07
:10135000820F931FB6018858994F3BD90F900FBE4B
:1013600080914106882359F0E0919C06F0919D06FA
:1013700096898E89981728F453DA81E005C081E0B8
:1013800003C081E001C08FEFDF91CF910F91FF90FB
:10139000EF90DF90CF90BF90AF909F908F907F9015
:1013A0006F905F904F900895EF92FF920F930F2EE2
:1013B000F9E3EF2EF6E0FF2EF02D00E020E030E024
:1013C00040EC50E061E272E08EE491E0DFDE8130DB
:1013D000C1F419D48130A9F4F8948FEF9FEF909362
:1013E0003C0680933B0681E08093410610924406C0
:1013F00010924306E0919C06F0919D0685A1A8D825
:10140000D3D90F91FF90EF900895809138068F5FA8
:101410008093380608950FB6F8940F928091430692
:10142000909144060F900FBE0895CF92DF92EF92F5
:10143000FF920F931F93CF93DF9380913806811112
:1014400095C0E0904306F09044068FEFE81AF80A42
:10145000F0924406E0924306E114F104B1F4809165
:101460006406909165062091620630916306309380
:1014700065062093640690936306809362068091CC
:101480003E068F5F80933E060EDE80913B06909174
:101490003C06E816F90610F4D12C50C0D12CCC240F
:1014A000C394E0916406F09165068081811107C0C4
:1014B0008FEF9FEF90933C0680933B063FC0E091F7
:1014C0006406F09165060580F681E02DC681D7811E
:1014D0008A819B81E816F90628F490933C06809354
:1014E0003B062CC08E010E5F1F4FC801C4D88C89EB
:1014F0009D89892B19F0CE010C96BDD88E899091CB
:101500004206981710F48093420690E09C01220F47
:10151000331F220F331F220F331F820F931FB80177
:101520008858994F56D8E0919C06F0919D069E8967
:101530008689981708F4B5CFDC2CB3CFE0919C06D0
:10154000F0919D06868990E0FC01EE0FFF1FEE0FE3
:10155000FF1FEE0FFF1F8E0F9F1FFC01E858F94F72
:101560008081823048F0DD24D39406C0809140060B
:101570008F5F80934006D12C80913F06882311F025
:10158000DD24D3948D2DDF91CF911F910F91FF908A
:10159000EF90DF90CF900895DF92EF92FF920F933C
:1015A0001F93CF93DF930FB6F8940F928091380674
:1015B0008150809338068091380681115AC08091FD
:1015C0004506811131C058C0D7011596ED91FC91A7
:1015D0001697C681D781CE010C964DD88E010E5F2D
:1015E0001F4FC80148D88E8990914206981710F471
:1015F0008093420690E09C01220F331F220F331F7D
:10160000220F331F820F931FB8018858994F0E94F1
:10161000E902E0919C06F0919D069E8986899817C3
:1016200068F0D0923F060AC0C0E0D0E00F2EF9E586
:10163000EF2EF6E0FF2EF02DDD24D394F70180810C
:101640008111C2CFCD2B09F02EDDC0914006CC23F5
:1016500049F0D1E0EADE8111D0933F06C150D1F7C5
:101660001092400680913F06882329F0D9D881E066
:1016700003C080E001C080E00F900FBEDF91CF91EA
:101680001F910F91FF90EF90DF90089580913806A1
:10169000882321F081E080933F06089510923F0651
:1016A000E0919C06F0919D0685A10E94B202A09156
:1016B0009C06B0919D06E0919C06F0919D062D91AF
:1016C0003C918789908D8217930758F060919C0612
:1016D00070919D0680919C0690919D06675E7F4F5C
:1016E000AAD320914206822F90E0FC01EE0FFF1F4B
:1016F000EE0FFF1FEE0FFF1FE80FF91FE858F94F1D
:101700003081311111C02150822F90E0FC01EE0F89
:10171000FF1FEE0FFF1FEE0FFF1FE80FF91FE85826
:10172000F94F3081332379F3AC01440F551F440F37
:10173000551F440F551F480F591FDA01A858B94FBC
:101740001196ED91FC9112970280F381E02D129693
:10175000FC93EE9311974558594FE417F50729F478
:1017600042815381FD0152834183FC01EE0FFF1F33
:10177000EE0FFF1FEE0FFF1F8E0F9F1FFC01E8589B
:10178000F94F0180F281E02D8681978190939D062B
:1017900080939C0620934206E0919C06F0919D0662
:1017A00085A10C94A8020895CF93DF93EB0160917B
:1017B0009C0670919D06645F7F4F0E940A0361E062
:1017C000CE0190DCDF91CF9108950F931F93CF93BB
:1017D0008B01C42F60919C0670919D06645F7F4FC2
:1017E0000E94E902CC2311F00FEF1FEF6C2FC8010C
:1017F00079DCCF911F910F9108950F931F93CF9391
:10180000DF93DC011596ED91FC911697C681D78187
:101810008E01045F1F4FC8010E943B038091380670
:1018200081111CC00A501109C8010E943B038E8916
:1018300090914206981710F48093420690E09C0124
:10184000220F331F220F331F220F331F820F931FCC
:10185000B8018858994F0E94E90205C0B80189E58E
:1018600096E00E94E902E0919C06F0919D069E8917
:101870008689891720F481E080933F0601C080E0CB
:10188000DF91CF911F910F91089520913E06FC01A9
:1018900020832091430630914406328321830895AA
:1018A000CF93DF930FB6F8940F92209143063091B7
:1018B0004406DB014D915C914F3FBFEF5B07E9F0C0
:1018C000EC01E981FA81A0913E06B881BA1719F0BE
:1018D0002E173F07A0F42E1B3F0B2417350740F4AB
:1018E000FB01421B530B51834083CFDF80E008C0D4
:1018F000FB011182108281E003C080E001C081E021
:101900000F900FBEDF91CF91089581E080933F0645
:10191000089580914106882331F08091380688230C
:1019200021F080E0089581E0089582E008950F930A
:101930001F93CF93DF93FC01892B09F464C02689A0
:10194000A0919C06B0919D0656968C91281708F0A0
:101950004EC084859585992364F0A0919C06B09132
:101960009D0656963C9184E090E0831B91099587F3
:10197000848730E0C901880F991F880F991F880F4D
:10198000991F280F391F2858394F82859385821750
:10199000930721F58F01EF012296CE010E943B03B0
:1019A000E0919C06F0919D068689F801868B9091C6
:1019B0004206981710F48093420690E09C01220F93
:1019C000331F220F331F220F331F820F931FBE01BD
:1019D0008858994F0E94E90281E016C0A0919C06A8
:1019E000B0919D0656968C91868B81E00DC0A0919A
:1019F0009C06B0919D0681E023A156969C912917E3
:101A000018F080E001C080E0DF91CF911F910F912D
:101A100008950F931F93CF93DF93FC01892B79F1E6
:101A200084A1815084A3268993A1291751F18111A2
:101A30002AC0EF018F010E5F1F4FC8010E943B03B8
:101A40008BA18E8B24E030E0281B31093D872C8749
:101A500090914206981710F48093420690E09C0102
:101A6000220F331F220F331F220F331F820F931FAA
:101A7000B8018858994F0E94E90281E005C080E0D2
:101A800003C080E001C080E0DF91CF911F910F91F2
:101A900008950F931F93CF93DF93FC01892B09F4D3
:101AA00043C093A1961708F4962F86898917E1F110
:101AB00024A12130C9F5968B24853585332334F054
:101AC00024E030E0291B31093587248790E09C0110
:101AD000220F331F220F331F220F331F820F931F3A
:101AE0008858994F2285338528173907E9F4EF0183
:101AF0008F010E5F1F4FC8010E943B038E8990919A
:101B00004206981710F48093420690E09C01220F41
:101B1000331F220F331F220F331F820F931FB80171
:101B20008858994F0E94E902DF91CF911F910F9140
:101B3000089580919C0690919D06892B39F0E09143
:101B40009C06F0919D0684A18F5F84A380919C06E2
:101B500090919D060895FC0173836283918780872D
:101B60004617570790F0421B530B848595854817FD
:101B70005907E0F4BF016E5F7F4F8091A4069091FA
:101B8000A5060E940A0380E008954217530718F43F
:101B90006217730768F4BF016E5F7F4F8091A606DE
:101BA0009091A7060E940A0380E0089581E00895BD
:101BB00081E008950FB6F8940F928091A20690915B
:101BC000A306892BE9F481EB96E00E94D70288EA0C
:101BD00096E00E94D70281EB96E09093A70680934F
:101BE000A60688EA96E09093A5068093A40640E0B6
:101BF00065E08AE00E94E4059093A3068093A20624
:101C00000F900FBE0895EF92FF920F93D3DF809154
:101C1000A2069091A306892B89F00F2EF0EAEF2EF1
:101C2000F6E0FF2EF02D03E020E030E045E550E047
:101C300066E272E084E891E0A9DA01C080E00F91E9
:101C4000FF90EF9008958F929F92AF92BF92CF92A4
:101C5000DF92FF920F931F93CF93DF934C015B01B1
:101C6000F42E690184E190E00E94B802EC01892B16
:101C700099F01B8A9FDF99828882BD86AC86DF86B9
:101C8000CE86198B088BCE0102960E94E502FF20BA
:101C900019F08B8984608B8BCE01DF91CF911F91DE
:101CA0000F91FF90DF90CF90BF90AF909F908F905B
:101CB00008950F931F93CF93DF9300D01F921F922D
:101CC000CDB7DEB7E091A206F091A306309761F19F
:101CD000D90169835B834A839D838C836630E4F4F6
:101CE00018DE823061F420E0A801BE016F5F7F4FF3
:101CF0008091A2069091A3060E94120616C020E0D1
:101D000040E050E0BE016F5F7F4F8091A20690914E
:101D1000A3060E94120609C020E0AD01BE016F5F5C
:101D20007F4FCF0129D801C080E00F900F900F9016
:101D30000F900F90DF91CF911F910F910895AF9267
:101D4000BF92CF92DF92EF92FF920F931F93CF93A8
:101D5000DF936C0160DB7C0180919E0690919F0671
:101D6000E816F90608F047C02FC00580F681E02D7F
:101D7000A080B180C681D7818E010E5F1F4FC80140
:101D80000E943B03E889F989CE0119958B8982FF6E
:101D90001BC08C859D858A0D9B1DA816B90660F415
:101DA0009B838A83D987C887B8018091A6069091C2
:101DB000A7060E940A0308C000E010E020E030E01F
:101DC000A50160E0CE0175DFE091A606F091A706BF
:101DD00080818111CACF8091A4069091A50690932D
:101DE000A7068093A606F093A506E093A40681E0DB
:101DF000F601808302C0F6011082F0929F06E09205
:101E00009E06C701DF91CF911F910F91FF90EF9038
:101E1000DF90CF90BF90AF9008950895279A2F9AA2
:101E20002FEF80E792E0215080409040E1F700C022
:101E300000001F9AF5CF279A2F9A2FEF87EA91E695
:101E4000215080409040E1F700C000001F9AF5CF7C
:101E500020E040E050E060E070E08091E506909185
:101E6000E6060C9412060895C0E0D0E00F2EF1E4CF
:101E7000EF2EF2E0FF2EF02D68EE73E08091E50684
:101E80009091E6063AD8C7DA04E610E020E030E0A8
:101E9000AC0161E08091E7069091E8060ADF5CD42E
:101EA0006FD4882321F08BE392E00E94C91D8AD46D
:101EB0006093DD067093DE068093DF069093E00664
:101EC0006FD4262F372F462F572F682F792F409307
:101ED000E1065093E2066093E3067093E4069F9355
:101EE0008F933F932F938091E0068F938091DF062D
:101EF0008F938091DE068F938091DD068F93DF9321
:101F0000CF93FF92EF920E94B51D21968DB79EB799
:101F10000C960FB6F8949EBF0FBE8DBFADCF05D403
:101F2000811104C08BEE93E00C94C91D089508E262
:101F30001FE020E030E041E06EE370E085E196E0F4
:101F400082DE9093E8068093E70681E00E94A40673
:101F50009093E6068093E5060F2EFAEBEF2EF6E05F
:101F6000FF2EF02D05E020E030E040EC50E06EE187
:101F700076E084E39FE00AD980E088D77894CFDFC9
:101F800013DAFFCF2F923F924F925F926F927F9220
:101F90008F929F92AF92BF92CF92DF92EF92FF9279
:101FA0000F931F93CF93DF93CDB7DEB760970FB634
:101FB000F894DEBF0FBECDBF7C011B016A01FC019E
:101FC00017821682838181FF44C39E012F5F3F4F9A
:101FD0003901F7019381F10193FD859193FF81917F
:101FE0001F01882309F431C3853239F493FD8591AB
:101FF00093FF81911F01853239F4B70190E00E946F
:10200000791D56016501E5CF10E0512C912CFFE1BF
:10201000F915D8F08B3279F038F4803279F08332C8
:10202000A1F4F92DF0612EC08D3261F0803369F496
:10203000292D21602DC0392D3260932E892D846089
:10204000982E2AC0E92DE86015C097FC2DC020ED20
:10205000280F2A3088F496FE06C03AE0139F200D20
:102060001124122F19C08AE0589E200D1124522EDF
:10207000E92DE0629E2E10C08E3231F496FCE5C24E
:10208000F92DF0649F2E08C08C3621F4292D20688C
:10209000922E02C0883641F4F10193FD859193FFA1
:1020A00081911F018111B3CF9BEB980F933020F4E6
:1020B000992D9061805E07C09BE9980F933008F0DE
:1020C00066C1992D9F7E96FF16E09F73992E8536E7
:1020D00019F49064992E08C0863621F4392F30689F
:1020E000932E02C01111115097FE07C01C3350F4FB
:1020F00044244394410E27E00BC0183038F027E009
:1021000017E005C027E09CE3492E02C0212F412C97
:10211000560184E0A80EB11CF601608171818281B4
:102120009381042DA3010E947B1C6C01F981FC8723
:10213000F0FF02C0F3FF06C091FC06C092FE06C08D
:1021400000E205C00DE203C00BE201C000E08C8597
:102150008C7019F001115AC29BC297FE10C04C0C32
:10216000FC85F4FF04C08A81813309F44A94141475
:1021700074F528E0241578F588E0482E2CC096FCEC
:102180002AC0812F90E08C159D059CF03CEFC31672
:102190003FEFD30674F0892D8068982E0AC0E2E0E4
:1021A000F0E0EC0FFD1FE10FF11D8081803319F489
:1021B00011501111F4CF97FE0EC044244394410EE8
:1021C000812F90E0C816D9062CF41C1904C04424B1
:1021D000439401C010E097FE06C01C141D0434F4A3
:1021E000C601019605C085E090E002C081E090E064
:1021F00001110196112331F0212F30E02F5F3F4F65
:10220000820F931F252D30E08217930714F4581A7C
:1022100001C0512C892D897049F4552039F0B7013E
:1022200080E290E00E94791D5A94F7CF002329F0B4
:10223000B701802F90E00E94791D93FC09C05520C2
:1022400039F0B70180E390E00E94791D5A94F7CFEE
:1022500097FE4CC04601D7FE02C0812C912CC601CE
:1022600088199909F301E80FF91FFE87ED87960198
:1022700024193109388B2F87012F10E01195019512
:1022800011093FEF8316930629F4B7018EE290E01F
:102290000E94791DC814D9044CF08F85988988153F
:1022A000990524F4ED85FE85818101C080E3F1E08C
:1022B0008F1A91082D853E852F5F3F4F3E872D87D2
:1022C000801691062CF0B70190E00E94791DD9CFBD
:1022D000C814D90441F49A81963320F4953319F443
:1022E0003C8534FF81E3B70190E04EC08A818133A1
:1022F00019F09C859F7E9C87B70190E00E94791D14
:10230000111105C094FC18C085E690E017C0B70114
:102310008EE290E00E94791D1E5F82E001E0080FCE
:10232000F301E80FF11D8081B70190E00E94791D53
:10233000802F0113F3CFE6CF85E490E0B7010E9430
:10234000791DD7FC06C0C114D10441F4EC85E4FF2B
:1023500005C0D194C194D1088DE201C08BE2B701D0
:1023600090E00E94791D80E32AE0C216D1042CF08F
:102370008F5FFAE0CF1AD108F7CFB70190E00E9443
:10238000791DB701C601C0960E94791D54C18336DC
:1023900031F0833779F0833509F056C020C05601FB
:1023A00032E0A30EB11CF6018081898301E010E0C8
:1023B000630112C05601F2E0AF0EB11CF601C080FD
:1023C000D18096FE03C0612F70E002C06FEF7FEFF7
:1023D000C6010E946E1D8C01F92DFF7714C05601B5
:1023E00022E0A20EB11CF601C080D18096FE03C08F
:1023F000612F70E002C06FEF7FEFC6010E94531D96
:102400008C01F92DF0689F2EF3FD1AC0852D90E008
:1024100008171907A8F4B70180E290E00E94791D1F
:102420005A94F4CFF60197FC859197FE81916F0144
:10243000B70190E00E94791D51105A940150110982
:102440000115110579F7F7C0843611F0893661F569
:10245000560197FE09C024E0A20EB11CF60160816E
:102460007181828193810AC0F2E0AF0EB11CF60146
:1024700060817181072E000C880B990BF92DFF7676
:102480009F2E97FF09C090958095709561957F4F1D
:102490008F4F9F4FF0689F2E2AE030E0A3010E94EB
:1024A000F91DC82EC6183FC0092D853721F40F7EAF
:1024B0002AE030E01DC0097F8F3691F018F488358E
:1024C00059F0C3C0803719F0883711F0BEC00061E1
:1024D00004FF09C0046007C094FE08C0066006C07F
:1024E00028E030E005C020E130E002C020E132E029
:1024F000560107FF09C084E0A80EB11CF6016081F7
:1025000071818281938108C0F2E0AF0EB11CF601A7
:102510006081718180E090E0A3010E94F91DC82EC6
:10252000C6180F77902E96FE0BC0092D0E7FC11690
:1025300050F494FE0AC092FC08C0092D0E7E05C01E
:10254000DC2C092D03C0DC2C01C0D12E04FF0DC0F2
:10255000FE01EC0DF11D8081803311F4097E09C06C
:1025600002FF06C0D394D39404C0802F867809F06C
:10257000D39403FD11C000FF06C01C2DD51480F4B8
:10258000150D1D190DC0D51458F4B70180E290E067
:102590000E94791DD394F7CFD51410F45D1801C0B3
:1025A000512C04FF10C0B70180E390E00E94791D18
:1025B00002FF17C001FD03C088E790E002C088E574
:1025C00090E0B7010CC0802F867859F001FF02C05F
:1025D0008BE201C080E207FD8DE2B70190E00E942E
:1025E000791DC11638F4B70180E390E00E94791D8F
:1025F0001150F7CFCA94F301EC0DF11D8081B701A2
:1026000090E00E94791DC110F5CF15C0F4E0F515DA
:1026100060F584E0581A93FE1FC0011127C02C8575
:1026200023FF2AC00AE911E0392D3071932EF801F9
:102630008491811124C0552009F4E4CCB70180E2D3
:1026400090E00E94791D5A94F6CFF7018681978118
:1026500026C08FEF9FEF23C0B70180E290E00E9479
:10266000791D5A945110F8CFD8CF512CB701802F33
:1026700090E00E94791DD3CF0EE911E0D5CF9110E3
:102680008052B70190E00E94791D0F5F1F4FCFCF9E
:1026900023E0251510F483E0BDCF512CC0CF609608
:1026A0000FB6F894DEBF0FBECDBFDF91CF911F9163
:1026B0000F91FF90EF90DF90CF90BF90AF909F90E1
:1026C0008F907F906F905F904F903F902F900895E4
:1026D0006530F1F4FA0180818F7390E0982F88279C
:1026E0002181822B90930902809308028281F0E479
:1026F0008F9FC0011124FA01238126952695822BF4
:10270000909307028093060281E08093BC060895AF
:10271000643051F080E090E49093070280930602C9
:10272000909309028093080208950F931F9308E67F
:1027300013E120E034E244EF50E060E087E2E0D3D0
:102740009093BE068093BD0621E0892B09F020E01E
:10275000822F1F910F9108958091BD069091BE0622
:10276000009751F040E060E070E01BD4843031F419
:102770001092BC0680E0089582E0089583E00895F9
:102780008091BD069091BE06009731F064E054D46C
:10279000853021F083E0089582E0089580E0089577
:1027A000609108027091090280E090E04AD620E032
:1027B00030E048EC52E4D3D620E038EF4FE756E45F
:1027C000ACC50895609106027091070280E090E028
:1027D00038D620E030E045E253E4C1D620E038EFBF
:1027E0004FE756E49AD520E030E040E252E430C5AD
:1027F00008952F923F924F925F926F927F928F92A5
:102800009F92AF92CF92EF92FF920F931F93CF932D
:10281000DF93CDB7DEB7F82E2A013B0188E090E0C8
:1028200045D78C018F2D90E0880F991FFC01E15452
:10283000F94F11830083FC01E65FFD4F8081918198
:10284000D8018D939C936C2D70E084E090E014D7B8
:102850001C0161E070E086E090E00ED77C014C2D19
:10286000B101DAD4F801F582E4826A2D70E084E0E7
:1028700090E002D71C0161E070E086E090E0FCD6B9
:102880007C014A2DB101C8D4D8011396FC92EE9276
:10289000129717969C928E921697FFB6F894ED9128
:1028A000FC91119736978081826080838D909C90F7
:1028B000C301B201C6D520E030E040E051E44FD67C
:1028C0009B01AC0160E074E284E79BE426D520E044
:1028D00030E040E85FE3BCD488D5F40132976083F0
:1028E000D801ED91FC911197359788E98083ED919E
:1028F000FC91349786E08083FFBEC801DF91CF91C1
:102900001F910F91FF90EF90CF90AF909F908F907D
:102910007F906F905F904F903F902F900895CF934E
:10292000DF93EC01EA81FB81938182812581981BF1
:10293000922384819817A1F0938126952923A08161
:10294000B181A20FB11D6C939F5F25819223938368
:10295000E881F981359780818062808380E001C0C1
:1029600082E0DF91CF910895DC011496ED91FC9106
:10297000159793818281981789F092818581869538
:102980008923A081B181A80FB11D8C91DB018C93AB
:102990009F5F85819823928380E0089583E0089566
:1029A0001F920F920FB60F9211240BB60F922F9316
:1029B0003F934F935F936F937F938F939F93AF93C7
:1029C000BF93CF93DF93EF93FF93A091BF06B09196
:1029D000C006109711F16091C6001496ED91FC911C
:1029E0001597938182812581981B92238481981762
:1029F00061F0838126952823C081D181C20FD11D2A
:102A000068838F5F9581892383831696ED91FC916E
:102A10001797309711F0CD011995FF91EF91DF9144
:102A2000CF91BF91AF919F918F917F916F915F9166
:102A30004F913F912F910F900BBE0F900FBE0F90B3
:102A40001F9018951F920F920FB60F9211240BB67C
:102A50000F922F938F939F93AF93BF93EF93FF9317
:102A6000E091BF06F091C0063097B9F00280F38183
:102A7000E02D938182819817B1F092818581282F72
:102A800026952923A081B181A20FB11D2C919F5FB2
:102A9000892382832093C6000BC0E1ECF0E08081A3
:102AA0008F7D808305C0E1ECF0E080818F7D8083A5
:102AB000FF91EF91BF91AF919F918F912F910F90C7
:102AC0000BBE0F900FBE0F901F9018951F920F9284
:102AD0000FB60F9211240BB60F922F933F934F9383
:102AE0005F936F937F938F939F93AF93BF93CF9396
:102AF000DF93EF93FF93A091C106B091C2061097A8
:102B000011F16091CE001496ED91FC91159793818F
:102B100082812581981B92238481981761F083819B
:102B200026952823C081D181C20FD11D68838F5F74
:102B30009581892383831696ED91FC9117973097A1
:102B400011F0CD011995FF91EF91DF91CF91BF91D8
:102B5000AF919F918F917F916F915F914F913F9135
:102B60002F910F900BBE0F900FBE0F901F901895D6
:102B70001F920F920FB60F9211240BB60F922F9344
:102B80008F939F93AF93BF93EF93FF93E091C10611
:102B9000F091C2063097B9F00280F381E02D938165
:102BA00082819817B1F092818581282F269529235B
:102BB000A081B181A20FB11D2C919F5F89238283D7
:102BC0002093CE000BC0E9ECF0E080818F7D808304
:102BD00005C0E9ECF0E080818F7D8083FF91EF916B
:102BE000BF91AF919F918F912F910F900BBE0F903E
:102BF0000FBE0F901F9018951F920F920FB60F9255
:102C000011240BB60F922F933F934F935F936F93C3
:102C10007F938F939F93AF93BF93CF93DF93EF9364
:102C2000FF93A091C306B091C406109711F1609173
:102C3000D6001496ED91FC911597938182812581A0
:102C4000981B92238481981761F08381269528230D
:102C5000C081D181C20FD11D68838F5F9581892387
:102C600083831696ED91FC911797309711F0CD0163
:102C70001995FF91EF91DF91CF91BF91AF919F9106
:102C80008F917F916F915F914F913F912F910F9015
:102C90000BBE0F900FBE0F901F9018951F920F92B2
:102CA0000FB60F9211240BB60F922F938F939F9311
:102CB000AF93BF93EF93FF93E091C306F091C406E7
:102CC0003097B9F00280F381E02D938182819817CB
:102CD000B1F092818581282F26952923A081B18189
:102CE000A20FB11D2C919F5F892382832093D60070
:102CF0000BC0E1EDF0E080818F7D808305C0E1EDC8
:102D0000F0E080818F7D8083FF91EF91BF91AF9143
:102D10009F918F912F910F900BBE0F900FBE0F9030
:102D20001F9018951F920F920FB60F9211240BB699
:102D30000F922F933F934F935F936F937F938F9354
:102D40009F93AF93BF93CF93DF93EF93FF93A091A4
:102D5000C506B091C606109711F160913601149620
:102D6000ED91FC911597938182812581981B922387
:102D70008481981761F0838126952823C081D181B1
:102D8000C20FD11D68838F5F958189238383169637
:102D9000ED91FC911797309711F0CD011995FF91A6
:102DA000EF91DF91CF91BF91AF919F918F917F91E3
:102DB0006F915F914F913F912F910F900BBE0F90AC
:102DC0000FBE0F901F9018951F920F920FB60F9283
:102DD00011240BB60F922F938F939F93AF93BF93B2
:102DE000EF93FF93E091C506F091C6063097B9F0D6
:102DF0000280F381E02D938182819817B1F0928156
:102E00008581282F26952923A081B181A20FB11D8C
:102E10002C919F5F89238283209336010BC0E1E3CD
:102E2000F1E080818F7D808305C0E1E3F1E0808166
:102E30008F7D8083FF91EF91BF91AF919F918F9193
:102E40002F910F900BBE0F900FBE0F901F901895F3
:102E5000CF93DF931F92CDB7DEB7BE016F5F7F4F79
:102E60008091C7069091C8067FDD8111F6CF8981D8
:102E700090E00F90DF91CF910895682F8091C70661
:102E80009091C8064CDD80E090E008958F929F926B
:102E9000AF92CF92EF920F93812C912C6894AA2439
:102EA000A7F86894CC24C7F8E12C00E023E040E0C8
:102EB00051EE60E070E09DDC9093C8068093C706F9
:102EC000EFEEF6E082E192E0918380839383828348
:102ED0000F91EF90CF90AF909F908F900895809139
:102EE000D70681110CC08CE08093B8008FEF8093DF
:102EF000BB0084E08093BC0081E08093D7060895F6
:102F0000AF92BF92CF92DF92EF92FF920F931F93F7
:102F1000CF93DF93A82EB62E69017A0184E090E06A
:102F2000C5D3EC01892B61F1A88281E0B81212C0EF
:102F3000C701B60120EA36E841E050E073D3DA0178
:102F4000C9014097A109B109B695A79597958795AD
:102F5000898311C0C701B60120E83AE146E050E09C
:102F600061D3DA01C9014097A109B109B695A795C6
:102F70009795879589831B830A838C2F9D2F02C089
:102F800080E090E0DF91CF911F910F91FF90EF9043
:102F9000DF90CF90BF90AF9008958091BC0081707A
:102FA0000895FF920F931F93CF93DF930097C9F17A
:102FB0004A30C8F5F42E8B01EC01EFDF811135C0EA
:102FC0008091CA069091CB06C817D90741F087DFD8
:102FD00089818093B800D093CB06C093CA0681E064
:102FE0008F0D8093CC068881880F8093CD06FF20BB
:102FF00081F0F801AEECB6E04FEF4F0D642F70E0BA
:103000006F5F7F4F600F711F81918D93E617F707F8
:10301000D9F788EF8093200285EA8093BC0081E095
:1030200005C086E003C087E001C082E0DF91CF9158
:103030001F910F91FF9008951F93CF93DF930097F7
:1030400029F16B3028F5162FEC01A7DF811122C082
:103050008091CA069091CB06C817D90741F03FDF8F
:1030600089818093B800D093CB06C093CA06109391
:10307000CC068881880F81608093CD0688EF80938D
:10308000200285EA8093BC0081E005C086E003C091
:1030900087E001C082E0DF91CF911F9108951F92D8
:1030A0000F920FB60F9211240BB60F922F933F93EE
:1030B0004F935F936F937F938F939F93AF93BF9340
:1030C000EF93FF93E091B9008E2F90E0FC013897C9
:1030D000E135F10508F075C08827E458FF4F8F4FA0
:1030E000C3C21092C906E091C9068091CC06E817C8
:1030F00070F481E08E0F8093C906F0E0E353F94F3E
:1031000080818093BB0085E88093BC0072C084E915
:103110008093BC008091CA069091CB06DC01129688
:10312000ED91FC911397309709F463C020E040E0E3
:1031300050E064E019955DC0E091C90681E08E0F12
:103140008093C9068091BB00F0E0E353F94F808380
:103150008091B900803411F41092C9062091C906FB
:1031600030E08091CC0690E001972817390724F4CD
:1031700085EC8093BC003DC085E88093BC0039C0DD
:103180008091BB00E091C906F0E0E353F94F8083E2
:1031900084E98093BC008091CA069091CB06DC0143
:1031A0001296ED91FC911397309719F12091CC066E
:1031B0004DEC56E065E019951CC085EA8093BC0093
:1031C00018C08091B9008093200284E08093BC00F5
:1031D0008091CA069091CB06DC011296ED91FC918C
:1031E0001397309731F020E040E050E060912002EA
:1031F0001995FF91EF91BF91AF919F918F917F9121
:103200006F915F914F913F912F910F900BBE0F9057
:103210000FBE0F901F901895FC01411101C067D39C
:10322000842F90E09C012150310982239323892B24
:1032300009F05DD3413808F05AD3128213824483D7
:10324000440F415045837183608380E090E008958E
:103250005058BB27AA270ED048C139D130F03ED1F3
:1032600020F031F49F3F11F41EF42EC10EF4E095CE
:10327000E7FB24C1E92F4AD180F3BA17620773072D
:103280008407950718F071F49EF562C10EF4E0957D
:103290000B2EBA2FA02D0B01B90190010C01CA0110
:1032A000A0011124FF27591B99F0593F50F4503EBB
:1032B00068F11A16F040A22F232F342F4427585FAD
:1032C000F3CF469537952795A795F0405395C9F7C5
:1032D0007EF41F16BA0B620B730B840BBAF091507D
:1032E000A1F0FF0FBB1F661F771F881FC2F70EC01C
:1032F000BA0F621F731F841F48F4879577956795EF
:10330000B795F7959E3F08F0B3CF9395880F08F0D7
:103310009927EE0F9795879508950CD0E6C0DED0DB
:1033200040F0D5D030F021F45F3F19F0C7C0511103
:1033300010C1CAC0EBD098F39923C9F35523B1F358
:10334000951B550BBB27AA2762177307840738F014
:103350009F5F5F4F220F331F441FAA1FA9F333D073
:103360000E2E3AF0E0E830D091505040E695001C27
:10337000CAF729D0FE2F27D0660F771F881FBB1FE3
:10338000261737074807AB07B0E809F0BB0B802DBD
:10339000BF01FF2793585F4F2AF09E3F510568F009
:1033A0008DC0D7C05F3FECF3983EDCF386957795F0
:1033B0006795B795F7959F5FC9F7880F911D96950B
:1033C000879597F90895E1E0660F771F881FBB1F67
:1033D000621773078407BA0720F0621B730B840B14
:1033E000BA0BEE1F88F7E095089598D088F09F57A4
:1033F00090F0B92F9927B751A0F0D1F0660F771F41
:10340000881F991F1AF0BA95C9F712C0B13081F020
:103410009FD0B1E008959CC0672F782F8827B85FB0
:1034200039F0B93FCCF3869577956795B395D9F781
:103430003EF490958095709561957F4F8F4F9F4F8B
:103440000895E89409C097FB3EF490958095709597
:1034500061957F4F8F4F9F4F9923A9F0F92F96E9E0
:10346000BB279395F695879577956795B795F11155
:10347000F8CFFAF4BB0F11F460FF1BC06F5F7F4FF2
:103480008F4F9F4F16C0882311F096E911C0772304
:1034900021F09EE8872F762F05C0662371F096E80D
:1034A000862F70E060E02AF09A95660F771F881FDC
:1034B000DAF7880F9695879597F9089597F99F679A
:1034C00080E870E060E008959FEF80EC08950024AC
:1034D0000A941616170618060906089500240A9479
:1034E00012161306140605060895092E0394000CFF
:1034F00011F4882352F0BB0F40F4BF2B11F460FF8E
:1035000004C06F5F7F4F8F4F9F4F089557FD9058B6
:10351000440F551F59F05F3F71F04795880F97FB97
:10352000991F61F09F3F79F0879508951216130651
:103530001406551FF2CF4695F1DF08C01616170680
:103540001806991FF1CF86957105610508940895B5
:10355000E894BB2766277727CB0197F908950BD00E
:10356000C4CFB5DF28F0BADF18F0952309F0A6CF55
:10357000ABCF1124EECFCADFA0F3959FD1F3950F07
:1035800050E0551F629FF001729FBB27F00DB11DE7
:10359000639FAA27F00DB11DAA1F649F6627B00D77
:1035A000A11D661F829F2227B00DA11D621F739F60
:1035B000B00DA11D621F839FA00D611D221F749F6E
:1035C0003327A00D611D231F849F600D211D822FB5
:1035D000762F6A2F11249F5750408AF0E1F08823FC
:1035E0004AF0EE0FFF1FBB1F661F771F881F915009
:1035F0005040A9F79E3F510570F060CFAACF5F3FC2
:10360000ECF3983EDCF3869577956795B795F7953B
:10361000E7959F5FC1F7FE2B880F911D96958795C3
:1036200097F90895A1E21A2EAA1BBB1BFD010DC03C
:10363000AA1FBB1FEE1FFF1FA217B307E407F50762
:1036400020F0A21BB30BE40BF50B661F771F881F3E
:10365000991F1A9469F760957095809590959B01D4
:10366000AC01BD01CF010895EE0FFF1F881F8BBF76
:103670000790F691E02D19940F931F93CF93DF934A
:10368000869F8001879F100D969F100D1124C80101
:103690000DD0EC01009721F0A80160E070E017D296
:1036A000CE01DF91CF911F910F9108950F931F933A
:1036B000CF93DF938230910510F482E090E0E091A7
:1036C000ED06F091EE0620E030E0A0E0B0E03097AB
:1036D00019F1408151810281138148175907C8F0BF
:1036E0008417950769F4109731F012960C9312978E
:1036F00013961C9327C00093ED061093EE0622C08C
:103700002115310519F04217530718F49A01BD012C
:10371000EF01DF01F801DBCF21153105F9F0281B9E
:10372000390B2430310580F48A819B816115710544
:1037300021F0FB019383828304C09093EE06809373
:10374000ED06FE01329644C0FE01E20FF31F8193A5
:10375000919322503109398328833AC02091EB0696
:103760003091EC06232B41F42091020230910302A8
:103770003093EC062093EB06209100023091010279
:103780002115310541F42DB73EB740910402509107
:103790000502241B350BE091EB06F091EC06E217D5
:1037A000F307A0F42E1B3F0B2817390778F0AC0164
:1037B0004E5F5F4F2417350748F04E0F5F1F509341
:1037C000EC064093EB068193919302C0E0E0F0E0B9
:1037D000CF01DF91CF911F910F910895CF93DF9388
:1037E000009709F481C0FC01329713821282A091E4
:1037F000ED06B091EE06109781F420813181820FA1
:10380000931F2091EB063091EC062817390751F5EC
:10381000F093EC06E093EB0667C0ED0120E030E0AA
:10382000CE17DF0740F44A815B819E0141155105A7
:10383000F1F0EA01F5CFD383C28340815181840F37
:10384000951FC817D90759F488819981840F951F4E
:103850000296918380838A819B8193838283211541
:10386000310529F4F093EE06E093ED063DC0E90141
:10387000FB83EA8349915991C40FD51FEC17FD07CB
:1038800061F480819181840F951F0296E9019983EB
:103890008883828193819B838A83E0E0F0E01296A3
:1038A0008D919C911397009719F0FD01DC01F7CFE2
:1038B0008D919C9111979D012E5F3F4F820F931F19
:1038C0002091EB063091EC062817390769F4309700
:1038D00029F41092EE061092ED0602C013821282B5
:1038E000B093EC06A093EB06DF91CF91089581E0B1
:1038F00090E0F894DCC1283008F027E03327DA01A3
:10390000990F311D87FD916000966105710539F4AD
:1039100032602E5F3D9330E32A95E1F708959F3F93
:1039200030F080387105610509F03C5F3C5F3D93E4
:10393000913008F08068911DDF93CF931F930F9310
:10394000FF92EF92192F987F9695E92F969596956D
:10395000E90FFF27E450FE4F99273327EE24FF2479
:10396000A701E70105900894079428F4360FE71E95
:10397000F81E491F511D660F771F881F991F069457
:10398000A1F70590079428F4E70EF81E491F561F6B
:10399000C11D770F881F991F661F0694A1F7059018
:1039A000079428F4F80E491F561FC71FD11D880F12
:1039B000991F661F771F0694A1F70590079420F4BE
:1039C000490F561FC71FD81F990F661F771F881FE3
:1039D0000694A9F784911095177041F0D695C79574
:1039E00057954795F794E7941A95C1F7E2EAF1E005
:1039F00068941590159135916591959105907FE2A8
:103A00007395E118F10A430B560BC90BD009C0F7A7
:103A1000E10CF11E431F561FC91FD01D7EF47033E9
:103A200011F48A95E6CFE894015030F0080F0AF4BB
:103A30000027021708F4202F2395022F7A3328F04D
:103A400079E37D932A95E9F710C07D932A9589F64D
:103A5000069497956795379517951794E118F10A8D
:103A6000430B560BC90BD00998F023957E917395A3
:103A70007A3308F070E37C932013B8F77E9170617D
:103A80007D9330F0839571E37D9370E32A95E1F7A0
:103A90001124EF90FF900F911F91CF91DF91992703
:103AA00087FD90950895FC010590615070400110CC
:103AB000D8F7809590958E0F9F1F0895FB01DC012C
:103AC00002C001900D9241505040D8F70895DC019A
:103AD00001C06D9341505040E0F70895FC016150E2
:103AE000704001900110D8F7809590958E0F9F1F20
:103AF00008950F931F93CF93DF93FB01238121FD43
:103B000003C08FEF9FEF2CC022FF16C04681578164
:103B1000248135814217530744F4A081B1819D016E
:103B20002F5F3F4F318320838C93268137812F5F16
:103B30003F4F3783268314C08B01EC01FB010084C7
:103B4000F185E02D1995892BE1F6D80116968D9116
:103B50009C911797019617969C938E931697CE017A
:103B6000DF91CF911F910F910895CF93DF93CDB740
:103B7000DEB7AE014A5F5F4FFA0161917191AF010B
:103B80008091F1069091F2060E94C20FDF91CF91D1
:103B900008950F931F93CF93DF93E091F106F09177
:103BA000F206238121FF1BC08C01D0E0C0E0F801A8
:103BB00081918F016091F1067091F206DB011896F8
:103BC000ED91FC911997882331F01995892B79F3A0
:103BD000DFEFCFEFECCF8AE01995892B19F08FEF4B
:103BE0009FEF02C08D2F9C2FDF91CF911F910F91DE
:103BF0000895FA01AA27283051F1203181F1E89483
:103C00006F936E7F6E5F7F4F8F4F9F4FAF4FB1E0CF
:103C10003ED0B4E03CD0670F781F891F9A1FA11DCA
:103C2000680F791F8A1F911DA11D6A0F711D811DCB
:103C3000911DA11D20D009F468943F912AE0269F90
:103C400011243019305D3193DEF6CF010895462FEF
:103C50004770405D4193B3E00FD0C9F7F6CF462FD0
:103C60004F70405D4A3318F0495D31FD4052419339
:103C700002D0A9F7EACFB4E0A695979587957795F6
:103C80006795BA95C9F700976105710508959B017D
:103C9000AC010A2E06945795479537952795BA9506
:103CA000C9F7620F731F841F951FA01D0895F89414
:023CB000FFCF44
:103CB2000000F506200000400040C600CE00D600FD
:103CC200360100000003000000003D172817000025
:103CD200F849444C4500546D722053766300434FBB
:103CE20032206973202564200A20004552524F5227
:103CF200006D6561737572656D656E74206E6F3AE5
:103D0200202564206861732074656D7020697320BA
:103D120025342E32662068756D696469747920696C
:103D2200732025322E32662525200A0074657374AD
:103D3200203A206C6F72612068616E646C6572203B
:103D42007461736B202D2D3E73657475703C2D2D3F
:103D52007374617274656400466163746F72795240
:103D620065736574203E25733C0A00436F6E666975
:103D72006775726520746F204555383638203E25A8
:103D8200733C0A00476574204857455549203E2533
:103D9200733C3A2025730A005365742044657645C6
:103DA20055493A202573203E25733C0A0034326679
:103DB2003866326233646238306537336264313771
:103DC200376362383864626261363765340065652C
:103DD200616664306239633638313964396100535F
:103DE2006574204F544141204964656E7469747949
:103DF200206170704555493A2573206170704B45BA
:103E0200593A2573206465764555493A2573203E13
:103E120025733C0A0053617665206D6163203E255F
:103E2200733C0A005365742041646170746976655D
:103E3200204461746120526174653A204F4E203EE5
:103E420025733C0A004A6F696E204E6574776F7263
:103E52006B2054726965734C6566743A2564203E22
:103E620025733C0A00636F6E6E656374696F6E2022
:103E72006572726F723A3E25733C0A00436F6E6E32
:103E820065637465640055706C6F6164204D657381
:103E920073616765203E25733C0A0044726976654A
:103EA200722063726561746564204F4B004C6F52DF
:103EB20061205461736B20537461727465640053A2
:103EC200657420746865206D6F64756C6520746F0D
:103ED20020666163746F727920736574206465660D
:103EE20061756C74733A4641494C4544005365749C
:103EF20020746865206D6F64756C6520746F206630
:103F02006163746F7279207365742064656661758C
:103F12006C74733A5355434345535300436F6E6673
:103F2200696775726520746865206D6F64756C656C
:103F320020746F2075736520746865204555383686
:103F420038206672657175656E637920706C616E7A
:103F520020616E642073657474696E67733A2046DB
:103F620041494C454400436F6E666967757265202E
:103F7200746865206D6F64756C6520746F2075734D
:103F8200652074686520455538363820667265713B
:103F920075656E637920706C616E20616E6420734A
:103FA200657474696E67733A20535543434553539E
:103FB200004765742074686520524E3234383320CD
:103FC2006D6F64756C657320756E697175652064BB
:103FD20065764555493A4641494C45440047657422
:103FE2002074686520524E32343833206D6F647508
:103FF2006C657320756E69717565206465764555CB
:10400200493A53554343455353006465765F65759A
:1040120069206973203A2000536574207468652012
:104022006E6563657373617279204C6F526157419B
:104032004E20706172616D657465727320666F7275
:1040420020616E204F544141206A6F696E3A2046CA
:1040520041494C4544005361766520616C6C207384
:10406200657420706172616D657465727320746F1E
:104072002074686520524E32343833206D6F647577
:104082006C657320454550524F4D3A204641494C8C
:104092004544004A6F696E204C6F526157414E2071
:1040A200706172616D6574657273207769746820DE
:1040B2004F5441413A2053554343455353004C52C8
:1040C20048616E640054696D6572203120004D654F
:1040D20061737572652054656D7020616E6420484D
:0840E200756D696469747900D1
:00000001FF
