S00C0000494D53312E73726563FE
S113000084C20000A3C20000A1C200009FC200007D
S11300109DC200009BC2000099C2000097C200006C
S113002095C2000093C2000091C200008FC200007C
S1130030B8C400008BC2000089C2000087C200005F
S113004085C2000083C2000081C200007FC200009C
S11300507DC200007BC2000079C2000077C20000AC
S113006075C200000C94FE130C9450146FC200006F
S11300706DC200006BC2000069C2000067C20000CC
S113008065C2000063C2000061C200005FC20000DC
S11300900C9494140C94E61459C200000C947D172B
S11300A055C2000053C2000051C200004FC20000FC
S11300B04DC200004BC2000049C2000047C200000C
S11300C045C2000043C2000041C200000C942A153E
S11300D00C947C153BC200000C94C0150C941216B1
S11300E035C2000015021502150244024C025B02DF
S11300F01502150244024C029F170F180F180F180F
S11301000F180F180F180F189F170F180F180F1824
S11301100F180F180F180F18A1170F180F180F1812
S11301200F180F180F180F180F180F180F180F1893
S11301300F180F180F180F18A1170F180F180F18F2
S11301400F180F180F180F180F180F180F180F1873
S11301500F180F180F180F180B180F180F180F1867
S11301600F180F180F180F18D6170F180F180F188D
S11301700F180F180F180F180F180F180F180F1843
S11301800F180F180F180F18CA170F180F180F1879
S11301900F180F180F180F18EE176E616E00696EA6
S11301A0660000407A10F35A00A0724E180900103D
S11301B0A5D4E80000E87648170000E40B540200D8
S11301C000CA9A3B000000E1F50500008096980003
S11301D0000040420F000000A0860100000010272C
S11301E000000000E80300000000640000000000BC
S11301F00A00000000000100000000002C76D888EE
S1130200DC674F0823DFC1DFAE59E1B1B796E5E300
S1130210E453C63AE651997696E8E6C28426EB8919
S11302208C9B62ED407C6FFCEFBC9C9F40F2BAA5B6
S11302306FA5F490055A2AF75C936B6CF9676DC14E
S11302401BFCE0E40D47FEF520E6B500D0ED902E52
S11302500300943577050080841E080000204E0AB0
S1130260000000C80C333333330F986E12831141EE
S1130270EF8D2114893BE65516CFFEE6DB18D184B9
S11302804B381BF77C1D901DA4BBE42420328472E0
S11302905E228100C9F124ECA1E53D2704EF12E0C0
S11302A00F2EFCE1EF2EF3E0FF2EF02D8091F302F0
S11302B0882311F10FB6F8940F92D8011596ED9199
S11302C0FC911697C681D781CE010296D2D1809136
S11302D0E90281508093E9028091F3028150809376
S11302E0F3020F900FBE8F89988D52D1CE0150D159
S11302F08091F3028111DECFF7018081823008F012
S11303008DD20E94260DD2CFCF93DF9300D000D0A0
S1130310CDB7DEB7CE0101964C0144244394E12CC1
S1130320F12C512CC82ED92CE0914A03F0914B03A7
S11303308081882309F4D6C00580F681E02DA08051
S1130340B1808DD7C4010E94B80C8C0189818111C0
S113035048C00A151B05B0F10E94F609E0914A0352
S1130360F0914B030580F681E02D66807780C30110
S113037002967FD1D30153968C91539782FF17C075
S11303801C966D917C911D976A0D7B1D9501A801AA
S1130390C3010E94FD0B882369F00E2D1F2D2E2D05
S11303A03F2DA501652DC3010E94740C03C08E7FEF
S11303B0F301838BD3015096ED91FC915197C301C6
S11303C0199584C0452DB501601B710B80914603BE
S11303D09091470377D50E94F609811177C01ED208
S11303E075C00E94F60972C0898188230CF46EC01E
S11303F0AC80BD80F50182859385892B19F0C501F8
S1130400029637D1CE0106960E94B80CAC01E98160
S11304100E2E000CFF0BEA30F10508F057C08827B8
S1130420EE58FF4F8F4F0C94621AD50153968C915E
S11304305397816053968C9353972A813B811C96E2
S11304406D917C911D97620F731FC5010E94FD0B76
S11304508823E1F1D5015096ED91FC915197C501A6
S11304601995F501838982FF31C04A815B818485B6
S11304709585480F591F0E2D1F2D2E2D3F2D652DAF
S1130480C5010E94740C22C0D50153968C915397D8
S11304908E7F53968C931AC0F50183898160838B78
S11304A06A817B8175876487640F751F9A01C50112
S11304B00E94FD0B0BC0D50153968C9181FD03C0A6
S11304C0C50166D003C08E7FF501838B4E2D5F2D51
S11304D06C2D7D2D80914603909147036AD4811140
S11304E083CF22CFBCD6C4010E94B80C8C01898171
S11304F0811177CFE0914803F09149038081442D25
S11305008111452DAE2CBF2C5ECF11241FBECFEF21
S1130510D1E2DEBFCDBF00E00CBF12E0A0E0B2E04C
S1130520EEE0FBE300E00BBF02C007900D92AC3D90
S1130530B107D9F723E0ACEDB2E001C01D92AC39AC
S1130540B207E1F70E94AC0D0C94851D59CDE8E08B
S1130550F1E09081907F908390818F70982B9083AD
S11305600895E8E0F1E08081807F80830895CF934F
S1130570DF93EC0174D6CE010E94841AEC0136D7C5
S1130580209711F40E94270DCE01DF91CF91089599
S1130590CF93DF93009731F0EC0161D6CE010E9436
S11305A01C1B24D7DF91CF910895FC0103969283FD
S11305B081832FEF3FEF3483238396838583908752
S11305C0878310820895FC01118610860895CF93C5
S11305D0DF939C01FB01DC011196CD91DC91129714
S11305E0D383C2838C819D81958384838C819D81F7
S11305F0DC0113967C936E9312977D836C83318711
S11306002087F90180818F5F8083DF91CF910895E6
S1130610CF93DF93EB01488159814F3F2FEF52076E
S113062021F4FC01A781B0850DC0DC01139601C043
S1130630DF011296ED91FC911397208131814217CD
S11306405307B0F71296ED91FC911397FB83EA835D
S1130650D583C483BD83AC831396DC93CE93129766
S113066099878887FC0120812F5F2083DF91CF91B8
S11306700895CF93DF93FC01A085B185C281D38116
S1130680848195819D838C83C481D581828193816A
S11306909B838A8311968D919C911297E817F90791
S11306A031F48481958112969C938E9311971186CF
S11306B010868C9181508C938C91DF91CF91089509
S11306C031E1FC013083319722E220833197A3E3A7
S11306D0A08331976083319770833197108231976B
S11306E01082319760E860833197108231971082CD
S11306F031971082319762E06083319763E06083C1
S1130700319764E06083319765E06083319766E0F8
S11307106083319767E06083319768E06083319745
S113072069E06083319760E160833197308331976A
S113073032E13083319733E13083319734E13083D0
S1130740319735E13083319736E13083319737E1A2
S11307503083319738E13083319739E130833197F1
S113076030E23083319731E23083319720833197FF
S113077023E220833197408331975083319726E2D7
S11307802083319727E22083319728E22083319711
S113079029E22083319720E32083319721E32083CA
S11307A089970895A89590EC88E10FB6F894A895D8
S11307B0809360000FBE90936000A0914003B091BD
S11307C04103CD91CDBFDD91DEBFFF91EF91DF916C
S11307D0CF91BF91AF919F918F917F916F915F91D5
S11307E04F913F912F911F910F91FF90EF90DF90C8
S11307F0CF90BF90AF909F908F907F906F905F90BD
S11308004F903F902F901F900F900CBE0F900BBEF7
S11308100F900FBE0F90089581E008950F920FB6C8
S1130820F8940F920BB60F920CB60F921F921124EC
S11308302F923F924F925F926F927F928F929F92EC
S1130840AF92BF92CF92DF92EF92FF920F931F93DA
S11308502F933F934F935F936F937F938F939F93C4
S1130860AF93BF93CF93DF93EF93FF93A091400394
S1130870B09141030DB60D920EB60D9230D6A091F3
S11308804003B0914103CD91CDBFDD91DEBFFF9117
S1130890EF91DF91CF91BF91AF919F918F917F9114
S11308A06F915F914F913F912F911F910F91FF9005
S11308B0EF90DF90CF90BF90AF909F908F907F90FC
S11308C06F905F904F903F902F901F900F900CBEB1
S11308D00F900BBE0F900FBE0F9008950F920FB69E
S11308E0F8940F920BB60F920CB60F921F9211242C
S11308F02F923F924F925F926F927F928F929F922C
S1130900AF92BF92CF92DF92EF92FF920F931F9319
S11309102F933F934F935F936F937F938F939F9303
S1130920AF93BF93CF93DF93EF93FF93A0914003D3
S1130930B09141030DB60D920EB60D9213BE9FD425
S11309408111CDD5A0914003B0914103CD91CDBF8C
S1130950DD91DEBFFF91EF91DF91CF91BF91AF9118
S11309609F918F917F916F915F914F913F912F91C3
S11309701F910F91FF90EF90DF90CF90BF90AF90B9
S11309809F908F907F906F905F904F903F902F90AB
S11309901F900F900CBE0F900BBE0F900FBE0F90C8
S11309A008959CDF18950FB6F8940F92FC01928D70
S11309B00F900FBE81E0911180E008950F931F9373
S11309C0CF93DF93EC01042F1A8D4C8D41110BC092
S11309D088819981892B09F041C08C819D81CDD674
S11309E01D821C8242C0011117C050E08A819B8184
S11309F00E948C1C2C8D8A819B81820F911D9B836C
S1130A008A832C813D818217930750F188819981D3
S1130A109B838A8380E029C050E08E819F810E945D
S1130A208C1C8C8D90E09195819591092E813F814C
S1130A30280F391F3F832E83488159812417350796
S1130A4030F42C813D81820F931F9F838E8302306B
S1130A5049F4112349F0115080E007C080E005C03B
S1130A6080E003C080E001C080E01F5F1A8FDF9147
S1130A70CF911F910F910895FC01448D4423A9F057
S1130A8050E026813781240F351F378326838481E4
S1130A9095812817390720F0808191819783868377
S1130AA0CB01668177810C948C1C0895EF92FF92A0
S1130AB00F931F93CF938C010FB6F8940F92FC0100
S1130AC0C68D1C169CF48189811106C00FC0F801E3
S1130AD08189811105C00AC07801F1E1EF0EF11C92
S1130AE0C701B2D5811137D6C15089F78FEFF8010C
S1130AF0868F0F900FBE0FB6F8940F92C58D1C16FB
S1130B009CF48085811106C00FC0F8018085811195
S1130B1005C00AC07801F8E0EF0EF11CC70194D5B6
S1130B20811119D6C15089F78FEFF801858F0F9085
S1130B300FBECF911F910F91FF90EF900895CF9327
S1130B40DF93EC010FB6F8940F92E881F9818B8D55
S1130B502C8D90E030E0829FA001839F500D929FE6
S1130B60500D11244E0F5F1F5D834C831A8EFB833F
S1130B70EA830197829FA001839F500D929F500D9D
S1130B801124CF01840F951F9F838E838FEF8D8F48
S1130B908E8F61110AC08885882369F0CE0108967A
S1130BA053D5882341F03ADE06C0CE010896FDDC19
S1130BB0CE014196FADC0F900FBE81E0DF91CF9118
S1130BC00895FF920F931F93CF93DF93082F162F4F
S1130BD0F42E6623B9F0869FC00111248196C7DCE8
S1130BE0EC01009741F414C00B8F1C8F61E0CE011F
S1130BF0A6DFF8A20DC0819699838883F5CFD983A7
S1130C00C883F2CF81E290E0B2DCEC01892BB9F722
S1130C10CE01DF91CF911F910F91FF9008959F9284
S1130C20AF92BF92CF92DF92EF92FF920F931F93F6
S1130C30CF93DF9300D01F921F92CDB7DEB78C0104
S1130C406B015D834C83A22EB12C992493947C0177
S1130C5088E0E80EF11C0FB6F8940F92F801928D1B
S1130C60838D981718F0F2E0AF1215C04A2DB60123
S1130C70C801A4DEF8019189992339F0C80141968D
S1130C80E3D4882321F0CADD02C08111C7DD0F90AF
S1130C900FBE81E045C08C819D81892B21F40F908A
S1130CA00FBE80E03DC0B11004C0CE01019613D543
S1130CB0B92C0F900FBED3D20FB6F8940F92F8014F
S1130CC0858D8F3F09F4158EF801868D8F3F09F4C9
S1130CD0168E0F900FBEBE016C5F7F4FCE01019642
S1130CE005D5811119C00FB6F8940F92F801928DB1
S1130CF0838D0F900FBE98130BC06C817D81C7014B
S1130D007BD4C801D3DE72D38111A5CF87DDA3CFF5
S1130D10C801CCDE6BD39FCFC801C8DE67D380E0A7
S1130D200F900F900F900F900F90DF91CF911F9124
S1130D300F91FF90EF90DF90CF90BF90AF909F9076
S1130D400895EF92FF920F931F93CF93DF938A013D
S1130D50FC01528D338D531710F02230E1F4422FF1
S1130D607801EC011E8D2ADE1F3F79F489898823DE
S1130D70A1F0CE01419668D4882389F0E114F104EE
S1130D8081F081E0F70180830DC0FF24F394F10E1C
S1130D90FE8E81E007C080E005C081E003C081E0F1
S1130DA001C081E0DF91CF911F910F91FF90EF90EF
S1130DB008959F92AF92BF92CF92DF92EF92FF92EB
S1130DC00F931F93CF93DF9300D01F921F92CDB741
S1130DD0DEB78C015B015D834C83E12C99249394F1
S1130DE06C0181E1C80ED11C0FB6F8940F92F80182
S1130DF0F28CFF2091F0B501C8013EDEFA94F801AF
S1130E00F28E8085882329F0C80108961DD48111AB
S1130E1005DD0F900FBE81E044C08C819D81892B3C
S1130E2021F40F900FBE80E03CC0E11004C0CE015D
S1130E30019651D4E92C0F900FBE11D20FB6F8943D
S1130E400F92F801858D8F3F09F4158EF801868D78
S1130E508F3F09F4168E0F900FBEBE016C5F7F4F5B
S1130E60CE01019643D4811113C0C8019CDD8823AF
S1130E7059F06C817D81C601BFD3C80117DEB6D29B
S1130E808111B2CFCBDCB0CFC80110DEAFD2ACCF72
S1130E90C8010CDEABD2C80186DD882309F4A4CFD7
S1130EA080E00F900F900F900F900F90DF91CF91F3
S1130EB01F910F91FF90EF90DF90CF90BF90AF9074
S1130EC09F900895CF93DF93EC010FB6F8940F929F
S1130ED08D8D8F3F09F41D8E8E8D8F3F09F41E8EEC
S1130EE00F900FBE8A8D811103C0CE01419694D319
S1130EF0CE01DCDDDF91CF910895E0910803F091FC
S1130F0009038081811107C08FEF9FEF9093E00266
S1130F108093DF020895E0910803F09109030580AE
S1130F20F681E02D0680F781E02D828193819093F4
S1130F30E0028093DF020895FF920F931F93CF93F3
S1130F40DF93EC01F62E0091E7021091E802809104
S1130F5040039091410302968CDBCF3F8FEFD8077B
S1130F6061F4FF2051F060914003709141036E5F82
S1130F707F4F8AEE92E02BDB2DC0C00FD11FE09192
S1130F804003F0914103D383C283C017D10760F4B7
S1130F90609140037091410380910603909107038F
S1130FA06E5F7F4F35DB16C0609140037091410343
S1130FB080910803909109036E5F7F4F29DB809134
S1130FC0DF029091E002C817D90720F4D093E00221
S1130FD0C093DF02DF91CF911F910F91FF9008958D
S1130FE04F925F926F927F928F929F92AF92BF9235
S1130FF0CF92DF92EF92FF920F93CF93DF934C0146
S11310006B015A012901CA01B2DA3C01892B09F4A6
S1131010E4C08CE290E0ABDAEC01892B99F0788E95
S11310206F8AA50165EA70E0C3010E94951C81E006
S1131030A81AB1088F89988DA80EB91EC114D104BD
S113104021F41FC0C301A4DAC8C0D6018C91898FD2
S11310508C918823A1F0AE01465E5F4FF601319674
S1131060B8E0CB0ED11CCF012191DA012D93AD0153
S1131070DC018C91882319F0EC15FD05A1F718A269
S113108001C0198E043008F003E00E8B0BA31CA2E0
S11310906E01B2E0CB0ED11CC60195DACE010C96DE
S11310A092DAD987C88784E090E0801B91099D87F4
S11310B08C87DB8BCA8B1EA21DA21FA218A619A6A1
S11310C01AA61BA6A201B401C501FADA9983888382
S11310D0E114F10419F0F701D183C0830FB6F89439
S11310E00F928091E9028F5F8093E902809140031F
S11310F090914103892B89F5D0934103C093400318
S11311008091E902813009F038C08CE193E04DDA36
S113111085E293E04ADA8EE293E047DA87E393E0EC
S113112044DA83E193E041DA8AE093E03EDA8DEF3A
S113113092E03BDA84EF92E038DA8AEE92E035DA34
S113114083E193E090930903809308038AE093E09A
S1131150909307038093060310C08091E5028111E8
S11311600CC0E0914003F091410396898E89891760
S113117020F0D0934103C09340038091E1028F5F3C
S11311808093E10289A38E899091E602981710F466
S11311908093E60290E09C01220F331F220F331F3D
S11311A0220F331F820F931FB601845E9C4F0FDA08
S11311B00F900FBE8091E502882359F0E09140031F
S11311C0F091410396898E89981728F427DB81E0F2
S11311D005C081E003C081E001C08FEFDF91CF91B2
S11311E00F91FF90EF90DF90CF90BF90AF909F90C2
S11311F08F907F906F905F904F900895EF92FF9241
S11312000F930F2EFDEDEF2EF2E0FF2EF02D00E0F8
S113121020E030E040EC50E060E572E08EE491E0E4
S1131220DFDE8130C1F440D38130A9F4F8948FEF2C
S11312309FEF9093E0028093DF0281E08093E502C8
S11312401092E8021092E702E0914003F09141030A
S113125085A17DD9A7DA0F91FF90EF900895809131
S1131260DC028F5F8093DC0208950FB6F8940F922E
S11312708091E7029091E8020F900FBE0895CF92FB
S1131280DF92EF92FF920F931F93CF93DF9380919E
S1131290DC02811195C0E090E702F090E8028FEF44
S11312A0E81AF80AF092E802E092E702E114F10485
S11312B0B1F48091080390910903209106033091C1
S11312C00703309309032093080390930703809343
S11312D006038091E2028F5F8093E2020EDE80912A
S11312E0DF029091E002E816F90610F4D12C50C008
S11312F0D12CCC24C394E0910803F091090380819C
S1131300811107C08FEF9FEF9093E0028093DF027B
S11313103FC0E0910803F09109030580F681E02DB8
S1131320C681D7818A819B81E816F90628F49093B7
S1131330E0028093DF022CC08E010E5F1F4FC801B4
S113134098D98C899D89892B19F0CE010C9691D955
S11313508E899091E602981710F48093E60290E04B
S11313609C01220F331F220F331F220F331F820FC2
S1131370931FB801845E9C4F2AD9E0914003F091F9
S113138041039E898689981708F4B5CFDC2CB3CF26
S1131390E0914003F0914103868990E0FC01EE0F57
S11313A0FF1FEE0FFF1FEE0FFF1F8E0F9F1FFC018D
S11313B0E45EFC4F8081823048F0DD24D39406C083
S11313C08091E4028F5F8093E402D12C8091E30248
S11313D0882311F0DD24D3948D2DDF91CF911F91BB
S11313E00F91FF90EF90DF90CF900895DF92EF92EE
S11313F0FF920F931F93CF93DF930FB6F8940F923E
S11314008091DC0281508093DC028091DC028111A6
S113141059C08091E902811130C057C0D701159697
S1131420ED91FC911697C681D781CE010C9621D9F6
S11314308E010E5F1F4FC8011CD98E899091E60260
S1131440981710F48093E60290E09C01220F331F5A
S1131450220F331F220F331F820F931FB801845EA4
S11314609C4FB5D8E0914003F09141039E89868951
S1131470981768F0D092E3020AC0C0E0D0E00F2EC3
S1131480FDEFEF2EF2E0FF2EF02DDD24D394F701D3
S113149080818111C3CFCD2B09F02FDDC091E402EF
S11314A0CC2349F0D1E0EBDE8111D093E302C150AB
S11314B0D1F71092E4028091E302882329F0AED997
S11314C081E003C080E001C080E00F900FBEDF9197
S11314D0CF911F910F91FF90EF90DF90089580912D
S11314E0DC02882321F081E08093E30208951092C6
S11314F0E302E0914003F091410385A132D8A09129
S11315004003B0914103E0914003F09141032D91D8
S11315103C918789908D8217930758F0609140031E
S1131520709141038091400390914103675E7F4F26
S11315309BD22091E602822F90E0FC01EE0FFF1F68
S1131540EE0FFF1FEE0FFF1FE80FF91FE45EFC4FC5
S11315503081311111C02150822F90E0FC01EE0F37
S1131560FF1FEE0FFF1FEE0FFF1FE80FF91FE45ED2
S1131570FC4F3081332379F3AC01440F551F440FE2
S1131580551F440F551F480F591FDA01A45EBC4F65
S11315901196ED91FC9112970280F381E02D129641
S11315A0FC93EE931197415E5C4FE417F50729F421
S11315B042815381FD0152834183FC01EE0FFF1FE1
S11315C0EE0FFF1FEE0FFF1F8E0F9F1FFC01E45E47
S11315D0FC4F0180F281E02D868197819093410335
S11315E0809340032093E602E0914003F09141038D
S11315F085A10C94A7020895CF93DF93EB0160912A
S1131600400370914103645F7F4F02D861E0CE01D3
S113161093DCDF91CF9108950F931F93CF938B01A8
S1131620C42F6091400370914103645F7F4F0E9417
S1131630E702CC2311F00FEF1FEF6C2FC8017CDC05
S1131640CF911F910F9108950F931F93CF93DF9321
S1131650DC011596ED91FC911697C681D7818E0118
S1131660045F1F4FC80105D88091DC0281111CC0A2
S11316700A501109C8010E9439038E899091E6022B
S1131680981710F48093E60290E09C01220F331F18
S1131690220F331F220F331F820F931FB801845E62
S11316A09C4F0E94E70205C0B8018DEF92E00E94B2
S11316B0E702E0914003F09141039E8986898917EE
S11316C020F481E08093E30201C080E0DF91CF91B8
S11316D01F910F9108952091E202FC012083209133
S11316E0E7023091E802328321830895CF93DF9398
S11316F00FB6F8940F922091E7023091E802DB01D3
S11317004D915C914F3FBFEF5B07E9F0EC01E9813C
S1131710FA81A091E202B881BA1719F02E173F0797
S1131720A0F42E1B3F0B2417350740F4FB01421B8A
S1131730530B51834083CFDF80E008C0FB0111824B
S1131740108281E003C080E001C081E00F900FBEF1
S1131750DF91CF91089581E08093E3020895809111
S1131760E502882331F08091DC02882321F080E0B7
S1131770089581E0089582E008950F931F93CF9315
S1131780DF93FC01892B79F184A1815084A32689FC
S113179093A1291751F181112AC0EF018F010E5F26
S11317A01F4FC8010E9439038BA18E8B24E030E0C7
S11317B0281B31093D872C879091E602981710F475
S11317C08093E60290E09C01220F331F220F331F07
S11317D0220F331F820F931FB801845E9C4F0E9417
S11317E0E70281E005C080E003C080E001C080E042
S11317F0DF91CF911F910F910895FC017383628350
S1131800918780874617570790F0421B530B8485B6
S1131810958548175907E0F4BF016E5F7F4F8091AB
S11318204803909149030E94080380E008954217F9
S1131830530718F46217730768F4BF016E5F7F4F94
S113184080914A0390914B030E94080380E008951D
S113185081E0089581E008950FB6F8940F92809185
S1131860460390914703892BE1F485E593E00E94B8
S1131870D5028CE493E00E94D50285E593E0909331
S11318804B0380934A038CE493E090934903809341
S1131890480340E065E08AE094D99093470380933D
S11318A046030F900FBE0895EF92FF920F93D4DF7B
S11318B08091460390914703892B89F00F2EF4E41D
S11318C0EF2EF3E0FF2EF02D03E020E030E045E5BD
S11318D050E065E572E084E891E082DB01C080E0DD
S11318E00F91FF90EF9008950F931F93CF93DF9381
S11318F000D01F921F92CDB7DEB7E0914603F0915E
S11319004703309751F1D90169835B834A839D83EF
S11319108C836630D4F423DF823059F420E0A801AC
S1131920BE016F5F7F4F809146039091470377D943
S113193015C020E040E050E0BE016F5F7F4F809112
S11319404603909147036BD909C020E0AD01BE0165
S11319506F5F7F4FCF01F5D901C080E00F900F90EA
S11319600F900F900F90DF91CF911F910F910895D9
S1131970AF92BF92CF92DF92EF92FF920F931F9399
S1131980CF93DF936C0171DC7C01809142039091D1
S11319904303E816F90608F047C02FC00580F68116
S11319A0E02DA080B180C681D7818E010E5F1F4FCC
S11319B0C8010E943903E889F989CE0119958B89F8
S11319C082FF1BC08C859D858A0D9B1DA816B906B8
S11319D060F49B838A83D987C887B80180914A03BE
S11319E090914B030E94080308C000E010E020E03F
S11319F030E0A50160E0CE0177DFE0914A03F09189
S1131A004B0380818111CACF80914803909149038F
S1131A1090934B0380934A03F0934903E093480364
S1131A2081E0F601808302C0F6011082F092430344
S1131A30E0924203C701DF91CF911F910F91FF9074
S1131A40EF90DF90CF90BF90AF9008950895279ABC
S1131A502F9A2FEF80E792E0215080409040E1F7E9
S1131A6000C000001F9AF5CF279A2F9A2FEF87EA1C
S1131A7091E6215080409040E1F700C000001F9A99
S1131A80F5CF9F938F938DE592E09F938F930E9460
S1131A90E31C0F900F900F900F90089548D58093FA
S1131AA089038111FBCF86E092E070D5F7CFCAE6B7
S1131AB0D2E067D42FE78FEA92E021508040904033
S1131AC0E1F700C0000071D48FE39FE10197F1F7C3
S1131AD000C000008CD460938A0370938B038093BE
S1131AE08C0390938D0371D4262F372F462F572FB5
S1131AF0682F792F40938E0350938F036093900344
S1131B00709391039F938F933F932F9380918D03B1
S1131B108F9380918C038F9380918B038F9380910B
S1131B208A038F93DF93CF930E94E31C8DB79EB7F4
S1131B300A960FB6F8949EBF0FBE8DBFBACF0AD4D3
S1131B40811104C084E992E00C94F71C089561E4C7
S1131B507DE083E0BEC408950F2EF0E6EF2EF3E09F
S1131B60FF2EF02D05E020E030E040EC50E066EA86
S1131B7072E08EE49DE034DA0F2EFEE5EF2EF3E002
S1131B80FF2EF02D20E030E040EC50E063EB72E0FB
S1131B9087E59DE025DA80E00E9474167894D7DF0B
S1131BA0CEDF8DEC92E00E94F71C28DBFFCF2F9252
S1131BB03F924F925F926F927F928F929F92AF92D9
S1131BC0BF92CF92DF92EF92FF920F931F93CF9326
S1131BD0DF93CDB7DEB760970FB6F894DEBF0FBEC4
S1131BE0CDBF7C011B016A01FC011782168283812F
S1131BF081FF44C39E012F5F3F4F3901F701938159
S1131C00F10193FD859193FF81911F01882309F4CC
S1131C1031C3853239F493FD859193FF81911F017E
S1131C20853239F4B70190E00E94A71C5601650182
S1131C30E5CF10E0512C912CFFE1F915D8F08B324F
S1131C4079F038F4803279F08332A1F4F92DF0611F
S1131C502EC08D3261F0803369F4292D21602DC0AE
S1131C60392D3260932E892D8460982E2AC0E92D57
S1131C70E86015C097FC2DC020ED280F2A3088F4A9
S1131C8096FE06C03AE0139F200D1124122F19C0AE
S1131C908AE0589E200D1124522EE92DE0629E2EDA
S1131CA010C08E3231F496FCE5C2F92DF0649F2EFB
S1131CB008C08C3621F4292D2068922E02C0883663
S1131CC041F4F10193FD859193FF81911F018111ED
S1131CD0B3CF9BEB980F933020F4992D9061805EE5
S1131CE007C09BE9980F933008F066C1992D9F7E39
S1131CF096FF16E09F73992E853619F49064992EF9
S1131D0008C0863621F4392F3068932E02C0111191
S1131D10115097FE07C01C3350F444244394410EE1
S1131D2027E00BC0183038F027E017E005C027E0A3
S1131D309CE3492E02C0212F412C560184E0A80EB9
S1131D40B11CF6016081718182819381042DA3010C
S1131D500E94A91B6C01F981FC87F0FF02C0F3FF0C
S1131D6006C091FC06C092FE06C000E205C00DE26A
S1131D7003C00BE201C000E08C858C7019F00111E6
S1131D805AC29BC297FE10C04C0CFC85F4FF04C0E1
S1131D908A81813309F44A94141474F528E02415D3
S1131DA078F588E0482E2CC096FC2AC0812F90E05C
S1131DB08C159D059CF03CEFC3163FEFD30674F0E1
S1131DC0892D8068982E0AC0E2E0F0E0EC0FFD1F38
S1131DD0E10FF11D8081803319F411501111F4CFFA
S1131DE097FE0EC044244394410E812F90E0C81600
S1131DF0D9062CF41C1904C04424439401C010E0F7
S1131E0097FE06C01C141D0434F4C601019605C0D7
S1131E1085E090E002C081E090E001110196112379
S1131E2031F0212F30E02F5F3F4F820F931F252D7C
S1131E3030E08217930714F4581A01C0512C892DED
S1131E40897049F4552039F0B70180E290E00E948E
S1131E50A71C5A94F7CF002329F0B701802F90E0F4
S1131E600E94A71C93FC09C0552039F0B70180E3F8
S1131E7090E00E94A71C5A94F7CF97FE4CC04601ED
S1131E80D7FE02C0812C912CC60188199909F3014F
S1131E90E80FF91FFE87ED87960124193109388B65
S1131EA02F87012F10E01195019511093FEF83163B
S1131EB0930629F4B7018EE290E00E94A71CC8148F
S1131EC0D9044CF08F8598898815990524F4ED85FB
S1131ED0FE85818101C080E3F1E08F1A91082D8590
S1131EE03E852F5F3F4F3E872D87801691062CF04D
S1131EF0B70190E00E94A71CD9CFC814D90441F4BB
S1131F009A81963320F4953319F43C8534FF81E3A8
S1131F10B70190E04EC08A81813319F09C859F7E81
S1131F209C87B70190E00E94A71C111105C094FC86
S1131F3018C085E690E017C0B7018EE290E00E94D9
S1131F40A71C1E5F82E001E0080FF301E80FF11DFA
S1131F508081B70190E00E94A71C802F0113F3CF6A
S1131F60E6CF85E490E0B7010E94A71CD7FC06C029
S1131F70C114D10441F4EC85E4FF05C0D194C194AB
S1131F80D1088DE201C08BE2B70190E00E94A71C4A
S1131F9080E32AE0C216D1042CF08F5FFAE0CF1A56
S1131FA0D108F7CFB70190E00E94A71CB701C60182
S1131FB0C0960E94A71C54C1833631F0833779F050
S1131FC0833509F056C020C0560132E0A30EB11C7F
S1131FD0F6018081898301E010E0630112C056019B
S1131FE0F2E0AF0EB11CF601C080D18096FE03C0B2
S1131FF0612F70E002C06FEF7FEFC6010E949C1C4E
S11320008C01F92DFF7714C0560122E0A20EB11CF9
S1132010F601C080D18096FE03C0612F70E002C03B
S11320206FEF7FEFC6010E94811C8C01F92DF068CF
S11320309F2EF3FD1AC0852D90E008171907A8F408
S1132040B70180E290E00E94A71C5A94F4CFF601F5
S113205097FC859197FE81916F01B70190E00E94F2
S1132060A71C51105A94015011090115110579F753
S1132070F7C0843611F0893661F5560197FE09C020
S113208024E0A20EB11CF6016081718182819381EA
S11320900AC0F2E0AF0EB11CF60160817181072E17
S11320A0000C880B990BF92DFF769F2E97FF09C022
S11320B090958095709561957F4F8F4F9F4FF068F5
S11320C09F2E2AE030E0A3010E94271DC82EC618C7
S11320D03FC0092D853721F40F7E2AE030E01DC072
S11320E0097F8F3691F018F4883559F0C3C08037D2
S11320F019F0883711F0BEC0006104FF09C0046004
S113210007C094FE08C0066006C028E030E005C0A1
S113211020E130E002C020E132E0560107FF09C0AF
S113212084E0A80EB11CF6016081718182819381E3
S113213008C0F2E0AF0EB11CF6016081718180E04D
S113214090E0A3010E94271DC82EC6180F77902E79
S113215096FE0BC0092D0E7FC11650F494FE0AC0E2
S113216092FC08C0092D0E7E05C0DC2C092D03C08D
S1132170DC2C01C0D12E04FF0DC0FE01EC0DF11DBD
S11321808081803311F4097E09C002FF06C0D39414
S1132190D39404C0802F867809F0D39403FD11C032
S11321A000FF06C01C2DD51480F4150D1D190DC09B
S11321B0D51458F4B70180E290E00E94A71CD39490
S11321C0F7CFD51410F45D1801C0512C04FF10C0D2
S11321D0B70180E390E00E94A71C02FF17C001FD35
S11321E003C088E790E002C088E590E0B7010CC026
S11321F0802F867859F001FF02C08BE201C080E293
S113220007FD8DE2B70190E00E94A71CC11638F4C7
S1132210B70180E390E00E94A71C1150F7CFCA9445
S1132220F301EC0DF11D8081B70190E00E94A71C21
S1132230C110F5CF15C0F4E0F51560F584E0581A27
S113224093FE1FC0011127C02C8523FF2AC00AE971
S113225011E0392D3071932EF8018491811124C03D
S1132260552009F4E4CCB70180E290E00E94A71C59
S11322705A94F6CFF7018681978126C08FEF9FEF9E
S113228023C0B70180E290E00E94A71C5A94511029
S1132290F8CFD8CF512CB701802F90E00E94A71C13
S11322A0D3CF0EE911E0D5CF91108052B70190E061
S11322B00E94A71C0F5F1F4FCFCF23E0251510F4FA
S11322C083E0BDCF512CC0CF60960FB6F894DEBF2B
S11322D00FBECDBFDF91CF911F910F91FF90EF9073
S11322E0DF90CF90BF90AF909F908F907F906F9032
S11322F05F904F903F902F9008956530F1F4FA016C
S113230080818F7390E0982F88272181822B90936E
S11323100B0280930A028281F0E48F9FC001112492
S1132320FA01238126952695822B909309028093A6
S1132330080281E0809362030895643051F080E0E4
S113234090E4909309028093080290930B02809387
S11323500A0208950F931F930DE711E120E034E280
S113236044EF50E060E087E2F9D4909364038093F3
S1132370630321E0892B09F020E0822F1F910F9144
S113238008958091630390916403009751F040E0B5
S113239060E070E034D5843031F41092620380E060
S11323A0089582E0089583E00895809163039091F5
S11323B06403009731F064E06DD5853021F083E04B
S11323C0089582E0089580E0089560910A02709172
S11323D00B0280E090E063D720E030E048EC52E468
S11323E0ECD720E038EF4FE756E4C5C60895609176
S11323F008027091090280E090E051D720E030E0BB
S113240045E253E4DAD720E038EF4FE756E4B3D699
S113241020E030E040E252E449C608958091680328
S1132420860F8093680390916B03913079F028F0C4
S11324309230A9F0933019F108956F3F09F048C024
S11324401092680381E080936B030895663809F065
S11324503FC01092670382E080936B030895E0917C
S1132460670381E08E0F80936703F0E0EB59FC4F24
S11324706083823069F583E080936B0308959091C3
S1132480670321E0290F20936703963009F5811132
S11324900EC0E5E6F3E0808190E0982F8827218143
S11324A0820F911D90936D0380936C0304C010926E
S11324B06D0310926C0310926B03E0916903F09129
S11324C06A03309729F080916C0390916D031995FC
S11324D008958F929F92AF92CF92EF920F93CF93E2
S11324E0DF93EB010F2EFEE08F2EF2E19F2EF02DF5
S11324F06894AA24A4F86894CC24C4F8E12C00E0DD
S113250023E040E855E260E070E051D090936F031F
S113251080936E03D0936A03C0936903DF91CF91D4
S11325200F91EF90CF90AF909F908F900895CF939D
S1132530DF93CDB7DEB729970FB6F894DEBF0FBE91
S1132540CDBF89E0E3E2F2E09E012F5F3F4FD90166
S113255001900D928A95E1F710926D0310926C032D
S113256080916E0390916F03009731F0422F532FA7
S113257069E0D8D080E001C082E029960FB6F894D3
S1132580DEBF0FBECDBFDF91CF91089520916C03C4
S113259030916D032115310529F4FC01118210825B
S11325A081E00895FC013183208380E008952F9217
S11325B03F924F925F926F927F928F929F92AF92CF
S11325C0CF92EF92FF920F931F93CF93DF93CDB7E8
S11325D0DEB7F82E2A013B0188E090E095D78C0104
S11325E08F2D90E0880F991FFC01E059FC4F118357
S11325F00083FC01E45FFD4F80819181D8018D93BC
S11326009C936C2D70E084E090E064D71C0161E041
S113261070E086E090E05ED77C014C2DB1012AD5B4
S1132620F801F582E4826A2D70E084E090E052D7EC
S11326301C0161E070E086E090E04CD77C014A2DFB
S1132640B10118D5D8011396FC92EE921297179601
S11326509C928E921697FFB6F894ED91FC91119787
S113266036978081826080838D909C90C301B201F3
S113267016D620E030E040E051E49FD69B01AC0147
S113268060E074E284E79BE476D520E030E040E843
S11326905FE30CD5D8D5F40132976083D801ED916E
S11326A0FC911197359788E98083ED91FC913497DB
S11326B086E08083FFBEC801DF91CF911F910F9107
S11326C0FF90EF90CF90AF909F908F907F906F90FE
S11326D05F904F903F902F900895CF93DF93EC013C
S11326E0EA81FB81938182812581981B92238481D5
S11326F09817A1F0938126952923A081B181A20F77
S1132700B11D6C939F5F258192239383E881F981A6
S1132710359780818062808380E001C082E0DF9110
S1132720CF910895EF92FF920F931F93CF93DF936E
S11327307C01DC011296ED91FC91139793818281C7
S1132740981B858198238481891B861798F16623B9
S113275041F1842F952FDC016150462F50E04F5FEB
S11327605F4F480F591FE701EA81FB819381828102
S11327702581981B92238481981779F08C919381F9
S113278026952923608171818B01020F111DE801B7
S113279088839F5F8581982393831196A417B50737
S11327A011F7D701ED91FC91359780818062808388
S11327B080E001C082E0DF91CF911F910F91FF90E3
S11327C0EF900895DC011496ED91FC911597938197
S11327D08281981789F09281858186958923A081C9
S11327E0B181A80FB11D8C91DB018C939F5F858112
S11327F09823928380E0089583E008951F920F92B6
S11328000FB60F9211240BB60F922F933F934F9351
S11328105F936F937F938F939F93AF93BF93CF9364
S1132820DF93EF93FF93A0917003B091710310971E
S113283011F16091C6001496ED91FC911597938166
S113284082812581981B92238481981761F083816A
S113285026952823C081D181C20FD11D68838F5F43
S11328609581892383831696ED91FC911797309770
S113287011F0CD011995FF91EF91DF91CF91BF91A7
S1132880AF919F918F917F916F915F914F913F9104
S11328902F910F900BBE0F900FBE0F901F901895A5
S11328A01F920F920FB60F9211240BB60F922F9313
S11328B08F939F93AF93BF93EF93FF93E091700334
S11328C0F09171033097B9F00280F381E02D938188
S11328D082819817B1F092818581282F269529232A
S11328E0A081B181A20FB11D2C919F5F89238283A6
S11328F02093C6000BC0E1ECF0E080818F7D8083E3
S113290005C0E1ECF0E080818F7D8083FF91EF9141
S1132910BF91AF919F918F912F910F900BBE0F900C
S11329200FBE0F901F9018951F920F920FB60F9223
S113293011240BB60F922F933F934F935F936F9392
S11329407F938F939F93AF93BF93CF93DF93EF9333
S1132950FF93A0917203B0917303109711F16091EA
S1132960CE001496ED91FC91159793818281258177
S1132970981B92238481981761F0838126952823DC
S1132980C081D181C20FD11D68838F5F9581892356
S113299083831696ED91FC911797309711F0CD0132
S11329A01995FF91EF91DF91CF91BF91AF919F91D5
S11329B08F917F916F915F914F913F912F910F90E4
S11329C00BBE0F900FBE0F901F9018951F920F9281
S11329D00FB60F9211240BB60F922F938F939F93E0
S11329E0AF93BF93EF93FF93E0917203F09173035E
S11329F03097B9F00280F381E02D9381828198179A
S1132A00B1F092818581282F26952923A081B18157
S1132A10A20FB11D2C919F5F892382832093CE0046
S1132A200BC0E9ECF0E080818F7D808305C0E9EC88
S1132A30F0E080818F7D8083FF91EF91BF91AF9112
S1132A409F918F912F910F900BBE0F900FBE0F90FF
S1132A501F9018951F920F920FB60F9211240BB668
S1132A600F922F933F934F935F936F937F938F9323
S1132A709F93AF93BF93CF93DF93EF93FF93A09173
S1132A807403B0917503109711F16091D6001496F8
S1132A90ED91FC911597938182812581981B922356
S1132AA08481981761F0838126952823C081D18180
S1132AB0C20FD11D68838F5F958189238383169606
S1132AC0ED91FC911797309711F0CD011995FF9175
S1132AD0EF91DF91CF91BF91AF919F918F917F91B2
S1132AE06F915F914F913F912F910F900BBE0F907B
S1132AF00FBE0F901F9018951F920F920FB60F9252
S1132B0011240BB60F922F938F939F93AF93BF9380
S1132B10EF93FF93E0917403F09175033097B9F04C
S1132B200280F381E02D938182819817B1F0928124
S1132B308581282F26952923A081B181A20FB11D5B
S1132B402C919F5F892382832093D6000BC0E1EDF3
S1132B50F0E080818F7D808305C0E1EDF0E080812D
S1132B608F7D8083FF91EF91BF91AF919F918F9162
S1132B702F910F900BBE0F900FBE0F901F901895C2
S1132B801F920F920FB60F9211240BB60F922F9330
S1132B903F934F935F936F937F938F939F93AF93E1
S1132BA0BF93CF93DF93EF93FF93A0917603B091FC
S1132BB07703109711F1609136011496ED91FC9111
S1132BC01597938182812581981B9223848198177C
S1132BD061F0838126952823C081D181C20FD11D44
S1132BE068838F5F9581892383831696ED91FC9189
S1132BF01797309711F0CD011995FF91EF91DF915F
S1132C00CF91BF91AF919F918F917F916F915F9180
S1132C104F913F912F910F900BBE0F900FBE0F90CD
S1132C201F9018951F920F920FB60F9211240BB696
S1132C300F922F938F939F93AF93BF93EF93FF9331
S1132C40E0917603F09177033097B9F00280F38135
S1132C50E02D938182819817B1F092818581282F8C
S1132C6026952923A081B181A20FB11D2C919F5FCC
S1132C7089238283209336010BC0E1E3F1E0808154
S1132C808F7D808305C0E1E3F1E080818F7D8083C7
S1132C90FF91EF91BF91AF919F918F912F910F90E1
S1132CA00BBE0F900FBE0F901F901895CF93DF931C
S1132CB01F92CDB7DEB7BE016F5F7F4F809178035F
S1132CC0909179037FDD8111F6CF898190E00F9097
S1132CD0DF91CF910895682F8091780390917903C3
S1132CE0FCDC80E090E008958F929F92AF92CF92A7
S1132CF0EF920F93812C912C6894AA24A7F86894DE
S1132D00CC24C7F8E12C00E023E040E051EE60E081
S1132D1070E04DDC9093790380937803E6E9F3E067
S1132D2084E192E091838083938382830F91EF9077
S1132D30CF90AF909F908F900895809188038111D8
S1132D400CC08CE08093B8008FEF8093BB0084E0CC
S1132D508093BC0081E0809388030895AF92BF9272
S1132D60CF92DF92EF92FF920F931F93CF93DF9353
S1132D70A82EB62E69017A0184E090E0C5D3EC0157
S1132D80892B61F1A88281E0B81212C0C701B60193
S1132D9020EA36E841E050E073D3DA01C9014097F4
S1132DA0A109B109B695A79597958795898311C00F
S1132DB0C701B60120E83AE146E050E061D3DA0108
S1132DC0C9014097A109B109B695A795979587952B
S1132DD089831B830A838C2F9D2F02C080E090E09F
S1132DE0DF91CF911F910F91FF90EF90DF90CF90E3
S1132DF0BF90AF9008958091BC0081700895FF92B8
S1132E000F931F93CF93DF930097C9F14A30C8F50E
S1132E10F42E8B01EC01EFDF811135C080917B032F
S1132E2090917C03C817D90741F087DF898180938B
S1132E30B800D0937C03C0937B0381E08F0D809313
S1132E407D038881880F80937E03FF2081F0F80141
S1132E50AFE7B3E04FEF4F0D642F70E06F5F7F4F2C
S1132E60600F711F81918D93E617F707D9F788EFEB
S1132E708093220285EA8093BC0081E005C086E04D
S1132E8003C087E001C082E0DF91CF911F910F91D1
S1132E90FF9008951F93CF93DF93009729F16B3030
S1132EA028F5162FEC01A7DF811122C080917B0346
S1132EB090917C03C817D90741F03FDF8981809343
S1132EC0B800D0937C03C0937B0310937D03888167
S1132ED0880F816080937E0388EF8093220285EAC5
S1132EE08093BC0081E005C086E003C087E001C098
S1132EF082E0DF91CF911F9108951F920F920FB638
S1132F000F9211240BB60F922F933F934F935F931D
S1132F106F937F938F939F93AF93BF93EF93FF939D
S1132F20E091B9008E2F90E0FC013897E135F1056E
S1132F3008F075C08827E458FF4F8F4FC3C2109222
S1132F407A03E0917A0380917D03E81770F481E0BD
S1132F508E0F80937A03F0E0E258FC4F80818093D7
S1132F60BB0085E88093BC0072C084E98093BC00F8
S1132F7080917B0390917C03DC011296ED91FC918E
S1132F801397309709F463C020E040E050E064E018
S1132F9019955DC0E0917A0381E08E0F80937A03E6
S1132FA08091BB00F0E0E258FC4F80838091B9002F
S1132FB0803411F410927A0320917A0330E08091E6
S1132FC07D0390E001972817390724F485EC80935A
S1132FD0BC003DC085E88093BC0039C08091BB0033
S1132FE0E0917A03F0E0E258FC4F808384E9809317
S1132FF0BC0080917B0390917C03DC011296ED91DF
S1133000FC911397309719F120917D034EE753E01B
S113301065E019951CC085EA8093BC0018C08091B6
S1133020B9008093220284E08093BC0080917B03EA
S113303090917C03DC011296ED91FC9113973097EB
S113304031F020E040E050E0609122021995FF91B8
S1133050EF91BF91AF919F918F917F916F915F910C
S11330604F913F912F910F900BBE0F900FBE0F9079
S11330701F901895FC01411101C067D3842F90E083
S11330809C012150310982239323892B09F05DD3BC
S1133090413808F05AD3128213824483440F4150BA
S11330A045837183608380E090E008955058BB2786
S11330B0AA270ED048C139D130F03ED120F031F4E6
S11330C09F3F11F41EF42EC10EF4E095E7FB24C1DA
S11330D0E92F4AD180F3BA1762077307840795076B
S11330E018F071F49EF562C10EF4E0950B2EBA2F20
S11330F0A02D0B01B90190010C01CA01A0011124FA
S1133100FF27591B99F0593F50F4503E68F11A16A5
S1133110F040A22F232F342F4427585FF3CF469536
S113312037952795A795F0405395C9F77EF41F1658
S1133130BA0B620B730B840BBAF09150A1F0FF0F22
S1133140BB1F661F771F881FC2F70EC0BA0F621F0E
S1133150731F841F48F4879577956795B795F795FE
S11331609E3F08F0B3CF9395880F08F09927EE0F90
S11331709795879508950CD0E6C0DED040F0D5D061
S113318030F021F45F3F19F0C7C0511110C1CAC01B
S1133190EBD098F39923C9F35523B1F3951B550B41
S11331A0BB27AA2762177307840738F09F5F5F4F16
S11331B0220F331F441FAA1FA9F333D00E2E3AF057
S11331C0E0E830D091505040E695001CCAF729D071
S11331D0FE2F27D0660F771F881FBB1F26173707C0
S11331E04807AB07B0E809F0BB0B802DBF01FF27F0
S11331F093585F4F2AF09E3F510568F08DC0D7C0A9
S11332005F3FECF3983EDCF3869577956795B79529
S1133210F7959F5FC9F7880F911D9695879597F944
S11332200895E1E0660F771F881FBB1F62177307BD
S11332308407BA0720F0621B730B840BBA0BEE1FD2
S113324088F7E095089598D088F09F5790F0B92FAB
S11332509927B751A0F0D1F0660F771F881F991FE7
S11332601AF0BA95C9F712C0B13081F09FD0B1E01D
S113327008959CC0672F782F8827B85F39F0B93F2D
S1133280CCF3869577956795B395D9F73EF49095E9
S11332908095709561957F4F8F4F9F4F0895E89467
S11332A009C097FB3EF490958095709561957F4F8A
S11332B08F4F9F4F9923A9F0F92F96E9BB27939538
S11332C0F695879577956795B795F111F8CFFAF448
S11332D0BB0F11F460FF1BC06F5F7F4F8F4F9F4F79
S11332E016C0882311F096E911C0772321F09EE8D7
S11332F0872F762F05C0662371F096E8862F70E03D
S113330060E02AF09A95660F771F881FDAF7880F16
S11333109695879597F9089597F99F6780E870E0E7
S113332060E008959FEF80EC089500240A94161637
S1133330170618060906089500240A94121613069F
S1133340140605060895092E0394000C11F488232D
S113335052F0BB0F40F4BF2B11F460FF04C06F5F49
S11333607F4F8F4F9F4F089557FD9058440F551F1F
S113337059F05F3F71F04795880F97FB991F61F0F3
S11333809F3F79F087950895121613061406551F6A
S1133390F2CF4695F1DF08C0161617061806991FD6
S11333A0F1CF86957105610508940895E894BB27CB
S11333B066277727CB0197F908950BD0C4CFB5DFE3
S11333C028F0BADF18F0952309F0A6CFABCF11246B
S11333D0EECFCADFA0F3959FD1F3950F50E0551FB0
S11333E0629FF001729FBB27F00DB11D639FAA2756
S11333F0F00DB11DAA1F649F6627B00DA11D661FA5
S1133400829F2227B00DA11D621F739FB00DA11DC5
S1133410621F839FA00D611D221F749F3327A00D7F
S1133420611D231F849F600D211D822F762F6A2F1B
S113343011249F5750408AF0E1F088234AF0EE0FA0
S1133440FF1FBB1F661F771F881F91505040A9F7AD
S11334509E3F510570F060CFAACF5F3FECF3983EDA
S1133460DCF3869577956795B795F795E7959F5F14
S1133470C1F7FE2B880F911D9695879597F90895AE
S1133480A1E21A2EAA1BBB1BFD010DC0AA1FBB1F64
S1133490EE1FFF1FA217B307E407F50720F0A21BD6
S11334A0B30BE40BF50B661F771F881F991F1A9443
S11334B069F760957095809590959B01AC01BD016D
S11334C0CF010895EE0FFF1F881F8BBF0790F69161
S11334D0E02D19940F931F93CF93DF93869F800160
S11334E0879F100D969F100D1124C8010DD0EC017B
S11334F0009721F0A80160E070E017D2CE01DF91BF
S1133500CF911F910F9108950F931F93CF93DF9342
S11335108230910510F482E090E0E0919403F09100
S1133520950320E030E0A0E0B0E0309719F140814D
S113353051810281138148175907C8F084179507F0
S113354069F4109731F012960C93129713961C930A
S113355027C0009394031093950322C021153105CD
S113356019F04217530718F49A01BD01EF01DF0166
S1133570F801DBCF21153105F9F0281B390B243074
S1133580310580F48A819B816115710521F0FB016D
S11335909383828304C09093950380939403FE01E4
S11335A0329644C0FE01E20FF31F8193919322509F
S11335B03109398328833AC02091920330919303CF
S11335C0232B41F4209102023091030230939303A0
S11335D020939203209100023091010221153105BC
S11335E041F42DB73EB74091040250910502241BCB
S11335F0350BE0919203F0919303E217F307A0F4E3
S11336002E1B3F0B2817390778F0AC014E5F5F4F34
S11336102417350748F04E0F5F1F509393034093D0
S113362092038193919302C0E0E0F0E0CF01DF9137
S1133630CF911F910F910895CF93DF93009709F4D1
S113364081C0FC01329713821282A0919403B0913D
S11336509503109781F420813181820F931F20916B
S11336609203309193032817390751F5F09393038C
S1133670E093920367C0ED0120E030E0CE17DF074E
S113368040F44A815B819E0141155105F1F0EA0144
S1133690F5CFD383C28340815181840F951FC8170E
S11336A0D90759F488819981840F951F02969183D3
S11336B080838A819B81938382832115310529F438
S11336C0F0939503E09394033DC0E901FB83EA83FF
S11336D049915991C40FD51FEC17FD0761F48081FE
S11336E09181840F951F0296E901998388838281D1
S11336F093819B838A83E0E0F0E012968D919C9104
S11337001397009719F0FD01DC01F7CF8D919C917F
S113371011979D012E5F3F4F820F931F20919203BB
S1133720309193032817390769F4309729F41092DC
S113373095031092940302C013821282B0939303F0
S1133740A0939203DF91CF91089581E090E0F894E3
S1133750DCC1283008F027E03327DA01990F311D46
S113376087FD916000966105710539F432602E5F22
S11337703D9330E32A95E1F708959F3F30F0803878
S11337807105610509F03C5F3C5F3D93913008F0A1
S11337908068911DDF93CF931F930F93FF92EF9255
S11337A0192F987F9695E92F96959695E90FFF27FF
S11337B0E450FE4F99273327EE24FF24A701E701A5
S11337C005900894079428F4360FE71EF81E491F45
S11337D0511D660F771F881F991F0694A1F7059046
S11337E0079428F4E70EF81E491F561FC11D770FD2
S11337F0881F991F661F0694A1F70590079428F463
S1133800F80E491F561FC71FD11D880F991F661F29
S1133810771F0694A1F70590079420F4490F561FCB
S1133820C71FD81F990F661F771F881F0694A9F713
S113383084911095177041F0D695C7955795479583
S1133840F794E7941A95C1F7E2EAF1E068941590C9
S1133850159135916591959105907FE27395E118E5
S1133860F10A430B560BC90BD009C0F7E10CF11E4A
S1133870431F561FC91FD01D7EF4703311F48A955F
S1133880E6CFE894015030F0080F0AF4002702173D
S113389008F4202F2395022F7A3328F079E37D93BF
S11338A02A95E9F710C07D932A9589F60694979591
S11338B06795379517951794E118F10A430B560B42
S11338C0C90BD00998F023957E9173957A3308F04B
S11338D070E37C932013B8F77E9170617D9330F090
S11338E0839571E37D9370E32A95E1F71124EF90BA
S11338F0FF900F911F91CF91DF91992787FD9095AC
S11339000895FC010590615070400110D8F780952E
S113391090958E0F9F1F0895FB01DC0102C001905A
S11339200D9241505040D8F70895DC0101C06D93C9
S113393041505040E0F70895FC01615070400190FF
S11339400110D8F7809590958E0F9F1F08950F93BF
S11339501F93CF93DF93FB01238121FD03C08FEFDE
S11339609FEF2CC022FF16C04681578124813581E8
S11339704217530744F4A081B1819D012F5F3F4F4B
S1133980318320838C93268137812F5F3F4F378388
S1133990268314C08B01EC01FB010084F185E02D2A
S11339A01995892BE1F6D80116968D919C9117975C
S11339B0019617969C938E931697CE01DF91CF9123
S11339C01F910F910895CF93DF93CDB7DEB7AE016A
S11339D04A5F5F4FFA0161917191AF018091980341
S11339E0909199030E94D70DDF91CF9108950F9381
S11339F01F93CF93DF93E0919803F0919903238170
S1133A0021FF1BC08C01D0E0C0E0F80181918F013F
S1133A106091980370919903DB011896ED91FC91E4
S1133A201997882331F01995892B79F3DFEFCFEFBC
S1133A30ECCF8AE01995892B19F08FEF9FEF02C024
S1133A408D2F9C2FDF91CF911F910F910895FA0133
S1133A50AA27283051F1203181F1E8946F936E7FC9
S1133A606E5F7F4F8F4F9F4FAF4FB1E03ED0B4E0BA
S1133A703CD0670F781F891F9A1FA11D680F791FFB
S1133A808A1F911DA11D6A0F711D811D911DA11D0C
S1133A9020D009F468943F912AE0269F112430191C
S1133AA0305D3193DEF6CF010895462F4770405DB7
S1133AB04193B3E00FD0C9F7F6CF462F4F70405D66
S1133AC04A3318F0495D31FD4052419302D0A9F7C1
S1133AD0EACFB4E0A6959795879577956795BA95BB
S1133AE0C9F700976105710508959B01AC010A2E81
S1133AF006945795479537952795BA95C9F7620F58
S1113B00731F841F951FA01D0895F894FFCF16
S1133B0E00009C032000640000400040C600CE006C
S1133B1ED600360100000003000000006B16561696
S1133B2E0000F8FF0186000000000079FF0179A073
S1133B3E00000000E6FF0179000000000086FF018E
S1133B4E87000000000078FF0188000000000000DC
S1133B5E49444C4500546D722053766300434F32F2
S1133B6E206973202564200A200074656D70206915
S1133B7E732025342E3266432020616E64206875CE
S1133B8E6D69646974792069732025322E32662535
S1133B9E25200A0044726976657220637265617429
S1133BAE6564204F4B004D65617375726520434FFC
S1133BBE3220004D6561737572652054656D7020F9
S1133BCE616E642048756D69646974790050726F12
S10F3BDE6772616D2053746172656400AD
S9030000FC
