S00C0000494D53312E73726563FE
S113000086C20000A5C20000A3C20000A1C2000075
S11300109FC200009DC200009BC2000099C2000064
S113002097C2000095C2000093C2000091C2000074
S1130030C0C400008DC200008BC2000089C2000051
S113004087C2000085C2000083C2000081C2000094
S11300507FC200007DC200007BC2000079C20000A4
S113006077C200000C9429230C947B2371C20000F6
S11300706FC200006DC200006BC2000069C20000C4
S113008067C2000065C2000063C2000061C20000D4
S11300900C94BF230C9411245BC200000C94A92679
S11300A057C2000055C2000053C2000051C20000F4
S11300B04FC200004DC200004BC2000049C2000004
S11300C047C2000045C2000043C200000C945524FE
S11300D00C94A7243DC200000C94EB240C943D2501
S11300E037C2000016021602160245024D025C02D7
S11300F01602160245024D02CB263B273B273B271F
S11301003B273B273B273B27CB263B273B273B274C
S11301103B273B273B273B27CD263B273B273B273A
S11301203B273B273B273B273B273B273B273B27BB
S11301303B273B273B273B27CD263B273B273B271A
S11301403B273B273B273B273B273B273B273B279B
S11301503B273B273B273B2737273B273B273B278F
S11301603B273B273B273B2702273B273B273B27B4
S11301703B273B273B273B273B273B273B273B276B
S11301803B273B273B273B27F6263B273B273B27A1
S11301903B273B273B273B271A276E616E00696E7E
S11301A0660000407A10F35A00A0724E180900103D
S11301B0A5D4E80000E87648170000E40B540200D8
S11301C000CA9A3B000000E1F50500008096980003
S11301D0000040420F000000A0860100000010272C
S11301E000000000E80300000000640000000000BC
S11301F00A00000000000100000000002C76D888EE
S1130200DC674F0823DFC1DFAE59E1B1B796E5E300
S1130210E453C63AE651997696E8E6C28426EB8919
S11302208C9B62ED407C6FFCEFBC9C9F40F2BAA5B6
S11302306FA5F490055A2AF75C936B6CF9676DC14E
S11302401BFCE0E40D47FEF520E6B500D0ED902E52
S11302500300943577050080841E080000204E0AB0
S1130260000000C80C333333330F986E12831141EE
S1130270EF8D2114893BE65516CFFEE6DB18D184B9
S11302804B381BF77C1D901DA4BBE42420328472E0
S11302905E228100C9F124ECA1E53D270EE719E0B7
S11302A00F2EF6EAEF2EF9E0FF2EF02D80917D0956
S11302B0882311F10FB6F8940F92D8011596ED9199
S11302C0FC911697C681D781CE010296D8D1809130
S11302D0730981508093730980917D0981508093C3
S11302E07D090F900FBE8F89988D56D1CE0154D1C0
S11302F080917D098111DECFF7018081823008F081
S113030093D20E942113D2CFCF93DF9300D000D099
S1130310CDB7DEB7CE0101964C0144244394E12CC1
S1130320F12C512CC82ED92CE091D409F091D50987
S11303308081882309F4D7C00580F681E02DA08050
S1130340B1800E94570CC4010E94B3128C018981B0
S1130350811148C00A151B05B0F10E94210DE091DE
S1130360D409F091D5090580F681E02D6680778067
S1130370C301029684D1D30153968C91539782FF83
S113038017C01C966D917C911D976A0D7B1D95017C
S1130390A801C3010E94BE11882369F00E2D1F2DF0
S11303A02E2D3F2DA501652DC3010E946C1203C0A3
S11303B08E7FF301838BD3015096ED91FC9151977D
S11303C0C301199584C0452DB501601B710B809143
S11303D0D0099091D1095BD60E94210D811177C07B
S11303E023D275C00E94210D72C0898188230CF428
S11303F06EC0AC80BD80F50182859385892B19F090
S1130400C50102963CD1CE0106960E94B312AC01FE
S1130410E9810E2E000CFF0BEA30F10508F057C0FD
S11304208827EE58FF4F8F4F0C94BE28D501539662
S11304308C915397816053968C9353972A813B8177
S11304401C966D917C911D97620F731FC5010E94CC
S1130450BE118823E1F1D5015096ED91FC9151979D
S1130460C5011995F501838982FF31C04A815B81F9
S113047084859585480F591F0E2D1F2D2E2D3F2D38
S1130480652DC5010E946C1222C0D50153968C9132
S113049053978E7F53968C931AC0F501838981609C
S11304A0838B6A817B8175876487640F751F9A01CA
S11304B0C5010E94BE110BC0D50153968C9181FDDC
S11304C003C0C50169D003C08E7FF501838B4E2D17
S11304D05F2D6C2D7D2D8091D0099091D10992D4FE
S11304E0811183CF21CF0E94570CC4010E94B31203
S11304F08C018981811176CFE091D209F091D309E1
S11305008081442D8111452DAE2CBF2C5DCF11244B
S11305101FBECFEFD1E2DEBFCDBF00E00CBF19E0BC
S1130520A0E0B2E0E8E7F8E500E00BBF02C0079006
S11305300D92A636B107D9F72BE0A6E6B9E001C0C3
S11305401D92A33FB207E1F70E9475150C943A2C53
S113055057CDE8E0F1E09081907F908390818F7097
S1130560982B90830895E8E0F1E08081807F808378
S11305700895CF93DF93EC010E94570CCE010E94A3
S1130580E028EC010E94210D209711F40E9422130F
S1130590CE01DF91CF910895CF93DF93009741F07F
S11305A0EC010E94570CCE010E9478290E94210D73
S11305B0DF91CF910895FC010396928381832FEFFD
S11305C03FEF3483238396838583908787831082C8
S11305D00895FC01118610860895CF93DF939C0142
S11305E0FB01DC011196CD91DC911297D383C28378
S11305F08C819D81958384838C819D81DC011396FC
S11306007C936E9312977D836C8331872087F901E5
S113061080818F5F8083DF91CF910895CF93DF93A3
S1130620EB01488159814F3F2FEF520721F4FC0120
S1130630A781B0850DC0DC01139601C0DF011296BD
S1130640ED91FC9113972081318142175307B0F744
S11306501296ED91FC911397FB83EA83D583C483AF
S1130660BD83AC831396DC93CE93129799878887C6
S1130670FC0120812F5F2083DF91CF910895CF93D8
S1130680DF93FC01A085B185C281D38184819581EA
S11306909D838C83C481D581828193819B838A834A
S11306A011968D919C911297E817F90731F4848182
S11306B0958112969C938E931197118610868C9136
S11306C081508C938C91DF91CF91089531E1FC019D
S11306D03083319722E220833197A3E3A0833197BB
S11306E060833197708331971082319710823197EC
S11306F060E86083319710823197108231971082BD
S1130700319762E06083319763E06083319764E0FE
S11307106083319765E06083319766E06083319749
S113072067E06083319768E06083319769E06083B4
S1130730319760E1608331973083319732E13083C0
S1130740319733E13083319734E13083319735E1A8
S11307503083319736E13083319737E130833197F5
S113076038E13083319739E13083319730E2308397
S1130770319731E2308331972083319723E220830C
S11307803197408331975083319726E22083319704
S113079027E22083319728E22083319729E22083BE
S11307A0319720E32083319721E3208389970895AB
S11307B0A89590EC88E10FB6F894A8958093600012
S11307C00FBE90936000A091CA09B091CB09CD915E
S11307D0CDBFDD91DEBFFF91EF91DF91CF91BF914E
S11307E0AF919F918F917F916F915F914F913F91C5
S11307F02F911F910F91FF90EF90DF90CF90BF90BA
S1130800AF909F908F907F906F905F904F903F90AC
S11308102F901F900F900CBE0F900BBE0F900FBE29
S11308200F90089581E008950F920FB6F8940F92F7
S11308300BB60F920CB60F921F9211242F923F9277
S11308404F925F926F927F928F929F92AF92BF92DC
S1130850CF92DF92EF92FF920F931F932F933F93C8
S11308604F935F936F937F938F939F93AF93BF93B4
S1130870CF93DF93EF93FF93A091CA09B091CB0973
S11308800DB60D920EB60D920E94AF0DA091CA093D
S1130890B091CB09CD91CDBFDD91DEBFFF91EF913A
S11308A0DF91CF91BF91AF919F918F917F916F9184
S11308B05F914F913F912F911F910F91FF90EF9076
S11308C0DF90CF90BF90AF909F908F907F906F906C
S11308D05F904F903F902F901F900F900CBE0F9001
S11308E00BBE0F900FBE0F9008950F920FB6F894A1
S11308F00F920BB60F920CB60F921F9211242F92E7
S11309003F924F925F926F927F928F929F92AF929B
S1130910BF92CF92DF92EF92FF920F931F932F9388
S11309203F934F935F936F937F938F939F93AF9373
S1130930BF93CF93DF93EF93FF93A091CA09B09134
S1130940CB090DB60D920EB60D9213BEC0D7811110
S11309500E94AF0DA091CA09B091CB09CD91CDBF32
S1130960DD91DEBFFF91EF91DF91CF91BF91AF9108
S11309709F918F917F916F915F914F913F912F91B3
S11309801F910F91FF90EF90DF90CF90BF90AF90A9
S11309909F908F907F906F905F904F903F902F909B
S11309A01F900F900CBE0F900BBE0F900FBE0F90B8
S11309B008959BDF18950FB6F8940F92FC01928D61
S11309C00F900FBE81E0911180E008950F931F9363
S11309D0CF93DF93EC01042F1A8D4C8D41110CC081
S11309E088819981892B09F042C08C819D810E9464
S11309F0770F1D821C8242C0011117C050E08A810A
S1130A009B810E94E82A2C8D8A819B81820F911DF3
S1130A109B838A832C813D818217930750F18881BF
S1130A2099819B838A8380E029C050E08E819F81D5
S1130A300E94E82A8C8D90E09195819591092E81F0
S1130A403F81280F391F3F832E8348815981241702
S1130A50350730F42C813D81820F931F9F838E8351
S1130A60023049F4112349F0115080E007C080E0BE
S1130A7005C080E003C080E001C080E01F5F1A8FE2
S1130A80DF91CF911F910F910895FC01448D442370
S1130A90A9F050E026813781240F351F3783268340
S1130AA0848195812817390720F08081918197836B
S1130AB08683CB01668177810C94E82A0895EF92AE
S1130AC0FF920F931F93CF938C010FB6F8940F925C
S1130AD0FC01C68D1C16ACF48189811106C011C0BD
S1130AE0F8018189811105C00CC07801F1E1EF0E94
S1130AF0F11CC7010E94660E81110E94EE0EC150C6
S1130B0079F78FEFF801868F0F900FBE0FB6F89428
S1130B100F92C58D1C16ACF48085811106C011C0DE
S1130B20F8018085811105C00CC07801F8E0EF0E52
S1130B30F11CC7010E94660E81110E94EE0EC15085
S1130B4079F78FEFF801858F0F900FBECF911F912A
S1130B500F91FF90EF900895CF93DF93EC010FB6C0
S1130B60F8940F92E881F9818B8D2C8D90E030E020
S1130B70829FA001839F500D929F500D11244E0F10
S1130B805F1F5D834C831A8EFB83EA830197829FE8
S1130B90A001839F500D929F500D1124CF01840F0B
S1130BA0951F9F838E838FEF8D8F8E8F61110BC066
S1130BB08885882371F0CE0108960E94660E8823EA
S1130BC041F032DE06C0CE010896F5DCCE01419636
S1130BD0F2DC0F900FBE81E0DF91CF910895FF9278
S1130BE00F931F93CF93DF93082F162FF42E6623B2
S1130BF0B9F0869FC00111248196BBDCEC010097FB
S1130C0041F414C00B8F1C8F61E0CE01A5DFF8A264
S1130C100DC0819699838883F5CFD983C883F2CF99
S1130C2081E290E0A6DCEC01892BB9F7CE01DF91DB
S1130C30CF911F910F91FF9008959F92AF92BF9211
S1130C40CF92DF92EF92FF920F931F93CF93DF9394
S1130C5000D01F921F92CDB7DEB78C016B015D836C
S1130C604C83A22EB12C992493947C0188E0E80E45
S1130C70F11C0FB6F8940F92F801928D838D98179A
S1130C8018F0F2E0AF1216C04A2DB601C8019EDE7C
S1130C90F8019189992341F0C80141960E94660E9A
S1130CA0882321F0C1DD02C08111BEDD0F900FBE8B
S1130CB081E047C08C819D81892B21F40F900FBE68
S1130CC080E03FC0B11005C0CE0101960E94AE0E77
S1130CD0B92C0F900FBEEBD50FB6F8940F92F80114
S1130CE0858D8F3F09F4158EF801868D8F3F09F4A9
S1130CF0168E0F900FBEBE016C5F7F4FCE01019622
S1130D000E94B90E811119C00FB6F8940F92F80120
S1130D10928D838D0F900FBE98130BC06C817D81D3
S1130D20C701ABD7C801CBDE8CD68111A2CF7CDD45
S1130D30A0CFC801C4DE85D69CCFC801C0DE81D651
S1130D4080E00F900F900F900F900F90DF91CF9154
S1130D501F910F91FF90EF90DF90CF90BF90AF90D5
S1130D609F900895CF93DF93482F60E081E037DFB1
S1130D70EC01009759F01D821C82198218821E8290
S1130D8020E040E050E060E070E057DFCE01DF910A
S1130D90CF910895EF92FF920F931F93CF93DF9318
S1130DA08A01FC01528D338D531710F02230E1F487
S1130DB0422F7801EC011E8D09DE1F3F79F48989E9
S1130DC08823A1F0CE01419681D7882389F0E114CC
S1130DD0F10481F081E0F70180830DC0FF24F394D6
S1130DE0F10EFE8E81E007C080E005C081E003C003
S1130DF081E001C081E0DF91CF911F910F91FF90BD
S1130E00EF9008959F92AF92BF92CF92DF92EF92AC
S1130E10FF920F931F93CF93DF9300D01F921F92E3
S1130E20CDB7DEB78C015B015D834C83E12C992443
S1130E3093946C0181E1C80ED11C0FB6F8940F9203
S1130E40F801F28CFF2091F0B501C8011EDEFA947E
S1130E50F801F28E8085882329F0C801089636D7D8
S1130E608111E2DC0F900FBE81E044C08C819D8132
S1130E70892B21F40F900FBE80E03CC0E11004C028
S1130E80CE0101966BD7E92C0F900FBE10D50FB68B
S1130E90F8940F92F801858D8F3F09F4158EF801AF
S1130EA0868D8F3F09F4168E0F900FBEBE016C5FC6
S1130EB07F4FCE0101965DD7811113C0C8017BDD40
S1130EC0882359F06C817D81C601D7D6C801F7DD2E
S1130ED0B8D58111B2CFA8DCB0CFC801F0DDB1D54F
S1130EE0ACCFC801ECDDADD5C80165DD882309F4BC
S1130EF0A4CF80E00F900F900F900F900F90DF9190
S1130F00CF911F910F91FF90EF90DF90CF90BF9002
S1130F10AF909F900895BF92CF92DF92EF92FF928D
S1130F200F931F93CF93DF9300D01F921F92CDB7DF
S1130F30DEB78C017D836C83B12CD12CCC24C3947B
S1130F407C0181E1E80EF11C0FB6F8940F92D801F0
S1130F505A968C915A978823D9F081505A968C933B
S1130F605A978D919C91892B29F40E940710F801BE
S1130F7095838483D80118968C91882329F0C8011D
S1130F800896A4D6811150DC0F900FBE81E070C08A
S1130F908C819D81892B21F40F900FBE80E068C065
S1130FA0D11004C0CE010196D9D6DC2C0F900FBE0F
S1130FB07ED40FB6F8940F92F801858D8F3F09F413
S1130FC0158ED8015E968C915E978F3F11F45E96D4
S1130FD01C920F900FBEBE016C5F7F4FCE01019635
S1130FE0C8D6811121C0C801E6DC8823C9F0F80104
S1130FF080819181892B49F40FB6F8940F928481F2
S1131000958103D7B82E0F900FBE6C817D81C701E7
S113101034D6C80154DD15D5811196CF05DC94CFA3
S1131020C8014DDD0ED590CFC80149DD0AD5C801F0
S1131030C2DC882309F488CFBB20C9F00FB6F8942A
S11310400F92F8018189882339F00688F789E02D09
S1131050808164E0681B01C060E0D80114968D9122
S11310609C91159784D70F900FBE80E001C080E05B
S11310700F900F900F900F900F90DF91CF911F91D1
S11310800F91FF90EF90DF90CF90BF900895CF9392
S1131090DF93EC010FB6F8940F928D8D8F3F09F416
S11310A01D8E8E8D8F3F09F41E8E0F900FBE8A8D7C
S11310B0811103C0CE014196F1D5CE0100DDDF914F
S11310C0CF910895FC014481558122813381240FFD
S11310D0351F80819181B901681B790BCB0164179D
S11310E0750710F0841B950B0895AF92BF92CF92B1
S11310F0DF92EF92FF920F931F93CF93DF936C01D4
S11311005B017A01FC01C281D381048115810C1B2E
S11311101D0B4017510708F48A01F6018485958553
S1131120A801B5018C0F9D1F0E94E82A0E151F050A
S113113058F4A701401B510BB501600F711FF60154
S1131140848595850E94E82ACE018E0D9F1DF601A7
S1131150248135818217930710F0821B930BF601CB
S113116093838283C701DF91CF911F910F91FF90E9
S1131170EF90DF90CF90BF90AF900895CF92DF9221
S1131180EF92FF920F931F93CF93DF931F921F92BF
S1131190CDB7DEB75A83498321153105C9F06B01F8
S11311A07C01FC01868580FD08C0CA01241735072F
S11311B008F4C9019A83898311C02017310758F0B4
S11311C042E050E0BE016F5F7F4FC7018EDF06C073
S11311D080E090E008C080E090E005C049815A8139
S11311E0B601C70182DF0F900F90DF91CF911F915D
S11311F00F91FF90EF90DF90CF900895AF92BF9240
S1131200CF92DF92EF92FF920F931F93CF93DF93CE
S11312107C015B01E9014217530708F4EA012097B6
S113122079F1F70100811181C480D580C01AD10AF7
S1131230CC15DD0508F46E01F70164857585600F32
S1131240711FA601C5010E94E82ACC16DD0658F4D8
S1131250AE014C195D09F70164857585C5018C0DD6
S11312609D1D0E94E82A0C0F1D1FF70184819581A2
S11312700817190710F0081B190BF70111830083D5
S1131280CE01DF91CF911F910F91FF90EF90DF90EE
S1131290CF90BF90AF900895EF92FF921F93CF939A
S11312A0DF93EB0111E0413009F010E0209711F4D5
S11312B0C1E0D0E07C012FEFE21AF20A419659D93D
S11312C0009781F020E1FC0111922A95E9F79C0135
S11312D0205F3F4FFC0135872487F582E482D78362
S11312E0C6831687DF91CF911F91FF90EF900895E9
S11312F0CF93DF93FC0127850FB6F8940F92808576
S11313009185892BD1F482859385892BC1F48685B7
S11313104681578164817581A485B58590E1EF018B
S113132019929A95E9F7B587A487758364835783DF
S113133046838687278781E003C080E001C080E080
S11313400F900FBEDF91CF910895FC012481358168
S11313508081918142815381820F931F0197841B65
S1131360950B8217930710F0821B930B0895AF928D
S1131370BF92CF92DF92EF92FF920F931F93CF937E
S1131380DF93EC015B016A0179018E8580FF04C063
S11313908A010E5F1F4F01C08A01CE01D6DF9C0176
S11313A0A601B501CE01EADE6C01892BB1F0CE01B4
S11313B089DE2E813F818217930778F0888599858D
S11313C0892B59F08885998500E010E020E040E001
S11313D050E0BA012FD719861886C601DF91CF9144
S11313E01F910F91FF90EF90DF90CF90BF90AF903F
S11313F008956F927F928F929F92AF92BF92CF92F5
S1131400DF92EF92FF920F931F93CF93DF931F927C
S11314101F92CDB7DEB76C013B014A017901FC0193
S1131420868580FD03C0A12CB12C04C06894AA2435
S1131430A1F8B12CE114F10429F10FB6F8940F923C
S1131440C60140DE8C01A816B90638F080E090E0B1
S113145081D7C8D4F601918780870F900FBEA0165C
S1131460B106B0F000E010E020E030E0A90160E057
S113147070E0CB01DED5F60111861086C60122DEAE
S11314808C0103C0C6011EDE8C01A016B106B8F59E
S1131490A114B104C1F0F601E080F1809801A50126
S11314A0BE016F5F7F4FC601A9DE89819A810A1947
S11314B01B098816990630F4F601F182E082812C2A
S11314C0912C01C04C019801A401B301C60196DE20
S11314D07C01892BB1F0EBD1F60182859385892BB0
S11314E061F08285938500E010E020E040E050E068
S11314F0BA0122D6F60113861286A3D202C0E12CC9
S1131500F12CC7010F900F90DF91CF911F910F9194
S1131510FF90EF90DF90CF90BF90AF909F908F900F
S11315207F906F900895E0919209F09193098081E2
S1131530811107C08FEF9FEF90936A098093690927
S11315400895E0919209F09193090580F681E02DC8
S11315500680F781E02D8281938190936A098093BC
S113156069090895FF920F931F93CF93DF93EC01C2
S1131570F62E00917109109172098091CA09909117
S1131580CB0902967CD8CF3F8FEFD80761F4FF20B8
S113159051F06091CA097091CB096E5F7F4F84E767
S11315A099E01BD82DC0C00FD11FE091CA09F0915A
S11315B0CB09D383C283C017D10760F46091CA09F1
S11315C07091CB0980919009909191096E5F7F4F42
S11315D025D816C06091CA097091CB0980919209EF
S11315E0909193096E5F7F4F19D88091690990910A
S11315F06A09C817D90720F4D0936A09C093690906
S1131600DF91CF911F910F91FF9008954F925F92B8
S11316106F927F928F929F92AF92BF92CF92DF92FE
S1131620EF92FF920F93CF93DF934C016B015A011A
S11316302901CA010E94B9023C01892B09F4F3C0B3
S11316408CE290E00E94B902EC01892B99F0788E2B
S11316506F8AA50165EA70E0C3010E94F12A81E066
S1131660A81AB1088F89988DA80EB91EC114D10487
S113167029F420C0C3010E94CC02D5C0D6018C91AC
S1131680898F8C918823A1F0AE01465E5F4FF601ED
S11316903196B8E0CB0ED11CCF012191DA012D9304
S11316A0AD01DC018C91882319F0EC15FD05A1F73F
S11316B018A201C0198E043008F003E00E8B0BA3AE
S11316C01CA26E01B2E0CB0ED11CC6010E94E9023D
S11316D0CE010C960E94E902D987C88784E090E085
S11316E0801B91099D878C87DB8BCA8B1EA21DA250
S11316F01FA218A619A61AA61BA6A201B401C50109
S11317000E94660399838883E114F10419F0F701B8
S1131710D183C0830FB6F8940F92809173098F5FC1
S1131720809373098091CA099091CB09892BD1F5D3
S1131730D093CB09C093CA0980917309813009F011
S113174041C086EA99E00E94DB028FEA99E00E9498
S1131750DB0288EB99E00E94DB0281EC99E00E94B5
S1131760DB028DE999E00E94DB0284E999E00E94A2
S1131770DB0287E899E00E94DB028EE799E00E9491
S1131780DB0284E799E00E94DB028DE999E0909303
S113179093098093920984E999E090939109809345
S11317A0900910C080916F0981110CC0E091CA09A1
S11317B0F091CB0996898E89891720F0D093CB09B3
S11317C0C093CA0980916B098F5F80936B0989A3C9
S11317D08E8990917009981710F48093700990E0A5
S11317E09C01220F331F220F331F220F331F820F3E
S11317F0931FB6018A55964F0E94ED020F900FBEBB
S113180080916F09882359F0E091CA09F091CB09BE
S113181096898E89981728F407D881E005C081E05D
S113182003C081E001C08FEFDF91CF910F91FF9052
S1131830EF90DF90CF90BF90AF909F908F907F906C
S11318406F905F904F900895EF92FF920F930F2E39
S1131850F7E6EF2EF9E0FF2EF02D00E020E030E077
S113186040EC50E062E772E08EE491E0CFDE81303C
S1131870D1F4DCD58130B9F4F8948FEF9FEF9093D5
S11318806A098093690981E080936F091092720953
S113189010927109E091CA09F091CB0985A10E94C7
S11318A0A9020E94D8030F91FF90EF9008958091B0
S11318B066098F5F8093660908950FB6F8940F92B6
S11318C080917109909172090F900FBE0895CF9283
S11318D0DF92EF92FF920F931F93CF93DF93809148
S11318E06609811198C0E0907109F09072098FEF38
S11318F0E81AF80AF0927209E0927109E114F1040D
S1131900B1F48091920990919309209190093091BA
S113191091093093930920939209909391098093AC
S1131920900980916C098F5F80936C09FCDD809134
S1131930690990916A09E816F90610F4D12C53C08C
S1131940D12CCC24C394E0919209F0919309808125
S1131950811107C08FEF9FEF90936A098093690903
S113196042C0E0919209F09193090580F681E02D3F
S1131970C681D7818A819B81E816F90628F4909361
S11319806A09809369092FC08E010E5F1F4FC80139
S11319900E943F038C899D89892B21F0CE010C96EE
S11319A00E943F038E8990917009981710F48093D8
S11319B0700990E09C01220F331F220F331F220F66
S11319C0331F820F931FB8018A55964F0E94ED0270
S11319D0E091CA09F091CB099E898689981708F489
S11319E0B2CFDC2CB0CFE091CA09F091CB09868943
S11319F090E0FC01EE0FFF1FEE0FFF1FEE0FFF1F25
S1131A008E0F9F1FFC01EA55F64F8081823048F00B
S1131A10DD24D39406C080916E098F5F80936E0994
S1131A20D12C80916D09882311F0DD24D3948D2D60
S1131A30DF91CF911F910F91FF90EF90DF90CF90A6
S1131A400895DF92EF92FF920F931F93CF93DF934A
S1131A500FB6F8940F9280916609815080936609BD
S1131A608091660981115DC080917309811133C031
S1131A705BC0D7011596ED91FC911697C681D7816D
S1131A80CE010C960E943F038E010E5F1F4FC801CA
S1131A900E943F038E8990917009981710F48093E7
S1131AA0700990E09C01220F331F220F331F220F75
S1131AB0331F820F931FB8018A55964F0E94ED027F
S1131AC0E091CA09F091CB099E898689981768F03C
S1131AD0D0926D090AC0C0E0D0E00F2EF7E8EF2ED7
S1131AE0F9E0FF2EF02DDD24D394F70180818111DC
S1131AF0C0CFCD2B09F017DDC0916E09CC2349F07E
S1131B00D1E0E5DE8111D0936D09C150D1F7109277
S1131B106E0980916D09882331F00E94140481E0DC
S1131B2003C080E001C080E00F900FBEDF91CF9131
S1131B301F910F91FF90EF90DF900895CF93DF9363
S1131B40EC01892B39F0B3DE60E0CE010BDD79DFE7
S1131B50811102C00E941404DF91CF9108958091F5
S1131B606609882321F081E080936D09089510921D
S1131B706D09E091CA09F091CB0985A10E94B302D5
S1131B80A091CA09B091CB09E091CA09F091CB099F
S1131B902D913C918789908D8217930758F060911D
S1131BA0CA097091CB098091CA099091CB09675EEB
S1131BB07F4F55D520917009822F90E0FC01EE0FE4
S1131BC0FF1FEE0FFF1FEE0FFF1FE80FF91FEA556F
S1131BD0F64F3081311111C02150822F90E0FC0169
S1131BE0EE0FFF1FEE0FFF1FEE0FFF1FE80FF91F91
S1131BF0EA55F64F3081332379F3AC01440F551F76
S1131C00440F551F440F551F480F591FDA01AA5599
S1131C10B64F1196ED91FC9112970280F381E02D5D
S1131C201296FC93EE9311974755564FE417F50718
S1131C3029F442815381FD0152834183FC01EE0F5B
S1131C40FF1FEE0FFF1FEE0FFF1F8E0F9F1FFC01E4
S1131C50EA55F64F0180F281E02D868197819093B9
S1131C60CB098093CA0920937009E091CA09F091C5
S1131C70CB0985A10C94A9020895CF93DF93EB01BE
S1131C806091CA097091CB09645F7F4F0E940E0373
S1131C9061E0CE0167DCDF91CF9108950F931F932C
S1131CA0CF938B01C42F6091CA097091CB09645FF3
S1131CB07F4F0E94ED02CC2311F00FEF1FEF6C2F2A
S1131CC0C80150DCCF911F910F9108950F931F937A
S1131CD0CF93DF93DC011596ED91FC911697C681A5
S1131CE0D7818E01045F1F4FC8010E943F0380917A
S1131CF0660981111CC00A501109C8010E943F03E2
S1131D008E8990917009981710F48093700990E06F
S1131D109C01220F331F220F331F220F331F820F08
S1131D20931FB8018A55964F0E94ED0205C0B80171
S1131D3087E899E00E94ED02E091CA09F091CB098D
S1131D409E898689891720F481E080936D0901C0FA
S1131D5080E0DF91CF911F910F91089520916C093C
S1131D60FC0120832091710930917209328321830F
S1131D700895CF93DF930FB6F8940F9220917109D1
S1131D8030917209DB014D915C914F3FBFEF5B07CE
S1131D90E9F0EC01E981FA81A0916C09B881BA17E4
S1131DA019F02E173F07A0F42E1B3F0B24173507FD
S1131DB040F4FB01421B530B51834083CFDF80E08F
S1131DC008C0FB011182108281E003C080E001C0E1
S1131DD081E00F900FBEDF91CF91089581E0809351
S1131DE06D0908958091CA099091CB090895809155
S1131DF06F09882331F080916609882321F080E0FF
S1131E00089581E0089582E008950F931F93CF937E
S1131E10DF93FC01892B09F464C02689A091CA09C7
S1131E20B091CB0956968C91281708F04EC0848542
S1131E309585992364F0A091CA09B091CB0956966F
S1131E403C9184E090E0831B91099587848730E07E
S1131E50C901880F991F880F991F880F991F280F90
S1131E60391F2A55364F828593858217930721F5AA
S1131E708F01EF012296CE010E943F03E091CA092F
S1131E80F091CB098689F801868B90917009981797
S1131E9010F48093700990E09C01220F331F220FED
S1131EA0331F220F331F820F931FBE018A55964F93
S1131EB00E94ED0281E016C0A091CA09B091CB093D
S1131EC056968C91868B81E00DC0A091CA09B09181
S1131ED0CB0981E023A156969C91291718F080E044
S1131EE001C080E0DF91CF911F910F9108950F936E
S1131EF01F93CF93DF93FC01892B79F184A1815047
S1131F0084A3268993A1291751F181112AC0EF01D5
S1131F108F010E5F1F4FC8010E943F038BA18E8B60
S1131F2024E030E0281B31093D872C87909170090B
S1131F30981710F48093700990E09C01220F331FCE
S1131F40220F331F220F331F820F931FB8018A55AC
S1131F50964F0E94ED0281E005C080E003C080E05E
S1131F6001C080E0DF91CF911F910F9108950F93ED
S1131F701F93CF93DF93FC01892B09F443C093A1F2
S1131F80961708F4962F86898917E1F124A1213048
S1131F90C9F5968B24853585332334F024E030E06D
S1131FA0291B31093587248790E09C01220F331FB8
S1131FB0220F331F220F331F820F931F8A55964F10
S1131FC02285338528173907E9F4EF018F010E5F65
S1131FD01F4FC8010E943F038E8990917009981782
S1131FE010F48093700990E09C01220F331F220F9C
S1131FF0331F220F331F820F931FB8018A55964F48
S11320000E94ED02DF91CF911F910F91089580916D
S1132010CA099091CB09892B39F0E091CA09F09152
S1132020CB0984A18F5F84A38091CA099091CB09C5
S113203008954F925F926F927F928F929F92AF9288
S1132040BF92EF92FF920F931F9349015A010FB66B
S1132050F8940F92E091CA09F091CB0923A522309C
S113206021F1E091CA09F091CB0947A050A461A4E1
S113207072A4DC01CB0180959095A095B095842144
S11320809521A621B72187A390A7A1A7B2A7E09184
S1132090CA09F091CB0981E083A7E114F10429F086
S11320A061E0C7015FDA0E9414040F900FBE0FB6FF
S11320B0F8940F920115110569F0E091CA09F091A5
S11320C0CB0987A190A5A1A5B2A5F801808391832E
S11320D0A283B383E091CA09F091CB0983A582302E
S11320E0B1F4E091CA09F091CB0987A190A5A1A50B
S11320F0B2A580949094A094B09488229922AA22A4
S1132100BB2287A290A6A1A6B2A681E001C080E06E
S1132110E091CA09F091CB0913A60F900FBE1F914D
S11321200F91FF90EF90BF90AF909F908F907F9012
S11321306F905F904F9008950F931F93CF93DF9309
S1132140FC010FB6F8940F920115110549F087A10F
S113215090A5A1A5B2A5E80188839983AA83BB832E
S113216083A592E093A72230B1F018F4213031F026
S11321702AC02330E9F0243001F125C007A110A5BD
S113218021A532A5402B512B622B732B47A350A7BB
S113219061A772A718C047A150A561A572A54F5F9A
S11321A05F4F6F4F7F4F47A350A761A772A70BC024
S11321B047A350A761A772A706C0823079F147A34D
S11321C050A761A772A7813059F5EF018F010E5F07
S11321D01F4FC8010E943F038E8990917009981780
S11321E010F48093700990E09C01220F331F220F9A
S11321F0331F220F331F820F931FB8018A55964F46
S11322000E94ED02E091CA09F091CB099E8986896A
S1132210891740F40E94140481E005C080E003C0E3
S113222081E001C081E00F900FBEDF91CF911F913B
S11322300F910895EF92FF920F931F93CF93DF9323
S1132240FC010115110549F087A190A5A1A5B2A52E
S1132250E80188839983AA83BB8383A592E093A72B
S11322602230B1F018F4213031F02BC02330E9F0E2
S1132270243001F126C007A110A521A532A5402BC9
S1132280512B622B732B47A350A761A772A719C0C8
S113229047A150A561A572A54F5F5F4F6F4F7F4F58
S11322A047A350A761A772A70CC047A350A761A773
S11322B072A707C0823009F441C047A350A761A7A1
S11322C072A78130E9F5EF018091660981111DC083
S11322D08F010E5F1F4FC8010E943F038E899091AA
S11322E07009981710F48093700990E09C01220FF4
S11322F0331F220F331F220F331F820F931FB80186
S11323008A55964F0E94ED0207C0BF01645F7F4F5C
S113231087E899E00E94ED02E091CA09F091CB09A7
S11323209E898689891770F4E114F10419F081E01B
S1132330F701808381E080936D0905C080E003C0CC
S113234081E001C081E0DF91CF911F910F91FF9057
S1132350EF900895009721F48091CA099091CB09D8
S11323600FB6F8940F92FC0123A5223019F413A69A
S113237081E001C080E00F900FBE0895FC017383DB
S11323806283918780874617570790F0421B530B4F
S11323908485958548175907E0F4BF016E5F7F4F28
S11323A08091D2099091D3090E940E0380E0089590
S11323B04217530718F46217730768F4BF016E5F7E
S11323C07F4F8091D4099091D5090E940E0380E03B
S11323D0089581E0089581E008950FB6F8940F926E
S11323E08091D0099091D109892BE9F48FED99E07E
S11323F00E94DB0286ED99E00E94DB028FED99E0FA
S11324009093D5098093D40986ED99E09093D309EC
S11324108093D20940E065E08AE00E94EF05909342
S1132420D1098093D0090F900FBE0895EF92FF92C7
S11324300F93D3DF8091D0099091D109892B89F032
S11324400F2EFEECEF2EF9E0FF2EF02D03E020E03E
S113245030E045E550E067E772E084E891E0D6D8E3
S113246001C080E00F91FF90EF9008958F929F92AA
S1132470AF92BF92CF92DF92FF920F931F93CF93AD
S1132480DF934C015B01F42E690184E190E00E942A
S1132490B902EC01892B99F01B8A9FDF998288820B
S11324A0BD86AC86DF86CE86198B088BCE0102965C
S11324B00E94E902FF2019F08B8984608B8BCE0186
S11324C0DF91CF911F910F91FF90DF90CF90BF903C
S11324D0AF909F908F9008950F931F93CF93DF93A6
S11324E000D01F921F92CDB7DEB7E091D009F091D2
S11324F0D109309769F1D90169835B834A839D834C
S11325008C836630E4F473DC823061F420E0A8014B
S1132510BE016F5F7F4F8091D0099091D1090E94D5
S11325201D0617C020E040E050E0BE016F5F7F4F02
S11325308091D0099091D1090E941D060AC020E023
S1132540AD01BE016F5F7F4FCF010E94CA0601C07B
S113255080E00F900F900F900F900F90DF91CF912C
S11325601F910F910895AF92BF92CF92DF92EF9295
S1132570FF920F931F93CF93DF936C019ED97C013D
S11325808091CC099091CD09E816F90608F047C06E
S11325902FC00580F681E02DA080B180C681D7814F
S11325A08E010E5F1F4FC8010E943F03E889F9891D
S11325B0CE0119958B8982FF1BC08C859D858A0D60
S11325C09B1DA816B90660F49B838A83D987C887A4
S11325D0B8018091D4099091D5090E940E0308C0D6
S11325E000E010E020E030E0A50160E0CE0174DFFF
S11325F0E091D409F091D50980818111CACF8091ED
S1132600D2099091D3099093D5098093D409F0937A
S1132610D309E093D20981E0F601808302C0F60178
S11326201082F092CD09E092CC09C701DF91CF91DD
S11326301F910F91FF90EF90DF90CF90BF90AF90DC
S113264008950895279A2F9A2FEF80E792E021505A
S113265080409040E1F700C000001F9AF5CF279A10
S11326602F9A2FEF87EA91E6215080409040E1F7BE
S113267000C000001F9AF5CF8093080290930902CE
S11326809F938F938FE792E09F938F930E94692B80
S11326900F900F900F900F90089520E040E050E0CD
S11326A060E070E08091CF0B9091D00B0C941D06EC
S11326B0089568EE73E08091CF0B9091D00B0E9447
S11326C08B07FBD808EE13E020E030E0AC0161E0BA
S11326D08091D10B9091D20BFFDE0E94C021809398
S11326E0C00B8111E6CF8091C90B9091CA0B0E9457
S11326F0EF21DFCFC0E0D0E00F2EFCE8EF2EF2E0B8
S1132700FF2EF02D68EE73E08091CF0B9091D00BEB
S11327100E948B07D2D804E610E020E030E0AC0140
S113272061E08091D10B9091D20BD6DE83E090E0F2
S113273005DA67D783E090E001DA78D7882321F0BF
S113274080E299E00E947D2B83E090E0F7D993D753
S11327506093C50B7093C60B8093C70B9093C80B03
S113276076D7262F372F462F572F682F792F409350
S1132770CB0B5093CC0B6093CD0B7093CE0B9F93EC
S11327808F933F932F938091C80B8F938091C70BA6
S11327908F938091C60B8F938091C50B8F93DF939A
S11327A0CF93FF92EF920E94692B21968DB79EB72B
S11327B00C960FB6F8949EBF0FBE8DBFA3CFEF92B9
S11327C0FF920F931F93CF93DF9360E177E28091A1
S11327D0CF0B9091D00B0E948B0720910602309171
S11327E0070280E197E2289F8001299F100D389FFE
S11327F0100D112462D820E030E0AC0161E080913A
S1132800D10B9091D20B68DE87EC92E00E947D2B75
S11328108FE59AEE0197F1F700C0000081E00E9475
S1132820291E82E090E08AD980E00E94291E86E970
S113283090E084D90E94E61D81E00E947A1C0E94E7
S11328403D1E0E9469209F938F9383EF92E09F9394
S11328508F930E94692B0E946A1F0E9469209F9394
S11328608F9386E093E09F938F930E94692B8EEF62
S113287099E00E944F1E0E946920CEEFD9E0DF93B9
S1132880CF939F938F938FE193E09F938F930E94B5
S1132890692BCE010E946B1E0E9469209F938F9327
S11328A0DF93CF9383E393E09F938F930E94692BED
S11328B0AE0168E473E089E693E00E9448200E9438
S11328C069209F938F93DF93CF9388E493E09F9342
S11328D08F9389E693E09F938F938AE793E09F9386
S11328E08F930E94692B0E949E1E0E9469209F93D1
S11328F08F9380EB93E09F938F930E94692B8DB706
S11329009EB782960FB6F8949EBF0FBE8DBF81E02E
S11329100E945F1F0E9469209F938F938FEB93E027
S11329209F938F930E94692B0F900F900F900F909D
S1132930C4E6D0E00F2EF0EEEF2EF3E0FF2EF02DE4
S113294080E00E94A41E182F0E9469209F938F93F9
S1132950DF93CF93FF92EF920E94692B0F900F9019
S11329600F900F900F900F90183049F080E00E9464
S1132970E61C8FE290E0E2D8219711F788C088E046
S11329800E9469209F938F9380E094E09F938F939C
S11329900E94692B81E0FCD787E194E00E947D2BA3
S11329A08FE290E0CBD8E8EEF9E086E0818382E024
S11329B080830F900F900F900F908091060290915A
S11329C00702892B21F468C00E941404FDCFC8EECD
S11329D0D9E00F2EF1E2EF2EF4E0FF2EF02D8CE083
S11329E090E0ACD820E030E048EC52E46091CB0BAE
S11329F07091CC0B8091CD0B9091CE0B11D173D1F2
S1132A00BAD0162F072F6093C10B7093C20B20E02E
S1132A1030E048EC52E46091C50B7091C60B809194
S1132A20C70B9091C80BFCD05ED1A5D06093C30BAB
S1132A307093C40B0A831B837C836D83809108028B
S1132A40909109029E838F8383E0D2D7BE0180E0F8
S1132A500E94C71E0E9469209F938F93FF92EF925A
S1132A600E94692B8FEF9BE722E981509040204020
S1132A70E1F700C000000F900F900F900F9080912D
S1132A80060290910702892B09F0A9CF05C081E0C5
S1132A908ED780E056D798CFDF91CF911F910F91B9
S1132AA0FF90EF90089595D5811104C086E394E0DA
S1132AB00C947D2B08956CE373E183E00C949221D4
S1132AC00895EF92FF920F93E12CF12C082F20E050
S1132AD030E048E851E069E576E08FED93E10E944B
S1132AE0060B0F91FF90EF9008950DE413E120E0A1
S1132AF030E041E06EE370E080E696E0B7DC90936E
S1132B00D20B8093D10B81E00E94B2069093D00B3C
S1132B108093CF0B80E00E949F257894C4DFCBDFA5
S1132B200F2EF4E6EF2EFAE0FF2EF02D05E020E064
S1132B3030E040EC50E069E676E089E593E10E94FC
S1132B40060B0F2EF2E6EF2EFAE0FF2EF02D20E01A
S1132B5030E040EC50E066E776E08AE793E10E94DB
S1132B60060B87E0D7D481E00E94ED1D83E0A9DF46
S1132B700E94240CFFCF33D088F09F5790F0B92FD8
S1132B809927B751A0F0D1F0660F771F881F991FBE
S1132B901AF0BA95C9F712C0B13081F03AD0B1E059
S1132BA0089537C0672F782F8827B85F39F0B93F69
S1132BB0CCF3869577956795B395D9F73EF49095C0
S1132BC08095709561957F4F8F4F9F4F089557FD66
S1132BD09058440F551F59F05F3F71F04795880F87
S1132BE097FB991F61F09F3F79F08795089512161E
S1132BF013061406551FF2CF4695F1DF08C01616CA
S1132C0017061806991FF1CF86957105610508947A
S1132C100895E894BB2766277727CB0197F9089591
S1132C200BD0C1C0B2D028F0B7D018F0952309F06A
S1132C307AC0A8C01124EECFCADFA0F3959FD1F3C8
S1132C40950F50E0551F629FF001729FBB27F00D56
S1132C50B11D639FAA27F00DB11DAA1F649F6627AB
S1132C60B00DA11D661F829F2227B00DA11D621FFA
S1132C70739FB00DA11D621F839FA00D611D221FB4
S1132C80749F3327A00D611D231F849F600D211D98
S1132C90822F762F6A2F11249F5750408AF0E1F03B
S1132CA088234AF0EE0FFF1FBB1F661F771F881F84
S1132CB091505040A9F79E3F510570F034C0AACFFF
S1132CC05F3FECF3983EDCF3869577956795B7956F
S1132CD0F795E7959F5FC1F7FE2B880F911D969599
S1132CE0879597F908957BDFE0F09E37D8F0963901
S1132CF0B8F49E3848F4672F782F8827985FF9CF67
S1132D0086957795679593959539D0F3B62FB170DD
S1132D106B0F711D811D20F48795779567959395A9
S1132D2008C022C077CF97F99F6780E870E060E021
S1132D300895882371F4772321F09850872B762FF8
S1132D4007C0662311F499270DC09051862B70E0BB
S1132D5060E02AF09A95660F771F881FDAF7880FCC
S1132D609695879597F908959F3F31F0915020F4F7
S1132D70879577956795B795880F911D9695879553
S1132D8097F908959FEF80EC089500240A9416168D
S1132D90170618060906089500240A941216130645
S1132DA0140605060895092E0394000C11F48823D3
S1132DB052F0BB0F40F4BF2B11F460FF04C06F5FEF
S1132DC07F4F8F4F9F4F08952F923F924F925F9264
S1132DD06F927F928F929F92AF92BF92CF92DF9227
S1132DE0EF92FF920F931F93CF93DF93CDB7DEB78C
S1132DF060970FB6F894DEBF0FBECDBF7C011B01F8
S1132E006A01FC0117821682838181FF44C39E01FB
S1132E102F5F3F4F3901F7019381F10193FD8591B4
S1132E2093FF81911F01882309F431C3853239F45A
S1132E3093FD859193FF81911F01853239F4B70188
S1132E4090E00E942D2B56016501E5CF10E0512C36
S1132E50912CFFE1F915D8F08B3279F038F48032F7
S1132E6079F08332A1F4F92DF0612EC08D3261F036
S1132E70803369F4292D21602DC0392D3260932EC1
S1132E80892D8460982E2AC0E92DE86015C097FC2E
S1132E902DC020ED280F2A3088F496FE06C03AE0B3
S1132EA0139F200D1124122F19C08AE0589E200D63
S1132EB01124522EE92DE0629E2E10C08E3231F480
S1132EC096FCE5C2F92DF0649F2E08C08C3621F4DF
S1132ED0292D2068922E02C0883641F4F10193FD19
S1132EE0859193FF81911F018111B3CF9BEB980FC3
S1132EF0933020F4992D9061805E07C09BE9980F70
S1132F00933008F066C1992D9F7E96FF16E09F735B
S1132F10992E853619F49064992E08C0863621F4CA
S1132F20392F3068932E02C01111115097FE07C03B
S1132F301C3350F444244394410E27E00BC0183052
S1132F4038F027E017E005C027E09CE3492E02C0D3
S1132F50212F412C560184E0A80EB11CF60160819A
S1132F60718182819381042DA3010E94052A6C0141
S1132F70F981FC87F0FF02C0F3FF06C091FC06C094
S1132F8092FE06C000E205C00DE203C00BE201C0E0
S1132F9000E08C858C7019F001115AC29BC297FE17
S1132FA010C04C0CFC85F4FF04C08A81813309F401
S1132FB04A94141474F528E0241578F588E0482E12
S1132FC02CC096FC2AC0812F90E08C159D059CF0A6
S1132FD03CEFC3163FEFD30674F0892D8068982E1A
S1132FE00AC0E2E0F0E0EC0FFD1FE10FF11D80816B
S1132FF0803319F411501111F4CF97FE0EC04424FC
S11330004394410E812F90E0C816D9062CF41C1964
S113301004C04424439401C010E097FE06C01C146D
S11330201D0434F4C601019605C085E090E002C099
S113303081E090E001110196112331F0212F30E05D
S11330402F5F3F4F820F931F252D30E08217930788
S113305014F4581A01C0512C892D897049F4552053
S113306039F0B70180E290E00E942D2B5A94F7CFFB
S1133070002329F0B701802F90E00E942D2B93FCB0
S113308009C0552039F0B70180E390E00E942D2B50
S11330905A94F7CF97FE4CC04601D7FE02C0812C4C
S11330A0912CC60188199909F301E80FF91FFE87CD
S11330B0ED87960124193109388B2F87012F10E0F1
S11330C01195019511093FEF8316930629F4B70171
S11330D08EE290E00E942D2BC814D9044CF08F8509
S11330E098898815990524F4ED85FE85818101C0B0
S11330F080E3F1E08F1A91082D853E852F5F3F4FC5
S11331003E872D87801691062CF0B70190E00E942F
S11331102D2BD9CFC814D90441F49A81963320F4C5
S1133120953319F43C8534FF81E3B70190E04EC038
S11331308A81813319F09C859F7E9C87B70190E03A
S11331400E942D2B111105C094FC18C085E690E057
S113315017C0B7018EE290E00E942D2B1E5F82E023
S113316001E0080FF301E80FF11D8081B70190E041
S11331700E942D2B802F0113F3CFE6CF85E490E03E
S1133180B7010E942D2BD7FC06C0C114D10441F411
S1133190EC85E4FF05C0D194C194D1088DE201C04F
S11331A08BE2B70190E00E942D2B80E32AE0C21647
S11331B0D1042CF08F5FFAE0CF1AD108F7CFB70112
S11331C090E00E942D2BB701C601C0960E942D2BC2
S11331D054C1833631F0833779F0833509F056C012
S11331E020C0560132E0A30EB11CF6018081898310
S11331F001E010E0630112C05601F2E0AF0EB11C11
S1133200F601C080D18096FE03C0612F70E002C039
S11332106FEF7FEFC6010E94222B8C01F92DFF77FF
S113322014C0560122E0A20EB11CF601C080D18068
S113323096FE03C0612F70E002C06FEF7FEFC601FE
S11332400E94DD2A8C01F92DF0689F2EF3FD1AC02F
S1133250852D90E008171907A8F4B70180E290E0E3
S11332600E942D2B5A94F4CFF60197FC859197FE7A
S113327081916F01B70190E00E942D2B51105A9457
S1133280015011090115110579F7F7C0843611F0C1
S1133290893661F5560197FE09C024E0A20EB11CDF
S11332A0F60160817181828193810AC0F2E0AF0EE0
S11332B0B11CF60160817181072E000C880B990BFB
S11332C0F92DFF769F2E97FF09C0909580957095F4
S11332D061957F4F8F4F9F4FF0689F2E2AE030E01B
S11332E0A3010E94DC2BC82EC6183FC0092D8537C8
S11332F021F40F7E2AE030E01DC0097F8F3691F063
S113330018F4883559F0C3C0803719F0883711F0A4
S1133310BEC0006104FF09C0046007C094FE08C079
S1133320066006C028E030E005C020E130E002C0BD
S113333020E132E0560107FF09C084E0A80EB11C69
S1133340F601608171818281938108C0F2E0AF0E41
S1133350B11CF6016081718180E090E0A3010E94BC
S1133360DC2BC82EC6180F77902E96FE0BC0092DA5
S11333700E7FC11650F494FE0AC092FC08C0092DB9
S11333800E7E05C0DC2C092D03C0DC2C01C0D12E1F
S113339004FF0DC0FE01EC0DF11D8081803311F49A
S11333A0097E09C002FF06C0D394D39404C0802FC1
S11333B0867809F0D39403FD11C000FF06C01C2DCC
S11333C0D51480F4150D1D190DC0D51458F4B7018A
S11333D080E290E00E942D2BD394F7CFD51410F403
S11333E05D1801C0512C04FF10C0B70180E390E0C8
S11333F00E942D2B02FF17C001FD03C088E790E057
S113340002C088E590E0B7010CC0802F867859F09F
S113341001FF02C08BE201C080E207FD8DE2B7012B
S113342090E00E942D2BC11638F4B70180E390E0A0
S11334300E942D2B1150F7CFCA94F301EC0DF11D0E
S11334408081B70190E00E942D2BC110F5CF15C0EB
S1133450F4E0F51560F584E0581A93FE1FC00111DD
S113346027C02C8523FF2AC00AE911E0392D3071C9
S1133470932EF8018491811124C0552009F4E4CCE1
S1133480B70180E290E00E942D2B5A94F6CFF70109
S11334908681978126C08FEF9FEF23C0B70180E21A
S11334A090E00E942D2B5A945110F8CFD8CF512C74
S11334B0B701802F90E00E942D2BD3CF0EE911E0AD
S11334C0D5CF91108052B70190E00E942D2B0F5F51
S11334D01F4FCFCF23E0251510F483E0BDCF512C2F
S11334E0C0CF60960FB6F894DEBF0FBECDBFDF919C
S11334F0CF911F910F91FF90EF90DF90CF90BF90ED
S1133500AF909F908F907F906F905F904F903F907F
S11335102F900895E3EDFBE02AEE30E2318320831F
S11335202DEE30E23383228328EF30E23583248387
S11335302CEF30E23783268322E031E23187208783
S11335402EE031E23387228723E131E23587248775
S11335502FE131E2378726872FEF30E2318B208B42
S113356024E231E2338B228B21E331E2358B248B4D
S1133570682FCF013AC108956530F1F4FA018081D2
S11335808F7390E0982F88272181822B90930D02CE
S113359080930C028281F0E48F9FC0011124FA0110
S11335A0238126952695822B90930B0280930A0201
S11335B081E08093660A0895643051F080E090E4DD
S11335C090930B0280930A0290930D0280930C0255
S11335D008950F931F930CEB1AE120E034E244EFBB
S11335E050E060E087E20E94D9259093680A8093B6
S11335F0670A21E0892B09F020E0822F1F910F91A7
S113360008958091670A9091680A009759F040E004
S113361060E070E00E942A26843031F41092660A39
S113362080E0089582E0089583E008958091670A18
S11336309091680A009739F064E00E9476268530FC
S113364021F083E0089582E0089580E00895609178
S11336500C0270910D0280E090E00E945F2820E04F
S113366030E048EC52E4DCDA20E038EF4FE756E48F
S11336700C94EE27089560910A0270910B0280E089
S113368090E00E945F2820E030E045E253E4C8DA8D
S113369020E038EF4FE756E40E94EE2720E030E0C8
S11336A040E252E40C9482270895CF93DF9390E094
S11336B0FC01EE0FFF1FE80FF91FEE0FFF1FE75984
S11336C0F54F238121110AC0EF01E091DB0BF0914A
S11336D0DC0B6A8188819981199512C0DC01AA0FDB
S11336E0BB1FED01C80FD91FCC0FDD1FC759D54F24
S11336F0E091E50BF091E60B6A8188819981199537
S1133700DF91CF910895CF93DF9390E0FC01EE0F0A
S1133710FF1FE80FF91FEE0FFF1FE759F54F238135
S113372021110AC0EF01E091E50BF091E60B6A81EB
S113373088819981199512C0DC01AA0FBB1FED0184
S1133740C80FD91FCC0FDD1FC759D54FE091DB0B34
S1133750F091DC0B6A81888199811995DF91CF9171
S1133760089580E996E00E947D2B0F2EF3EDCF2E75
S1133770FBE0DF2EF02D04E0C9E6DAE010E08C81F6
S1133780813069F0E8F0823039F5D6011C96ED916C
S1133790FC911D976A818881998119951DC08D813D
S11337A08F5F8A3010F48D8317C01D82D6011C965A
S11337B0ED91FC911D976A818881998119950CC0BE
S11337C08D81882331F0812F9EDF8D8181508D83FF
S11337D003C00C83812F69DF1F5F2696143079F6AE
S11337E085E090E00E949E0DC7CFCF92DF92EF92CA
S11337F0FF920F931F93CF93DF93062F0F2EF3EDBA
S1133800EF2EFBE0FF2EF02DD7011896ED91FC91E1
S1133810199766E087E290E01995C9E6DAE00F2E81
S1133820F8E2CF2ED12CF02DD982C88286E08A838B
S11338301B8214E01C8380E038DFD7011896ED91D9
S1133840FC91199767E087E290E01995DF82CE82B8
S113385087E0888719861A8781E027DFD7011896C1
S1133860ED91FC91199765E083E390E01995D701F8
S11338701896ED91FC91199761E084E390E0199515
S113388084E390E09D878C8785E08E871F86188B64
S113389082E00BDFD7011896ED91FC91199764E053
S11338A081E091E01995D7011896ED91FC91199753
S11338B061E082E091E0199582E091E09B8B8A8B34
S11338C01C8B1D8A1E8B83E0F0DEE12CF12C20E0A2
S11338D030E040EC50E067EA76E081EB9BE10E9447
S11338E0060BDF91CF911F910F91FF90EF90DF9026
S11338F0CF9008950F931F93CF93DF93C82FD0E0F9
S11339008E01000F111FD801AC0FBD1FAA0FBB1FE2
S1133910A759B54FE091DF0BF091E00B12966C9133
S113392012978D919C911995C00FD11FCC0FDD1F5B
S1133930C759D54F81E08C83DF91CF911F910F91AF
S113394008950F931F93CF93DF93C82FD0E08E0178
S1133950000F111FD801AC0FBD1FAA0FBB1FA75921
S1133960B54FE091DF0BF091E00B12966C9112973A
S11339708D919C911995C00FD11FCC0FDD1FC75994
S1133980D54F82E08C83DF91CF911F910F910895E1
S1133990282F30E0F901EE0FFF1FE20FF31FEE0FA7
S11339A0FF1FE759F54F93E09483ADCE0895282F78
S11339B030E0F901EE0FFF1FE20FF31FEE0FFF1FC0
S11339C0E759F54F94E0948370CE089590E0FC019C
S11339D0EE0FFF1FDF01A80FB91FAA0FBB1FA759C6
S11339E0B54F24E015962C931597FD011482089584
S11339F090E0FC01EE0FFF1FDF01A80FB91FAA0F13
S1133A00BB1FA759B54F21E015962C931597FD01BF
S1133A10148208950F931F93CF93DF931F921F92E5
S1133A20CDB7DEB78C0119822DC0E091E50AEC32E6
S1133A3050F481E08E0F8093E50AF0E0EB5EF44FE2
S1133A408A81808302C01092E50A8A818A30D1F487
S1133A504091E50A50E0FA01ED5EF44F10824150C6
S1133A6051099E012F5F3F4F65E17BE08091E60A9B
S1133A709091E70A0E94B709898181110E94140478
S1133A801092E50ABE016E5F7F4FC801C6D5882338
S1133A9061F20F900F90DF91CF911F910F910895D4
S1133AA00F931F93CF93DF938C01EB018091E60A70
S1133AB09091E70A0E947809B80181E89AE00E948F
S1133AC0032B209779F0E1E8FAE001900020E9F770
S1133AD0319780E290E091838083BE0181E89AE08F
S1133AE00E94F82AE1E8FAE0DF010D900020E9F7EE
S1133AF011978DE09AE011969C938E9312961C92E6
S1133B0001900020E9F73197E158FA40AE2F81E89F
S1133B109AE0AC016A2F8091E80A9091E90A2DD5C8
S1133B2081110FC028E235E04DE250E06FE67BE002
S1133B308091E60A9091E70A0E94F9098FE69BE0DA
S1133B4002C080E090E0DF91CF911F910F91089522
S1133B50AF92BF92CF92DF92EF92FF920F931F9397
S1133B60CF93DF936C01FC0101900020E9F73197BA
S1133B707F01E81AF90A03E319E0C0E0D0E0F80194
S1133B8060817181A701C6010E940A2B892B49F427
S1133B90FE01EE0FFF1FEC0FFD1FEE5CF64F808160
S1133BA007C021960D5F1F4FC131D10541F780E158
S1133BB0DF91CF911F910F91FF90EF90DF90CF9005
S1133BC0BF90AF9008956CDFC3CF08958091E60A4B
S1133BD09091E70A0C94780908958F929F92AF927E
S1133BE0CF92EF920F93CF93C82F41E060E070E043
S1133BF088EC90E00E944C099093E70A8093E60ACF
S1133C000F2EFAE08F2EFDE19F2EF02D6894AA244A
S1133C10A6F86894CC24C6F8E12C00E023E040E048
S1133C2051EE60E070E08C2FEBD39093E90A80931F
S1133C30E80AE091DB0BF091DC0B64E087E091E0B3
S1133C401995CF910F91EF90CF90AF909F908F9057
S1133C500895882349F0E091E50BF091E60B64E0C8
S1133C6088E091E019950895E091DB0BF091DC0B6D
S1133C7064E088E091E01995089560E070E08EECCE
S1133C8096E00EDFEFE6FBE001900020E9F73197C4
S1133C90EF56FB4081E0759708F080E00895CF93DC
S1133CA0DF93EC0160E070E08FED96E0F9DEEFE683
S1133CB0FBE001900020E9F7E058FB4039F46FE69F
S1133CC07BE0CE010E94032B80E002C0188281E0D9
S1133CD0DF91CF910895FC0101900020E9F79F0145
S1133CE0215131092817390729F4BC018DE097E0E7
S1133CF06ACF089589E00895FC0101900020E9F756
S1133D009F01215131092817390729F4BC018CE19D
S1133D1097E059CF089589E00895FC0101900020AF
S1133D20E9F79F01215231092817390729F4BC0109
S1133D308BE297E048CF089589E0089560E070E051
S1133D408AE697E040CF0895E82FF0E0EE0FFF1FDA
S1133D50E25DF64F6081718183E797E034DF811182
S1133D6012C028E235E04DE250E06FE67BE080913E
S1133D70E60A9091E70A0E94F909882321F08FE668
S1133D809BE0E6CE08958FE69BE0E2CE0895CF93C4
S1133D90DF931F92CDB7DEB7DB0111969C9111978B
S1133DA0953108F087C0992381F160E070E0272FF6
S1133DB030E0462F50E0FD01E40FF51F928192950B
S1133DC09F709A3010F0995C01C0905DF901E05049
S1133DD0F54F90832F5F3F4FFD01E40FF51F928154
S1133DE09F70492F50E04A30510514F0995C01C08E
S1133DF0905DF901E050F54F90837E5F6F5F1196FF
S1133E009C911197691798F201C070E0E72FF0E0D8
S1133E10E050F54F10824C91811103C08CE797E07C
S1133E2002C08EE797E020E03BE03F932F931F9280
S1133E304F939F938F9382E897E09F938F9382E4AD
S1133E409BE09F938F930E94AD2B60E070E082E42F
S1133E509BE0B9DE0FB6F894DEBF0FBECDBF8E3047
S1133E6051F587E08983BE016F5F7F4F8FE69BE04A
S1133E703CD18093EA0AE981F0E0E159F44FDF0193
S1133E800D900020E9F71197AE1BBF0BAA2381F018
S1133E90BB271197CD010AF40196959587958093D8
S1133EA0EB0AAF014F5F5F4F64E18CEE9AE049D1BA
S1133EB08EE001C084E10F90DF91CF9108958130AD
S1133EC019F062E977E002C062E578E086E997E0FC
S1133ED07ACE08952F923F924F925F926F927F9283
S1133EE08F929F92AF92BF92CF92DF92EF92FF9206
S1133EF00F931F93CF93DF93CDB7DEB7A0970FB681
S1133F00F894DEBF0FBECDBF6BED77E087EE97E090
S1133F10C7DD1EDE8111A3C080E2E5E2F2E0DE012E
S1133F20119601900D928A95E1F79E012F5F3F4F04
S1133F306901E12CF12C0F2EF3EFAF2EF7E0BF2E29
S1133F40F02D02E41BE00F2EFCE04F2EF8E05F2E74
S1133F50F02D0F2EF3E28F2EF8E09F2EF02D0F2E72
S1133F60FDE36F2EF8E07F2EF02D3E2C2F2CFF92D8
S1133F70EF92BF92AF921F930F930E94AD2B60E01C
S1133F8070E0C8018DDDE4DD0F900F900F900F906D
S1133F900F900F90811163C032E03E15E8F4F601F2
S1133FA083818F9382818F9381818F9380818F937B
S1133FB0FF92EF925F924F921F930F930E94AD2B4B
S1133FC060E070E0C8016CDDC3DD0FB6F894DEBFBD
S1133FD00FBECDBF811143C02F923F929F928F920B
S1133FE01F930F930E94AD2B60E070E0C80158DD71
S1133FF0AFDD0F900F900F900F900F900F908111E5
S11340002EC02F923F927F926F921F930F930E9424
S1134010AD2B60E070E0C80143DD9ADD0F900F9096
S11340200F900F900F900F90811119C03FEFE31A7A
S1134030F30A84E0C80ED11C98E0E916F10409F0F3
S113404094CF60E070E085E598E02ADD81DD8111A0
S113405006C060E070E086E698E022DD79DDA09697
S11340600FB6F894DEBF0FBECDBFDF91CF911F9185
S11340700F91FF90EF90DF90CF90BF90AF909F9003
S11340808F907F906F905F904F903F902F90089506
S1134090EF92FF920F931F93CF93DF93EC018B0169
S11340A07A0181E00CDF81110DC0CE0125DE811182
S11340B009C0C80132DE811105C0C7010CDE8111BF
S11340C001C03CDEDF91CF911F910F91FF90EF90E3
S11340D0089590E0FC01EE0FFF1F8E0F9F1FFC015F
S11340E0EE5CF64F818192810895DC01009729F1FD
S11340F0FB012081FC0101900020E9F73197E81BC6
S1134100F90B822F90E0E817F907C8F080E008C0A7
S1134110880F382F330F330F830F8053890F2F5F8E
S1134120FD01E20FF11D908130ED390F3A3010F4AA
S11341309111EECFFB012083089580E0089580E083
S113414008950F931F93CF93DF93DC01EA01209727
S1134150E1F1FA0101900020E9F73197E41BF50B36
S1134160329710F532C08D01040F151F30E0AE01F7
S1134170420F531FFA019081913428F09753592F1D
S11341805295507F03C0592F5295507F2C0F3D1FDD
S1134190F9019181913410F0975301C09053950F18
S11341A0F80190838F5F01C080E0282F220F482FF1
S11341B050E0FE0101900020E9F73197EC1BFD0B64
S11341C04E175F0710F48613CECFDF91CF911F9166
S11341D00F910895FC0180810895FC01208181E004
S11341E090E002C0880F991F6A95E2F78223089530
S11341F0FC01808186230895FC0160830895FC01FD
S113420010820895FC01408121E030E002C0220FB9
S1134210331F6A95E2F7242B20830895FC01208143
S1134220622B60830895FC01408121E030E002C0EC
S1134230220F331F6A95E2F7242720830895FC0197
S11342402081622760830895FC01908121E030E0A1
S113425002C0220F331F6A95E2F720952923208399
S11342600895FC019081609569236083089580918D
S11342709F0B860F80939F0B9091A20B913079F046
S113428028F09230A9F0933019F108956F3F09F0A6
S113429048C010929F0B81E08093A20B089566386A
S11342A009F03FC010929E0B82E08093A20B089508
S11342B0E0919E0B81E08E0F80939E0BF0E0E4561C
S11342C0F44F6083823069F583E08093A20B0895F4
S11342D090919E0B21E0290F20939E0B963009F5B7
S11342E081110EC0ECE9FBE0808190E0982F8827D3
S11342F02181820F911D9093A40B8093A30B04C082
S11343001092A40B1092A30B1092A20BE091A00B9D
S1134310F091A10B309729F08091A30B9091A40BFD
S1134320199508958F929F92AF92CF92EF920F9327
S1134330CF93DF93EB010F2EF7E38F2EF1E29F2E45
S1134340F02D6894AA24A4F86894CC24C4F8E12C31
S113435000E023E040E855E260E070E051D0909343
S1134360A60B8093A50BD093A10BC093A00BDF9158
S1134370CF910F91EF90CF90AF909F908F90089531
S1134380CF93DF93CDB7DEB729970FB6F894DEBF8E
S11343900FBECDBF89E0E5E4F2E09E012F5F3F4F01
S11343A0D90101900D928A95E1F71092A40B109215
S11343B0A30B8091A50B9091A60B009731F0422F8F
S11343C0532F69E0DAD080E001C082E029960FB66D
S11343D0F894DEBF0FBECDBFDF91CF910895209139
S11343E0A30B3091A40B2115310529F4FC01118292
S11343F0108281E00895FC013183208380E00895D8
S11344002F923F924F925F926F927F928F929F92E0
S1134410AF92CF92EF92FF920F931F93CF93DF93BC
S1134420CDB7DEB7F82E2A013B0188E090E0C8D66C
S11344308C018F2D90E0880F991FFC01E955F44FF2
S113444011830083FC01E25FFD4F80819181D801DB
S11344508D939C936C2D70E084E090E097D61C01C2
S113446061E070E086E090E091D67C014C2DB101D2
S11344702DD5F801F582E4826A2D70E084E090E0A5
S113448085D61C0161E070E086E090E07FD67C0177
S11344904A2DB1011BD5D8011396FC92EE921297C6
S11344A017969C928E921697FFB6F894ED91FC9114
S11344B0119736978081826080838D909C90C30190
S11344C0B201FDD520E030E040E051E40E94101636
S11344D09B01AC0160E074E284E79BE47FD520E0BB
S11344E030E040E85FE30ED50E94BB15F40132973B
S11344F06083D801ED91FC911197359788E9808309
S1134500ED91FC91349786E08083FFBEC801DF9172
S1134510CF911F910F91FF90EF90CF90AF909F900C
S11345208F907F906F905F904F903F902F90089561
S1134530CF93DF93EC01EA81FB8193818281258112
S1134540981B922384819817A1F09381269529239F
S1134550A081B181A20FB11D6C939F5F258192232D
S11345609383E881F981359780818062808380E03C
S113457001C082E0DF91CF910895EF92FF920F93F3
S11345801F93CF93DF937C01DC011296ED91FC9194
S1134590139793818281981B858198238481891B39
S11345A0861798F1662341F1842F952FDC01615021
S11345B0462F50E04F5F5F4F480F591FE701EA81D4
S11345C0FB81938182812581981B92238481981792
S11345D079F08C91938126952923608171818B01D7
S11345E0020F111DE80188839F5F858198239383BF
S11345F01196A417B50711F7D701ED91FC913597E2
S113460080818062808380E001C082E0DF91CF916D
S11346101F910F91FF90EF900895DC011496ED9196
S1134620FC91159793818281981789F092818581F5
S113463086958923A081B181A80FB11D8C91DB01DE
S11346408C939F5F85819823928380E0089583E013
S113465008951F920F920FB60F9211240BB60F926A
S11346602F933F934F935F936F937F938F939F9376
S1134670AF93BF93CF93DF93EF93FF93A091A70BD7
S1134680B091A80B109711F16091C6001496ED91AA
S1134690FC911597938182812581981B92238481B3
S11346A0981761F0838126952823C081D181C20F98
S11346B0D11D68838F5F9581892383831696ED913D
S11346C0FC911797309711F0CD011995FF91EF9157
S11346D0DF91CF91BF91AF919F918F917F916F9116
S11346E05F914F913F912F910F900BBE0F900FBE92
S11346F00F901F9018951F920F920FB60F921124CE
S11347000BB60F922F938F939F93AF93BF93EF9317
S1134710FF93E091A70BF091A80B3097B9F00280BA
S1134720F381E02D938182819817B1F09281858184
S1134730282F26952923A081B181A20FB11D2C9188
S11347409F5F892382832093C6000BC0E1ECF0E0D5
S113475080818F7D808305C0E1ECF0E080818F7DD6
S11347608083FF91EF91BF91AF919F918F912F9192
S11347700F900BBE0F900FBE0F901F9018951F92B5
S11347800F920FB60F9211240BB60F922F933F93F3
S11347904F935F936F937F938F939F93AF93BF9345
S11347A0CF93DF93EF93FF93A091A90BB091AA0B42
S11347B0109711F16091CE001496ED91FC9115972C
S11347C0938182812581981B92238481981761F0BB
S11347D0838126952823C081D181C20FD11D68838E
S11347E08F5F9581892383831696ED91FC911797AA
S11347F0309711F0CD011995FF91EF91DF91CF9191
S1134800BF91AF919F918F917F916F915F914F91E4
S11348103F912F910F900BBE0F900FBE0F901F90E2
S113482018951F920F920FB60F9211240BB60F9288
S11348302F938F939F93AF93BF93EF93FF93E09145
S1134840A90BF091AA0B3097B9F00280F381E02D07
S1134850938182819817B1F092818581282F2695C2
S11348602923A081B181A20FB11D2C919F5F8923BF
S113487082832093CE000BC0E9ECF0E080818F7D31
S1134880808305C0E9ECF0E080818F7D8083FF9117
S1134890EF91BF91AF919F918F912F910F900BBE8C
S11348A00F900FBE0F901F9018951F920F920FB686
S11348B00F9211240BB60F922F933F934F935F9354
S11348C06F937F938F939F93AF93BF93CF93DF9314
S11348D0EF93FF93A091AB0BB091AC0B109711F138
S11348E06091D6001496ED91FC9115979381828185
S11348F02581981B92238481981761F083812695E2
S11349002823C081D181C20FD11D68838F5F958117
S1134910892383831696ED91FC911797309711F0B4
S1134920CD011995FF91EF91DF91CF91BF91AF9197
S11349309F918F917F916F915F914F913F912F91B3
S11349400F900BBE0F900FBE0F901F9018951F92E3
S11349500F920FB60F9211240BB60F922F938F93D1
S11349609F93AF93BF93EF93FF93E091AB0BF091C1
S1134970AC0B3097B9F00280F381E02D93818281F2
S11349809817B1F092818581282F26952923A0813B
S1134990B181A20FB11D2C919F5F89238283209343
S11349A0D6000BC0E1EDF0E080818F7D808305C0EF
S11349B0E1EDF0E080818F7D8083FF91EF91BF91E5
S11349C0AF919F918F912F910F900BBE0F900FBEBF
S11349D00F901F9018951F920F920FB60F921124EB
S11349E00BB60F922F933F934F935F936F937F93E5
S11349F08F939F93AF93BF93CF93DF93EF93FF93E3
S1134A00A091AD0BB091AE0B109711F160913601EE
S1134A101496ED91FC911597938182812581981BC1
S1134A2092238481981761F0838126952823C0817D
S1134A30D181C20FD11D68838F5F958189238383C0
S1134A401696ED91FC911797309711F0CD011995B9
S1134A50FF91EF91DF91CF91BF91AF919F918F9192
S1134A607F916F915F914F913F912F910F900BBE6A
S1134A700F900FBE0F901F9018951F920F920FB6B4
S1134A800F9211240BB60F922F938F939F93AF9392
S1134A90BF93EF93FF93E091AD0BF091AE0B309782
S1134AA0B9F00280F381E02D938182819817B1F0EF
S1134AB092818581282F26952923A081B181A20F77
S1134AC0B11D2C919F5F89238283209336010BC0F3
S1134AD0E1E3F1E080818F7D808305C0E1E3F1E0D3
S1134AE080818F7D8083FF91EF91BF91AF919F91E2
S1134AF08F912F910F900BBE0F900FBE0F901F90B0
S1134B001895CF93DF931F92CDB7DEB7BE016F5FC9
S1134B107F4F8091AF0B9091B00B7FDD8111F6CF69
S1134B20898190E00F90DF91CF910895682F809153
S1134B30AF0B9091B00BFCDC80E090E008958F9275
S1134B409F92AF92CF92EF920F93812C912C689405
S1134B50AA24A7F86894CC24C7F8E12C00E023E049
S1134B6040E051EE60E070E04BDC9093B00B80933A
S1134B70AF0BEDEEFBE086E192E0918380839383BB
S1134B8082830F91EF90CF90AF909F908F90089574
S1134B908091BF0B81110CC08CE08093B8008FEF23
S1134BA08093BB0084E08093BC0081E08093BF0BC2
S1134BB00895AF92BF92CF92DF92EF92FF920F933C
S1134BC01F93CF93DF93A82EB62E69017A0184E058
S1134BD090E0F6D2EC01892B61F1A88281E0B81251
S1134BE012C0C701B60120EA36E841E050E0A4D281
S1134BF0DA01C9014097A109B109B695A79597951E
S1134C008795898311C0C701B60120E83AE146E0DF
S1134C1050E092D2DA01C9014097A109B109B695D1
S1134C20A7959795879589831B830A838C2F9D2F3E
S1134C3002C080E090E0DF91CF911F910F91FF902F
S1134C40EF90DF90CF90BF90AF9008958091BC001B
S1134C5081700895FF920F931F93CF93DF93009772
S1134C60D1F14A30D0F5F42E8B01EC01EFDF811144
S1134C7036C08091B20B9091B30BC817D90741F09D
S1134C8087DF89818093B800D093B30BC093B20BB4
S1134C9081E08F0D8093B40B8881880F8093B50BCE
S1134CA0FF2089F0F801A6EBBBE04FEF4F0D642F16
S1134CB070E0CB010196B801680F791F81918D9343
S1134CC0E617F707D9F788EF8093240285EA8093E3
S1134CD0BC0084E005C086E003C087E001C082E038
S1134CE0DF91CF911F910F91FF9008951F93CF9360
S1134CF0DF93009729F16B3028F5162FEC01A6DF1E
S1134D00811122C08091B20B9091B30BC817D907BF
S1134D1041F03EDF89818093B800D093B30BC093F8
S1134D20B20B1093B40B8881880F81608093B50B0C
S1134D3088EF8093240285EA8093BC0085E005C057
S1134D4086E003C087E001C082E0DF91CF911F912C
S1134D5008951F920F920FB60F9211240BB60F9263
S1134D602F933F934F935F936F937F938F939F936F
S1134D70AF93BF93EF93FF93E091B9008E2F90E030
S1134D80FC013897E135F10508F075C08827E4582F
S1134D90FF4F8F4FF3C11092B10BE091B10B809193
S1134DA0B40BE81770F481E08E0F8093B10BF0E040
S1134DB0EB54F44F80818093BB0085E88093BC0062
S1134DC072C084E98093BC008091B20B9091B30BC4
S1134DD0DC011296ED91FC911397309709F463C0AE
S1134DE020E040E050E064E019955DC0E091B10B33
S1134DF081E08E0F8093B10B8091BB00F0E0EB5407
S1134E00F44F80838091B900803411F41092B10B77
S1134E102091B10B30E08091B40B90E001972817FA
S1134E20390724F485EC8093BC003DC085E8809369
S1134E30BC0039C08091BB00E091B10BF0E0EB54B1
S1134E40F44F808384E98093BC008091B20B9091ED
S1134E50B30BDC011296ED91FC911397309719F185
S1134E602091B40B45EB5BE065E019951CC085EA25
S1134E708093BC0018C08091B9008093240284E020
S1134E808093BC008091B20B9091B30BDC0112961D
S1134E90ED91FC911397309731F020E040E050E021
S1134EA0609124021995FF91EF91BF91AF919F9169
S1134EB08F917F916F915F914F913F912F910F90BF
S1134EC00BBE0F900FBE0F901F901895FC0141115F
S1134ED001C097D2842F90E09C0121503109822394
S1134EE09323892B09F08DD2413808F08AD212829B
S1134EF013824483440F415045837183608380E06F
S1134F0090E008955058BB27AA2713D00C94D316C9
S1134F100E94C51638F00E94CC1620F039F49F3F49
S1134F2019F426F40C94C2160EF4E095E7FB0C94E5
S1134F309316E92F0E94E71558F3BA17620773070F
S1134F408407950720F079F4A6F50C9409160EF45D
S1134F50E0950B2EBA2FA02D0B01B90190010C0185
S1134F60CA01A0011124FF27591B99F0593F50F49D
S1134F70503E68F11A16F040A22F232F342F4427F5
S1134F80585FF3CF469537952795A795F0405395ED
S1134F90C9F77EF41F16BA0B620B730B840BBAF0BD
S1134FA09150A1F0FF0FBB1F661F771F881FC2F728
S1134FB00EC0BA0F621F731F841F48F4879577953C
S1134FC06795B795F7959E3F08F0B0CF9395880FF6
S1134FD008F09927EE0F97958795089512D00C94B1
S1134FE0D3160E94CC1658F00E94C51640F029F43E
S1134FF05F3F29F00C94931651110C940A160C94EB
S1135000C2160E94E71568F39923B1F3552391F36F
S1135010951B550BBB27AA2762177307840738F023
S11350209F5F5F4F220F331F441FAA1FA9F335D080
S11350300E2E3AF0E0E832D091505040E695001C34
S1135040CAF72BD0FE2F29D0660F771F881FBB1FEE
S1135050261737074807AB07B0E809F0BB0B802DCC
S1135060BF01FF2793585F4F3AF09E3F510578F0F8
S11350700C9493160C940A165F3FE4F3983ED4F311
S1135080869577956795B795F7959F5FC9F7880FCC
S1135090911D9695879597F90895E1E0660F771F1E
S11350A0881FBB1F621773078407BA0720F0621BAF
S11350B0730B840BBA0BEE1F88F7E0950895E89400
S11350C009C097FB3EF490958095709561957F4F4C
S11350D08F4F9F4F9923A9F0F92F96E9BB279395FA
S11350E0F695879577956795B795F111F8CFFAF40A
S11350F0BB0F11F460FF1BC06F5F7F4F8F4F9F4F3B
S113510016C0882311F096E911C0772321F09EE898
S1135110872F762F05C0662371F096E8862F70E0FE
S113512060E02AF09A95660F771F881FDAF7880FD8
S11351309695879597F90895A1E21A2EAA1BBB1B91
S1135140FD010DC0AA1FBB1FEE1FFF1FA217B3074F
S1135150E407F50720F0A21BB30BE40BF50B661F65
S1135160771F881F991F1A9469F760957095809529
S113517090959B01AC01BD01CF010895EE0FFF1F77
S1135180881F8BBF0790F691E02D19940F931F93FE
S1135190CF93DF93869F8001879F100D969F100DFC
S11351A01124C8010DD0EC01009721F0A80160E0A2
S11351B070E017D2CE01DF91CF911F910F91089526
S11351C00F931F93CF93DF938230910510F482E005
S11351D090E0E091EB0BF091EC0B20E030E0A0E0EC
S11351E0B0E0309719F14081518102811381481751
S11351F05907C8F08417950769F4109731F012968F
S11352000C93129713961C9327C00093EB0B1093E7
S1135210EC0B22C02115310519F04217530718F47D
S11352209A01BD01EF01DF01F801DBCF2115310542
S1135230F9F0281B390B2430310580F48A819B81D5
S11352406115710521F0FB019383828304C090935F
S1135250EC0B8093EB0BFE01329644C0FE01E20F8F
S1135260F31F8193919322503109398328833AC0E3
S11352702091E90B3091EA0B232B41F42091020297
S1135280309103023093EA0B2093E90B2091000242
S1135290309101022115310541F42DB73EB74091FB
S11352A0040250910502241B350BE091E90BF091A7
S11352B0EA0BE217F307A0F42E1B3F0B281739075C
S11352C078F0AC014E5F5F4F2417350748F04E0F5E
S11352D05F1F5093EA0B4093E90B8193919302C0B3
S11352E0E0E0F0E0CF01DF91CF911F910F9108959D
S11352F0CF93DF93009709F481C0FC0132971382A6
S11353001282A091EB0BB091EC0B109781F42081E9
S11353103181820F931F2091E90B3091EA0B2817FA
S1135320390751F5F093EA0BE093E90B67C0ED01FF
S113533020E030E0CE17DF0740F44A815B819E0114
S113534041155105F1F0EA01F5CFD383C2834081C1
S11353505181840F951FC817D90759F48881998101
S1135360840F951F0296918380838A819B81938306
S113537082832115310529F4F093EC0BE093EB0BB8
S11353803DC0E901FB83EA8349915991C40FD51FBC
S1135390EC17FD0761F480819181840F951F0296BB
S11353A0E90199838883828193819B838A83E0E0E6
S11353B0F0E012968D919C911397009719F0FD01DE
S11353C0DC01F7CF8D919C9111979D012E5F3F4F8A
S11353D0820F931F2091E90B3091EA0B28173907AC
S11353E069F4309729F41092EC0B1092EB0B02C085
S11353F013821282B093EA0BA093E90BDF91CF9151
S1135400089581E090E0F89435C2283008F027E050
S11354103327DA01990F311D87FD916000966105EC
S1135420710539F432602E5F3D9330E32A95E1F73C
S113543008959F3F30F080387105610509F03C5FA5
S11354403C5F3D93913008F08068911DDF93CF93CA
S11354501F930F93FF92EF92192F987F9695E92F40
S113546096959695E90FFF27E450FE4F9927332729
S1135470EE24FF24A701E70105900894079428F47B
S1135480360FE71EF81E491F511D660F771F881F30
S1135490991F0694A1F70590079428F4E70EF81EC7
S11354A0491F561FC11D770F881F991F661F069439
S11354B0A1F70590079428F4F80E491F561FC71F3B
S11354C0D11D880F991F661F771F0694A1F70590B9
S11354D0079420F4490F561FC71FD81F990F661F42
S11354E0771F881F0694A9F784911095177041F0CF
S11354F0D695C79557954795F794E7941A95C1F7AC
S1135500E2EAF1E0689415901591359165919591D1
S113551005907FE27395E118F10A430B560BC90B12
S1135520D009C0F7E10CF11E431F561FC91FD01D3F
S11355307EF4703311F48A95E6CFE894015030F08C
S1135540080F0AF40027021708F4202F2395022FCE
S11355507A3328F079E37D932A95E9F710C07D9397
S11355602A9589F606949795679537951795179414
S1135570E118F10A430B560BC90BD00998F0239597
S11355807E9173957A3308F070E37C932013B8F717
S11355907E9170617D9330F0839571E37D9370E328
S11355A02A95E1F71124EF90FF900F911F91CF916D
S11355B0DF91992787FD90950895FC01059061502E
S11355C070400110D8F7809590958E0F9F1F089515
S11355D0FB01DC0102C001900D9241505040D8F70C
S11355E00895DC0101C06D9341505040E0F70895E7
S11355F0FB01DC010D900020E9F7119701900D9259
S11356000020E1F70895FB01DC0101900D920020D8
S1135610E1F70895FB01DC014150504088F08D9181
S113562081341CF08B350CF4805E619161341CF084
S11356306B350CF4605E861B611171F3990B089550
S1135640881BFCCFFC016150704001900110D8F719
S1135650809590958E0F9F1F08950F931F93CF935E
S1135660DF93FB01238121FD03C08FEF9FEF2CC04B
S113567022FF16C046815781248135814217530782
S113568044F4A081B1819D012F5F3F4F318320837A
S11356908C93268137812F5F3F4F3783268314C035
S11356A08B01EC01FB010084F185E02D1995892B18
S11356B0E1F6D80116968D919C911797019617964D
S11356C09C938E931697CE01DF91CF911F910F91EA
S11356D00895CF93DF93CDB7DEB7AE014A5F5F4F36
S11356E0FA0161917191AF018091EF0B9091F00BF0
S11356F00E94E416DF91CF9108950F931F93CF93E7
S1135700DF93E091EF0BF091F00B238121FF1BC09D
S11357108C01D0E0C0E0F80181918F016091EF0B22
S11357207091F00BDB011896ED91FC911997882389
S113573031F01995892B79F3DFEFCFEFECCF8AE0C5
S11357401995892B19F08FEF9FEF02C08D2F9C2F95
S1135750DF91CF911F910F9108950F931F93CF93D2
S1135760DF93CDB7DEB72E970FB6F894DEBF0FBE2A
S1135770CDBF0E891F8986E08C831A8309838FEF3E
S11357809FE79E838D83AE01465E5F4F688D798D62
S1135790CE0101960E94E416EF81F885E00FF11F17
S11357A010822E960FB6F894DEBF0FBECDBFDF91E8
S11357B0CF911F910F910895FA01AA27283051F132
S11357C0203181F1E8946F936E7F6E5F7F4F8F4F2E
S11357D09F4FAF4FB1E03ED0B4E03CD0670F781F8D
S11357E0891F9A1FA11D680F791F8A1F911DA11D72
S11357F06A0F711D811D911DA11D20D009F46894AB
S11358003F912AE0269F11243019305D3193DEF652
S1135810CF010895462F4770405D4193B3E00FD008
S1135820C9F7F6CF462F4F70405D4A3318F0495DF3
S113583031FD4052419302D0A9F7EACFB4E0A695D6
S11358409795879577956795BA95C9F700976105F8
S1135850710508959B01AC010A2E0694579547954E
S113586037952795BA95C9F7620F731F841F951F43
S10B5870A01D0895F894FFCF78
S11358780000F30B20000100C90B00400040C600E3
S1135888CE00D60036010000000300000000962573
S113589881250000F8A027BE33E034C1332042C478
S11358A83360E5AE33A0F2B133E0FFB433200DB872
S11358B833601ABB33FF0186000000000079FF0142
S11358C879A000000000E6FF0179000000000086CE
S11358D8FF0187000000000078FF01880000000035
S11358E8000049444C4500546D72205376630043CC
S11358F84F32206973202564200A20006D65617386
S11359087572656D656E74206E6F3A202564206823
S113591861732074656D702069732025342E326696
S11359282068756D69646974792069732025322E3D
S113593832662525200A0074657374203A206C6F3A
S113594872612068616E646C6572207461736B2087
S11359582D2D3E73657475703C2D2D7374617274AE
S1135968656400466163746F727952657365742067
S11359783E25733C0A00436F6E666967757265203D
S1135988746F204555383638203E25733C0A004745
S11359986574204857455549203E25733C3A2025CF
S11359A8730A00536574204465764555493A2025A1
S11359B873203E25733C0A003432663866326233FB
S11359C86462383065373362643137376362383834
S11359D864626261363765340065656166643062A5
S11359E839633638313964396100536574204F544A
S11359F84141204964656E74697479206170704509
S1135A0855493A2573206170704B45593A257320DE
S1135A186465764555493A2573203E25733C0A004A
S1135A2853617665206D6163203E25733C0A0053FB
S1135A386574204164617074697665204461746199
S1135A4820526174653A204F4E203E25733C0A006B
S1135A584A6F696E204E6574776F726B2054726951
S1135A6865734C6566743A2564203E25733C0A00C8
S1135A78636F6E6E656374696F6E206572726F72A0
S1135A883A3E25733C0A00436F6E6E656374656421
S1135A980055706C6F6164204D6573736167652090
S1135AA83E25733C0A004472697665722063726508
S1135AB861746564204F4B004C6F526120546173CC
S1135AC86B20537461727465640053657420746840
S1135AD865206D6F64756C6520746F2066616374EE
S1135AE86F7279207365742064656661756C74736C
S1135AF83A4641494C45440053657420746865200E
S1135B086D6F64756C6520746F20666163746F7261
S1135B1879207365742064656661756C74733A538F
S1135B2855434345535300436F6E66696775726501
S1135B3820746865206D6F64756C6520746F2075BA
S1135B487365207468652045553836382066726553
S1135B587175656E637920706C616E20616E642066
S1135B6873657474696E67733A204641494C4544B9
S1135B7800436F6E66696775726520746865206D89
S1135B886F64756C6520746F20757365207468651F
S1135B98204555383638206672657175656E6379A7
S1135BA820706C616E20616E642073657474696E14
S1135BB867733A205355434345535300476574204C
S1135BC874686520524E32343833206D6F64756CB6
S1135BD8657320756E6971756520646576455549E8
S1135BE83A4641494C454400476574207468652029
S1135BF8524E32343833206D6F64756C657320757A
S1135C086E69717565206465764555493A535543FF
S1135C1843455353006465765F657569206973204D
S1135C283A200053657420746865206E6563657353
S1135C3873617279204C6F526157414E20706172C2
S1135C48616D657465727320666F7220616E204F92
S1135C58544141206A6F696E3A204641494C454493
S1135C68005361766520616C6C20736574207061E3
S1135C7872616D657465727320746F207468652031
S1135C88524E32343833206D6F64756C6573204519
S1135C984550524F4D3A204641494C4544004A6FBD
S1135CA8696E204C6F526157414E20706172616D6C
S1135CB865746572732077697468204F5441413A5A
S1135CC82053554343455353004C5248616E640076
S1135CD854696D6572203120004D65617375726574
S1135CE820434F3220004D656173757265205465F9
